{
  "_format": "hh-sol-artifact-1",
  "contractName": "MilestoneManager",
  "sourceName": "contracts/MilestoneManager.sol",
  "abi": [
    {
      "inputs": [
        {
          "internalType": "address",
          "name": "_oracleAddress",
          "type": "address"
        }
      ],
      "stateMutability": "nonpayable",
      "type": "constructor"
    },
    {
      "anonymous": false,
      "inputs": [
        {
          "indexed": true,
          "internalType": "uint256",
          "name": "campaignId",
          "type": "uint256"
        },
        {
          "indexed": true,
          "internalType": "address",
          "name": "creator",
          "type": "address"
        }
      ],
      "name": "CampaignRegistered",
      "type": "event"
    },
    {
      "anonymous": false,
      "inputs": [
        {
          "indexed": true,
          "internalType": "uint256",
          "name": "campaignId",
          "type": "uint256"
        },
        {
          "indexed": true,
          "internalType": "uint256",
          "name": "milestoneId",
          "type": "uint256"
        },
        {
          "indexed": false,
          "internalType": "address",
          "name": "approver",
          "type": "address"
        }
      ],
      "name": "MilestoneApproved",
      "type": "event"
    },
    {
      "anonymous": false,
      "inputs": [
        {
          "indexed": true,
          "internalType": "uint256",
          "name": "campaignId",
          "type": "uint256"
        },
        {
          "indexed": true,
          "internalType": "uint256",
          "name": "milestoneId",
          "type": "uint256"
        },
        {
          "indexed": false,
          "internalType": "string",
          "name": "title",
          "type": "string"
        },
        {
          "indexed": false,
          "internalType": "uint256",
          "name": "targetAmount",
          "type": "uint256"
        },
        {
          "indexed": false,
          "internalType": "uint256",
          "name": "deadline",
          "type": "uint256"
        }
      ],
      "name": "MilestoneCreated",
      "type": "event"
    },
    {
      "anonymous": false,
      "inputs": [
        {
          "indexed": true,
          "internalType": "uint256",
          "name": "campaignId",
          "type": "uint256"
        },
        {
          "indexed": true,
          "internalType": "uint256",
          "name": "milestoneId",
          "type": "uint256"
        },
        {
          "indexed": true,
          "internalType": "address",
          "name": "contributor",
          "type": "address"
        },
        {
          "indexed": false,
          "internalType": "uint256",
          "name": "amount",
          "type": "uint256"
        }
      ],
      "name": "MilestoneFunded",
      "type": "event"
    },
    {
      "anonymous": false,
      "inputs": [
        {
          "indexed": true,
          "internalType": "uint256",
          "name": "campaignId",
          "type": "uint256"
        },
        {
          "indexed": true,
          "internalType": "uint256",
          "name": "milestoneId",
          "type": "uint256"
        },
        {
          "indexed": false,
          "internalType": "address",
          "name": "rejecter",
          "type": "address"
        }
      ],
      "name": "MilestoneRejected",
      "type": "event"
    },
    {
      "anonymous": false,
      "inputs": [
        {
          "indexed": true,
          "internalType": "uint256",
          "name": "campaignId",
          "type": "uint256"
        },
        {
          "indexed": true,
          "internalType": "uint256",
          "name": "milestoneId",
          "type": "uint256"
        },
        {
          "indexed": false,
          "internalType": "uint256",
          "name": "amount",
          "type": "uint256"
        }
      ],
      "name": "MilestoneReleased",
      "type": "event"
    },
    {
      "anonymous": false,
      "inputs": [
        {
          "indexed": true,
          "internalType": "uint256",
          "name": "campaignId",
          "type": "uint256"
        },
        {
          "indexed": true,
          "internalType": "uint256",
          "name": "milestoneId",
          "type": "uint256"
        },
        {
          "indexed": false,
          "internalType": "string",
          "name": "evidenceIpfsHash",
          "type": "string"
        },
        {
          "indexed": false,
          "internalType": "string",
          "name": "evidenceUrl",
          "type": "string"
        }
      ],
      "name": "MilestoneSubmitted",
      "type": "event"
    },
    {
      "anonymous": false,
      "inputs": [
        {
          "indexed": true,
          "internalType": "uint256",
          "name": "campaignId",
          "type": "uint256"
        },
        {
          "indexed": true,
          "internalType": "uint256",
          "name": "milestoneId",
          "type": "uint256"
        },
        {
          "indexed": true,
          "internalType": "address",
          "name": "voter",
          "type": "address"
        },
        {
          "indexed": false,
          "internalType": "bool",
          "name": "inFavour",
          "type": "bool"
        },
        {
          "indexed": false,
          "internalType": "uint256",
          "name": "weight",
          "type": "uint256"
        }
      ],
      "name": "MilestoneVoted",
      "type": "event"
    },
    {
      "anonymous": false,
      "inputs": [
        {
          "indexed": true,
          "internalType": "address",
          "name": "oldOracle",
          "type": "address"
        },
        {
          "indexed": true,
          "internalType": "address",
          "name": "newOracle",
          "type": "address"
        }
      ],
      "name": "OracleAddressUpdated",
      "type": "event"
    },
    {
      "anonymous": false,
      "inputs": [
        {
          "indexed": true,
          "internalType": "address",
          "name": "previousOwner",
          "type": "address"
        },
        {
          "indexed": true,
          "internalType": "address",
          "name": "newOwner",
          "type": "address"
        }
      ],
      "name": "OwnershipTransferred",
      "type": "event"
    },
    {
      "anonymous": false,
      "inputs": [
        {
          "indexed": false,
          "internalType": "uint256",
          "name": "quorumBps",
          "type": "uint256"
        },
        {
          "indexed": false,
          "internalType": "uint256",
          "name": "thresholdBps",
          "type": "uint256"
        },
        {
          "indexed": false,
          "internalType": "uint256",
          "name": "windowSeconds",
          "type": "uint256"
        }
      ],
      "name": "VotingParamsUpdated",
      "type": "event"
    },
    {
      "inputs": [],
      "name": "MAX_MILESTONES_PER_CAMPAIGN",
      "outputs": [
        {
          "internalType": "uint256",
          "name": "",
          "type": "uint256"
        }
      ],
      "stateMutability": "view",
      "type": "function"
    },
    {
      "inputs": [],
      "name": "approvalThresholdBps",
      "outputs": [
        {
          "internalType": "uint256",
          "name": "",
          "type": "uint256"
        }
      ],
      "stateMutability": "view",
      "type": "function"
    },
    {
      "inputs": [
        {
          "internalType": "uint256",
          "name": "_campaignId",
          "type": "uint256"
        },
        {
          "internalType": "uint256",
          "name": "_milestoneId",
          "type": "uint256"
        }
      ],
      "name": "approveMilestoneByOracle",
      "outputs": [],
      "stateMutability": "nonpayable",
      "type": "function"
    },
    {
      "inputs": [
        {
          "internalType": "uint256",
          "name": "",
          "type": "uint256"
        }
      ],
      "name": "campaignCreator",
      "outputs": [
        {
          "internalType": "address",
          "name": "",
          "type": "address"
        }
      ],
      "stateMutability": "view",
      "type": "function"
    },
    {
      "inputs": [
        {
          "internalType": "uint256",
          "name": "",
          "type": "uint256"
        }
      ],
      "name": "campaignTarget",
      "outputs": [
        {
          "internalType": "uint256",
          "name": "",
          "type": "uint256"
        }
      ],
      "stateMutability": "view",
      "type": "function"
    },
    {
      "inputs": [
        {
          "internalType": "uint256",
          "name": "_campaignId",
          "type": "uint256"
        },
        {
          "internalType": "uint256",
          "name": "_milestoneId",
          "type": "uint256"
        }
      ],
      "name": "claimMilestoneRefund",
      "outputs": [],
      "stateMutability": "nonpayable",
      "type": "function"
    },
    {
      "inputs": [
        {
          "internalType": "uint256",
          "name": "_campaignId",
          "type": "uint256"
        },
        {
          "internalType": "uint256",
          "name": "_milestoneId",
          "type": "uint256"
        }
      ],
      "name": "contributeToMilestone",
      "outputs": [],
      "stateMutability": "payable",
      "type": "function"
    },
    {
      "inputs": [
        {
          "internalType": "uint256",
          "name": "_campaignId",
          "type": "uint256"
        },
        {
          "internalType": "string",
          "name": "_title",
          "type": "string"
        },
        {
          "internalType": "string",
          "name": "_description",
          "type": "string"
        },
        {
          "internalType": "uint256",
          "name": "_targetAmount",
          "type": "uint256"
        },
        {
          "internalType": "uint256",
          "name": "_duration",
          "type": "uint256"
        }
      ],
      "name": "createMilestone",
      "outputs": [],
      "stateMutability": "nonpayable",
      "type": "function"
    },
    {
      "inputs": [
        {
          "internalType": "uint256",
          "name": "_campaignId",
          "type": "uint256"
        },
        {
          "internalType": "uint256",
          "name": "_milestoneId",
          "type": "uint256"
        }
      ],
      "name": "finalizeVoting",
      "outputs": [],
      "stateMutability": "nonpayable",
      "type": "function"
    },
    {
      "inputs": [
        {
          "internalType": "uint256",
          "name": "_campaignId",
          "type": "uint256"
        }
      ],
      "name": "getCampaignMilestones",
      "outputs": [
        {
          "components": [
            {
              "internalType": "uint256",
              "name": "id",
              "type": "uint256"
            },
            {
              "internalType": "uint256",
              "name": "campaignId",
              "type": "uint256"
            },
            {
              "internalType": "string",
              "name": "title",
              "type": "string"
            },
            {
              "internalType": "string",
              "name": "description",
              "type": "string"
            },
            {
              "internalType": "uint256",
              "name": "targetAmount",
              "type": "uint256"
            },
            {
              "internalType": "uint256",
              "name": "raisedAmount",
              "type": "uint256"
            },
            {
              "internalType": "uint256",
              "name": "deadline",
              "type": "uint256"
            },
            {
              "internalType": "enum MilestoneManager.MilestoneStatus",
              "name": "status",
              "type": "uint8"
            },
            {
              "internalType": "string",
              "name": "evidenceIpfsHash",
              "type": "string"
            },
            {
              "internalType": "string",
              "name": "evidenceUrl",
              "type": "string"
            },
            {
              "internalType": "uint256",
              "name": "totalVotesFor",
              "type": "uint256"
            },
            {
              "internalType": "uint256",
              "name": "totalVotesAgainst",
              "type": "uint256"
            },
            {
              "internalType": "uint256",
              "name": "contributorsCount",
              "type": "uint256"
            },
            {
              "internalType": "bool",
              "name": "fundsReleased",
              "type": "bool"
            }
          ],
          "internalType": "struct MilestoneManager.Milestone[]",
          "name": "",
          "type": "tuple[]"
        }
      ],
      "stateMutability": "view",
      "type": "function"
    },
    {
      "inputs": [
        {
          "internalType": "uint256",
          "name": "_campaignId",
          "type": "uint256"
        },
        {
          "internalType": "uint256",
          "name": "_milestoneId",
          "type": "uint256"
        },
        {
          "internalType": "address",
          "name": "_contributor",
          "type": "address"
        }
      ],
      "name": "getContribution",
      "outputs": [
        {
          "internalType": "uint256",
          "name": "",
          "type": "uint256"
        }
      ],
      "stateMutability": "view",
      "type": "function"
    },
    {
      "inputs": [
        {
          "internalType": "uint256",
          "name": "_campaignId",
          "type": "uint256"
        },
        {
          "internalType": "uint256",
          "name": "_milestoneId",
          "type": "uint256"
        }
      ],
      "name": "getMilestone",
      "outputs": [
        {
          "components": [
            {
              "internalType": "uint256",
              "name": "id",
              "type": "uint256"
            },
            {
              "internalType": "uint256",
              "name": "campaignId",
              "type": "uint256"
            },
            {
              "internalType": "string",
              "name": "title",
              "type": "string"
            },
            {
              "internalType": "string",
              "name": "description",
              "type": "string"
            },
            {
              "internalType": "uint256",
              "name": "targetAmount",
              "type": "uint256"
            },
            {
              "internalType": "uint256",
              "name": "raisedAmount",
              "type": "uint256"
            },
            {
              "internalType": "uint256",
              "name": "deadline",
              "type": "uint256"
            },
            {
              "internalType": "enum MilestoneManager.MilestoneStatus",
              "name": "status",
              "type": "uint8"
            },
            {
              "internalType": "string",
              "name": "evidenceIpfsHash",
              "type": "string"
            },
            {
              "internalType": "string",
              "name": "evidenceUrl",
              "type": "string"
            },
            {
              "internalType": "uint256",
              "name": "totalVotesFor",
              "type": "uint256"
            },
            {
              "internalType": "uint256",
              "name": "totalVotesAgainst",
              "type": "uint256"
            },
            {
              "internalType": "uint256",
              "name": "contributorsCount",
              "type": "uint256"
            },
            {
              "internalType": "bool",
              "name": "fundsReleased",
              "type": "bool"
            }
          ],
          "internalType": "struct MilestoneManager.Milestone",
          "name": "",
          "type": "tuple"
        }
      ],
      "stateMutability": "view",
      "type": "function"
    },
    {
      "inputs": [
        {
          "internalType": "uint256",
          "name": "_campaignId",
          "type": "uint256"
        },
        {
          "internalType": "uint256",
          "name": "_milestoneId",
          "type": "uint256"
        },
        {
          "internalType": "address",
          "name": "_voter",
          "type": "address"
        }
      ],
      "name": "getVote",
      "outputs": [
        {
          "components": [
            {
              "internalType": "bool",
              "name": "hasVoted",
              "type": "bool"
            },
            {
              "internalType": "bool",
              "name": "inFavour",
              "type": "bool"
            },
            {
              "internalType": "uint256",
              "name": "weight",
              "type": "uint256"
            }
          ],
          "internalType": "struct MilestoneManager.Vote",
          "name": "",
          "type": "tuple"
        }
      ],
      "stateMutability": "view",
      "type": "function"
    },
    {
      "inputs": [
        {
          "internalType": "uint256",
          "name": "_campaignId",
          "type": "uint256"
        }
      ],
      "name": "isCampaignRegistered",
      "outputs": [
        {
          "internalType": "bool",
          "name": "",
          "type": "bool"
        }
      ],
      "stateMutability": "view",
      "type": "function"
    },
    {
      "inputs": [
        {
          "internalType": "uint256",
          "name": "",
          "type": "uint256"
        },
        {
          "internalType": "uint256",
          "name": "",
          "type": "uint256"
        },
        {
          "internalType": "address",
          "name": "",
          "type": "address"
        }
      ],
      "name": "milestoneContributions",
      "outputs": [
        {
          "internalType": "uint256",
          "name": "",
          "type": "uint256"
        }
      ],
      "stateMutability": "view",
      "type": "function"
    },
    {
      "inputs": [
        {
          "internalType": "uint256",
          "name": "",
          "type": "uint256"
        }
      ],
      "name": "milestoneCount",
      "outputs": [
        {
          "internalType": "uint256",
          "name": "",
          "type": "uint256"
        }
      ],
      "stateMutability": "view",
      "type": "function"
    },
    {
      "inputs": [
        {
          "internalType": "uint256",
          "name": "",
          "type": "uint256"
        },
        {
          "internalType": "uint256",
          "name": "",
          "type": "uint256"
        }
      ],
      "name": "milestones",
      "outputs": [
        {
          "internalType": "uint256",
          "name": "id",
          "type": "uint256"
        },
        {
          "internalType": "uint256",
          "name": "campaignId",
          "type": "uint256"
        },
        {
          "internalType": "string",
          "name": "title",
          "type": "string"
        },
        {
          "internalType": "string",
          "name": "description",
          "type": "string"
        },
        {
          "internalType": "uint256",
          "name": "targetAmount",
          "type": "uint256"
        },
        {
          "internalType": "uint256",
          "name": "raisedAmount",
          "type": "uint256"
        },
        {
          "internalType": "uint256",
          "name": "deadline",
          "type": "uint256"
        },
        {
          "internalType": "enum MilestoneManager.MilestoneStatus",
          "name": "status",
          "type": "uint8"
        },
        {
          "internalType": "string",
          "name": "evidenceIpfsHash",
          "type": "string"
        },
        {
          "internalType": "string",
          "name": "evidenceUrl",
          "type": "string"
        },
        {
          "internalType": "uint256",
          "name": "totalVotesFor",
          "type": "uint256"
        },
        {
          "internalType": "uint256",
          "name": "totalVotesAgainst",
          "type": "uint256"
        },
        {
          "internalType": "uint256",
          "name": "contributorsCount",
          "type": "uint256"
        },
        {
          "internalType": "bool",
          "name": "fundsReleased",
          "type": "bool"
        }
      ],
      "stateMutability": "view",
      "type": "function"
    },
    {
      "inputs": [],
      "name": "oracleAddress",
      "outputs": [
        {
          "internalType": "address",
          "name": "",
          "type": "address"
        }
      ],
      "stateMutability": "view",
      "type": "function"
    },
    {
      "inputs": [],
      "name": "owner",
      "outputs": [
        {
          "internalType": "address",
          "name": "",
          "type": "address"
        }
      ],
      "stateMutability": "view",
      "type": "function"
    },
    {
      "inputs": [
        {
          "internalType": "uint256",
          "name": "_campaignId",
          "type": "uint256"
        },
        {
          "internalType": "uint256",
          "name": "_campaignTarget",
          "type": "uint256"
        }
      ],
      "name": "registerCampaign",
      "outputs": [],
      "stateMutability": "nonpayable",
      "type": "function"
    },
    {
      "inputs": [
        {
          "internalType": "uint256",
          "name": "_campaignId",
          "type": "uint256"
        },
        {
          "internalType": "uint256",
          "name": "_milestoneId",
          "type": "uint256"
        }
      ],
      "name": "rejectMilestoneByOracle",
      "outputs": [],
      "stateMutability": "nonpayable",
      "type": "function"
    },
    {
      "inputs": [],
      "name": "renounceOwnership",
      "outputs": [],
      "stateMutability": "nonpayable",
      "type": "function"
    },
    {
      "inputs": [
        {
          "internalType": "address",
          "name": "_newOracle",
          "type": "address"
        }
      ],
      "name": "setOracleAddress",
      "outputs": [],
      "stateMutability": "nonpayable",
      "type": "function"
    },
    {
      "inputs": [
        {
          "internalType": "uint256",
          "name": "_quorumBps",
          "type": "uint256"
        },
        {
          "internalType": "uint256",
          "name": "_thresholdBps",
          "type": "uint256"
        },
        {
          "internalType": "uint256",
          "name": "_windowSeconds",
          "type": "uint256"
        }
      ],
      "name": "setVotingParams",
      "outputs": [],
      "stateMutability": "nonpayable",
      "type": "function"
    },
    {
      "inputs": [
        {
          "internalType": "uint256",
          "name": "_campaignId",
          "type": "uint256"
        },
        {
          "internalType": "uint256",
          "name": "_milestoneId",
          "type": "uint256"
        },
        {
          "internalType": "string",
          "name": "_evidenceIpfsHash",
          "type": "string"
        },
        {
          "internalType": "string",
          "name": "_evidenceUrl",
          "type": "string"
        }
      ],
      "name": "submitMilestoneEvidence",
      "outputs": [],
      "stateMutability": "nonpayable",
      "type": "function"
    },
    {
      "inputs": [
        {
          "internalType": "uint256",
          "name": "",
          "type": "uint256"
        }
      ],
      "name": "totalMilestoneTarget",
      "outputs": [
        {
          "internalType": "uint256",
          "name": "",
          "type": "uint256"
        }
      ],
      "stateMutability": "view",
      "type": "function"
    },
    {
      "inputs": [
        {
          "internalType": "address",
          "name": "newOwner",
          "type": "address"
        }
      ],
      "name": "transferOwnership",
      "outputs": [],
      "stateMutability": "nonpayable",
      "type": "function"
    },
    {
      "inputs": [
        {
          "internalType": "uint256",
          "name": "_campaignId",
          "type": "uint256"
        },
        {
          "internalType": "uint256",
          "name": "_milestoneId",
          "type": "uint256"
        },
        {
          "internalType": "bool",
          "name": "_inFavour",
          "type": "bool"
        }
      ],
      "name": "voteMilestone",
      "outputs": [],
      "stateMutability": "nonpayable",
      "type": "function"
    },
    {
      "inputs": [
        {
          "internalType": "uint256",
          "name": "",
          "type": "uint256"
        },
        {
          "internalType": "uint256",
          "name": "",
          "type": "uint256"
        },
        {
          "internalType": "address",
          "name": "",
          "type": "address"
        }
      ],
      "name": "votes",
      "outputs": [
        {
          "internalType": "bool",
          "name": "hasVoted",
          "type": "bool"
        },
        {
          "internalType": "bool",
          "name": "inFavour",
          "type": "bool"
        },
        {
          "internalType": "uint256",
          "name": "weight",
          "type": "uint256"
        }
      ],
      "stateMutability": "view",
      "type": "function"
    },
    {
      "inputs": [],
      "name": "votingQuorumBps",
      "outputs": [
        {
          "internalType": "uint256",
          "name": "",
          "type": "uint256"
        }
      ],
      "stateMutability": "view",
      "type": "function"
    },
    {
      "inputs": [],
      "name": "votingWindowSeconds",
      "outputs": [
        {
          "internalType": "uint256",
          "name": "",
          "type": "uint256"
        }
      ],
      "stateMutability": "view",
      "type": "function"
    },
    {
      "inputs": [
        {
          "internalType": "uint256",
          "name": "_campaignId",
          "type": "uint256"
        },
        {
          "internalType": "uint256",
          "name": "_milestoneId",
          "type": "uint256"
        }
      ],
      "name": "withdrawMilestoneFunds",
      "outputs": [],
      "stateMutability": "nonpayable",
      "type": "function"
    },
    {
      "stateMutability": "payable",
      "type": "receive"
    }
  ],
  "bytecode": "0x6080346200012357601f62002e9138819003918201601f19168301916001600160401b0383118484101762000128578084926020946040528339810103126200012357516001600160a01b0380821691829003620001235760016000556001549060018060a01b0319913383821617600155604051913391167f8be0079c531659141344cd1fd0a4f28419497f9722a3daafe3b4186f6b6457e0600080a3610bb8600a556113ec600b5562093a80600c558215620000d057506002541617600255604051612d5290816200013f8239f35b62461bcd60e51b815260206004820152602860248201527f4d696c6573746f6e654d616e616765723a206f7261636c65206973207a65726f604482015267206164647265737360c01b6064820152608490fd5b600080fd5b634e487b7160e01b600052604160045260246000fdfe608080604052600436101561001d575b50361561001b57600080fd5b005b60003560e01c9081630e3f72cc1461227f57508063147fefa614611f075780631c376c6314611dda57806328fad64614611d1e57806331aee8a114611b495780633eb6b2c614610bb15780634c69c00f14611a955780634f2b4234146119f3578063583be14e146119bd578063657e62f714611901578063705b14c0146118e5578063715018a61461188857806372ebb42a1461185c578063776e957a146116f75780638da5cb5b146116ce5780638dc7b61514610ec05780638ed9895c14610e42578063918cb24114610bf85780639b03234214610bb1578063a89ae4ba14610b88578063ab881ffd14610b5c578063ad6b7aa614610b30578063b48e784a14610afc578063bb7641e614610720578063bcded7b614610702578063bfe2661214610546578063c8db7e7a146104e2578063cb7c172b146104c4578063d1bc76eb146104a6578063f01a5925146103a9578063f2fde38b146102e05763f91e4b291461018a573861000f565b346102db576020806003193601126102db57600435908160005260048152604060002054916101b883612cdb565b926101c66040519485612458565b808452601f196101d582612cdb565b0160005b8181106102bf575050600191825b828111156102515750505060405191808301818452845180915260408401918060408360051b8701019601926000905b8382106102245786880387f35b90919293948380610240839a603f198b820301865289516125d9565b999701959493919091019101610217565b816000969496526003855260406000208160005285526040600020906000198101918183116102a9576102a19261028a61029b92612c0f565b6102948289612cf2565b5286612cf2565b50612765565b9492946101e7565b634e487b7160e01b600052601160045260246000fd5b84906102cc969496612ba4565b828287010152019492946101d9565b600080fd5b346102db5760203660031901126102db576102f961256c565b6103016126a5565b6001600160a01b0390811690811561035557600154826bffffffffffffffffffffffff60a01b821617600155167f8be0079c531659141344cd1fd0a4f28419497f9722a3daafe3b4186f6b6457e0600080a3005b60405162461bcd60e51b815260206004820152602660248201527f4f776e61626c653a206e6577206f776e657220697320746865207a65726f206160448201526564647265737360d01b6064820152608490fd5b346102db576103b7366123b6565b8015158061048e575b6103c99061282f565b816000526003602052604060002081600052602052604060002060ff60078201541660068110156104785761041191610406600160069314612945565b0154600c5490612758565b42106104205761001b91612a7e565b60405162461bcd60e51b815260206004820152602a60248201527f4d696c6573746f6e654d616e616765723a20766f74696e672077696e646f772060448201526939ba34b6361037b832b760b11b6064820152608490fd5b634e487b7160e01b600052602160045260246000fd5b506000828152600460205260409020548111156103c0565b346102db5760003660031901126102db576020600c54604051908152f35b346102db5760003660031901126102db576020600b54604051908152f35b346102db576104f036612582565b91600052600960205260406000209060005260205260406000209060018060a01b0316600052602052606060406000206001815491015460ff604051928181161515845260081c16151560208301526040820152f35b346102db57610554366123b6565b908060005260206005815260018060a01b0390610579826040600020541633146126fd565b831515806106eb575b61058b9061282f565b610593612894565b826000526003815260406000208460005281526040600020600d8101805460ff811661069b57600783019182549060ff8216600681101561047857600203610656576000948594600486958695600595600160ff1980941617905516179055015480968883526005875260408320541682821561064d575bf115610641577fd33fcd27cbfb73a2d9058c968b560ccb306500bf536133802048489ecc7355e991604051908152a36001600055005b6040513d6000823e3d90fd5b506108fc61060b565b60405162461bcd60e51b815260048101879052601e60248201527f4d696c6573746f6e654d616e616765723a206e6f7420617070726f76656400006044820152606490fd5b60405162461bcd60e51b815260048101859052602260248201527f4d696c6573746f6e654d616e616765723a20616c72656164792072656c656173604482015261195960f21b6064820152608490fd5b506000838152600482526040902054841115610582565b346102db5760003660031901126102db576020600a54604051908152f35b346102db5760803660031901126102db57602480356004356001600160401b036044358181116102db576107589036906004016125ac565b90916064358181116102db576107729036906004016125ac565b91856000526020976005895261079660018060a01b036040600020541633146126fd565b87151580610ae5575b6107a89061282f565b86600052600389526040600020886000528952604060002090600782019182549260ff84166006811015610ad057610a74578715801590610a6b575b15610a17576001809460ff191617905560088101848811610a02576108138861080d83546123cc565b836127ba565b8760008d601f83116001146109935750906009939291600091610988575b5060001960038b901b1c191689861b1790555b0192851161097457506108618461085b84546123cc565b846127ba565b6000601f85116001146108e9579184807facefa0f349f716ad6ed6168191ef3ce7fa814c240f96e4299b6508550ffcb820999a9b95936108d997956000936108de575b501b906000198560031b1c19161790555b6108cc60405196879660408852604088019161280e565b928584039086015261280e565b0390a3005b85013592508d6108a4565b601f19851690836000528a6000209160005b81811061095f5750917facefa0f349f716ad6ed6168191ef3ce7fa814c240f96e4299b6508550ffcb820999a9b959391876108d998969410610945575b505083811b0190556108b5565b840135600019600387901b60f8161c191690558b80610938565b86830135845592840192918c01918c016108fb565b634e487b7160e01b60009081526041600452fd5b90508a01358e610831565b908b949392601f198116846000528360002093896000985b838a106109e75750505060099650106109cd575b50508489811b019055610844565b8b013560001960038c901b60f8161c191690558d806109bf565b85013586559781019790940193928301928d9250898f6109ab565b82634e487b7160e01b60005260416004526000fd5b60405162461bcd60e51b8152600481018d90526027818501527f4d696c6573746f6e654d616e616765723a206d7573742070726f766964652065604482015266766964656e636560c81b6064820152608490fd5b508615156107e4565b60405162461bcd60e51b8152600481018d9052602f818501527f4d696c6573746f6e654d616e616765723a20616c7265616479207375626d697460448201526e1d1959081bdc881c995cdbdb1d9959608a1b6064820152608490fd5b83634e487b7160e01b60005260216004526000fd5b50600087815260048a52604090205488111561079f565b346102db5760203660031901126102db576004356000526005602052602060018060a01b0360406000205416604051908152f35b346102db5760203660031901126102db5760043560005260066020526020604060002054604051908152f35b346102db5760203660031901126102db5760043560005260076020526020604060002054604051908152f35b346102db5760003660031901126102db576002546040516001600160a01b039091168152602090f35b346102db57610bbf36612582565b91600052600860205260406000209060005260205260406000209060018060a01b03166000526020526020604060002054604051908152f35b346102db5760603660031901126102db576044356024356004358215158084036102db5782151580610e2a575b610c2e9061282f565b816000526020600381526040600020846000528152604060002090836000526008815260406000208560005281526040600020336000528152604060002054918215610dce57846000526009825260406000208660005282526040600020336000528252604060002096875460ff8116610d895760ff600784015416600681101561047857600103610d3a57600161001b9981879361ff008a60081b169061ffff1916171781550155600014610d2557600a01610cec838254612758565b90555b60405192835282015282827fc4034c86715a9b37c41bd89fdabb308d4cc0f2aca4a22eb6b311492fefdad74360403394a46129b5565b600b01610d33838254612758565b9055610cef565b60405162461bcd60e51b815260048101859052602160248201527f4d696c6573746f6e654d616e616765723a20766f74696e67206e6f74206f70656044820152603760f91b6064820152608490fd5b60405162461bcd60e51b815260048101859052601f60248201527f4d696c6573746f6e654d616e616765723a20616c726561647920766f746564006044820152606490fd5b60405162461bcd60e51b815260048101839052602e60248201527f4d696c6573746f6e654d616e616765723a206e6f20636f6e747269627574696f60448201526d0dc40e8de40ecdee8ca40eed2e8d60931b6064820152608490fd5b50600082815260046020526040902054831115610c25565b346102db57610e50366123b6565b90610e59612ba4565b5081151580610ea8575b610e6c9061282f565b6000526003602052604060002090600052602052610ea4610e906040600020612c0f565b6040519182916020835260208301906125d9565b0390f35b50600081815260046020526040902054821115610e63565b346102db5760a03660031901126102db576024356001600160401b0381116102db57610ef09036906004016125ac565b90604480356001600160401b0381116102db57610f119036906004016125ac565b9390926004356000526005602052610f3760018060a01b036040600020541633146126fd565b60649283351561167f576084351561162d5782156115ea57600435600052600460205260056040600020541015611596576004356000526007602052610f838435604060002054612758565b906004356000526006602052604060002054821161152d5750600435600052600760205260406000205560046020526040600020610fc18154612765565b9055600435600052600460205260406000205493611014610fe460843542612758565b9160405197610ff289612421565b87895260043560208a0152611008368787612774565b60408a01523691612774565b606087015283356080870152600060a087015260c0860152600060e086015260405161103f8161243d565b600081526101008601526040516110558161243d565b6000815261012086015260006101408601526000610160860152600061018086015260006101a08601526004356000526003602052604060002084600052602052604060002094805186556020810151600187015560408101518051906001600160401b0382116113a05781906110dc826110d360028c01546123cc565b60028c016127ba565b602090601f83116001146114bb576000926114b0575b50508160011b916000199060031b1c19161760028701555b60608101518051906001600160401b0382116113a057819061113c8261113360038c01546123cc565b60038c016127ba565b602090601f831160011461143e57600092611433575b50508160011b916000199060031b1c19161760038701555b6080810151600487015560a0810151600587015560c081015160068701556007860160e082015160068110156104785760ff801983541691161790556101008101518051906001600160401b0382116113a05781906111d9826111d060088c01546123cc565b60088c016127ba565b602090601f83116001146113c1576000926113b6575b50508160011b916000199060031b1c19161760088701555b6101208101519586516001600160401b0381116113a0576112388161122f60098501546123cc565b600985016127ba565b6020601f8211600114611308579181600d926101a0947f7388b0a2d11e0575b753037e87c5c66b795cb79a842ab2cc7dbaae43ff84e7de999a9b6000926112fd575b50508160011b916000199060031b1c19161760098201555b610140840151600a820155610160840151600b820155610180840151600c82015501910151151560ff801983541691161790556112e76112d460843542612758565b916040519360608552606085019161280e565b93356020830152604082015280600435930390a3005b015190508b8061127a565b6009830160005260206000209860005b601f19841681106113885750827f7388b0a2d11e0575b753037e87c5c66b795cb79a842ab2cc7dbaae43ff84e7de98999a6101a09593600193600d96601f1981161061136f575b505050811b016009820155611292565b015160001960f88460031b161c191690558b808061135f565b828201518b556001909a019960209283019201611318565b634e487b7160e01b600052604160045260246000fd5b0151905088806111ef565b9250600889016000526020600020906000935b601f1984168510611418576001945083601f198116106113ff575b505050811b016008870155611207565b015160001960f88460031b161c191690558880806113ef565b818101518355602094850194600190930192909101906113d4565b015190508880611152565b9250600389016000526020600020906000935b601f1984168510611495576001945083601f1981161061147c575b505050811b01600387015561116a565b015160001960f88460031b161c1916905588808061146c565b81810151835560209485019460019093019290910190611451565b0151905088806110f2565b9250600289016000526020600020906000935b601f1984168510611512576001945083601f198116106114f9575b505050811b01600287015561110a565b015160001960f88460031b161c191690558880806114e9565b818101518355602094850194600190930192909101906114ce565b6084907f65747320776f756c64206578636565642063616d706169676e20676f616c0000867f4d696c6573746f6e654d616e616765723a206d696c6573746f6e6520746172676040519362461bcd60e51b855260206004860152603e6024860152840152820152fd5b60849067081c995858da195960c21b857f4d696c6573746f6e654d616e616765723a206d6178206d696c6573746f6e65736040519362461bcd60e51b85526020600486015260286024860152840152820152fd5b83907f4d696c6573746f6e654d616e616765723a20656d707479207469746c650000006040519162461bcd60e51b835260206004840152601d6024840152820152fd5b6084906506265203e20360d41b857f4d696c6573746f6e654d616e616765723a206475726174696f6e206d757374206040519362461bcd60e51b85526020600486015260266024860152840152820152fd5b608490630203e20360e41b857f4d696c6573746f6e654d616e616765723a20746172676574206d7573742062656040519362461bcd60e51b855260206004860152602480860152840152820152fd5b346102db5760003660031901126102db576001546040516001600160a01b039091168152602090f35b346102db5760603660031901126102db576044356024356004356117196126a5565b6127108082116118175782116117c757620151808310611777577ff2b4407bc29c4fa956df36358492d43b143e2221b965f5244605dbf5d5545bca9260609282600a5580600b5581600c5560405192835260208301526040820152a1005b60405162461bcd60e51b815260206004820152602260248201527f4d696c6573746f6e654d616e616765723a2077696e646f7720746f6f2073686f6044820152611c9d60f21b6064820152608490fd5b60405162461bcd60e51b815260206004820152602260248201527f4d696c6573746f6e654d616e616765723a207468726573686f6c64203e203130604482015261302560f01b6064820152608490fd5b60405162461bcd60e51b815260206004820152601f60248201527f4d696c6573746f6e654d616e616765723a2071756f72756d203e2031303025006044820152606490fd5b346102db5760203660031901126102db5760043560005260046020526020604060002054604051908152f35b346102db5760003660031901126102db576118a16126a5565b600180546001600160a01b031981169091556000906001600160a01b03167f8be0079c531659141344cd1fd0a4f28419497f9722a3daafe3b4186f6b6457e08280a3005b346102db5760003660031901126102db57602060405160058152f35b346102db5761190f366123b6565b9061192560018060a01b036002541633146128ea565b811515806119a5575b6119379061282f565b8060005260036020526040600020826000526020526007604060002001805460ff811690600682101561047857611972600160039314612945565b60ff19161790557f888c5547e7a66deaaeef7cc96fdf1b39154057815e8d0f702c46858d074e66a56020604051338152a3005b5060008181526004602052604090205482111561192e565b346102db5760203660031901126102db576004356000526005602052602060018060a01b03604060002054161515604051908152f35b346102db576060611a0336612582565b9060405192611a1184612406565b60008452600060406020958287820152015260005260098352604060002090600052825260406000209060018060a01b0316600052815260406000209060405190611a5b82612406565b82546040600160ff831615159586865260ff8587019460081c16151584520154930192835260405193845251151590830152516040820152f35b346102db5760203660031901126102db57611aae61256c565b611ab66126a5565b6001600160a01b03908116908115611b0457816002549182167fd3afd1676752459d3aa8b6f73633fac8efd724610da9c4cd8d8e4fa1631841fb600080a36001600160a01b03191617600255005b60405162461bcd60e51b815260206004820152601e60248201527f4d696c6573746f6e654d616e616765723a207a65726f206164647265737300006044820152606490fd5b346102db57611b57366123b6565b9081151580611d06575b611b6a9061282f565b611b72612894565b80600052602060038152604060002083600052815260076040600020019060ff82541660068110156104785760038114908115611cfb575b5015611cb857826000526008815260406000208460005281526040600020336000528152604060002054918215611c675783600052600882526040600020856000528252604060002033600052825260006040812055805460ff8116600681101561047857600314611c57575b50506000808080853382f115610641577fd33fcd27cbfb73a2d9058c968b560ccb306500bf536133802048489ecc7355e991604051908152a36001600055005b60ff191660051790558480611c17565b60405162461bcd60e51b815260048101839052602360248201527f4d696c6573746f6e654d616e616765723a206e6f7468696e6720746f207265666044820152621d5b9960ea1b6064820152608490fd5b6064906040519062461bcd60e51b825280600483015260248201527f4d696c6573746f6e654d616e616765723a206e6f7420726566756e6461626c656044820152fd5b600591501485611baa565b50600081815260046020526040902054821115611b61565b346102db57611d2c366123b6565b90611d4260018060a01b036002541633146128ea565b81151580611dc2575b611d549061282f565b8060005260036020526040600020826000526020526007604060002001805460ff811690600682101561047857611d8f600160029314612945565b60ff19161790557f9ffbb52f2a1362273cd74689a516ca4f52c4282dc13e2e68b7e0646a9a7af7a36020604051338152a3005b50600081815260046020526040902054821115611d4b565b346102db57611de8366123b6565b9060005260036020526040600020906000526020526040600020805460018201549160028101611e1790612479565b611e2360038301612479565b91600481015492600582015493600683015490600784015460ff169060088501611e4c90612479565b91611e5960098701612479565b93600a87015498600b88015496600c89015498600d015460ff16996040519d8e809e8152602001528c6101c06040819201528d01611e969161251f565b8c810360608e0152611ea79161251f565b9360808c015260a08b015260c08a015260e08901611ec49161255f565b878103610100890152611ed69161251f565b868103610120880152611ee89161251f565b9361014086015261016085015261018084015215156101a08301520390f35b611f10366123b6565b80151580612267575b611f229061282f565b611f2a612894565b3415612222578160005260209160038352604060002082600052835260406000209260ff6007850154166006811015610478576121c857600684015442101561217a57816000526005815260018060a01b03604060002054163314612122576004840154936005810194855480821160001461211957611fa991612887565b80156120ae578034116000146120a657945b611fc58634612887565b9184600052600884526040600020866000528452604060002033600052845260406000205415612091575b50836000526008835260406000208560005283526040600020336000528352604060002061201f878254612758565b905561202c868254612758565b90558015801561206b575b50507f1e3bc6edf35d9744b767980df51144c565ebc7f201c4a611d2a3e9888deef730906040519485523394a46001600055005b600080809381938290612088575b3390f115610641578480612037565b506108fc612079565b600c0161209e8154612765565b905586611ff0565b503494611fbb565b60405162461bcd60e51b815260048101849052603a60248201527f4d696c6573746f6e654d616e616765723a206d696c6573746f6e652066756e6460448201527f696e672074617267657420616c726561647920726561636865640000000000006064820152608490fd5b50506000611fa9565b6084906040519062461bcd60e51b82526004820152602b60248201527f4d696c6573746f6e654d616e616765723a2063726561746f722063616e6e6f7460448201526a20636f6e7472696275746560a81b6064820152fd5b6084906040519062461bcd60e51b82526004820152602160248201527f4d696c6573746f6e654d616e616765723a20646561646c696e652070617373656044820152601960fa1b6064820152fd5b6084906040519062461bcd60e51b82526004820152602d60248201527f4d696c6573746f6e654d616e616765723a206e6f7420616363657074696e672060448201526c636f6e747269627574696f6e7360981b6064820152fd5b60405162461bcd60e51b815260206004820152601f60248201527f4d696c6573746f6e654d616e616765723a206d7573742073656e6420455448006044820152606490fd5b50600082815260046020526040902054811115611f19565b346102db5761228d366123b6565b600082815260056020526040902054919290916001600160a01b03166123685750801561230d578160005260056020526040600020336bffffffffffffffffffffffff60a01b825416179055600660205260406000205533907f4f373b7130fde2eca917b55949b3f1b3ec21d20d77fe40cab78cced7b9ebd05c600080a3005b60405162461bcd60e51b815260206004820152602d60248201527f4d696c6573746f6e654d616e616765723a2063616d706169676e20746172676560448201526c074206d757374206265203e203609c1b6064820152608490fd5b62461bcd60e51b8152602060048201526024808201527f4d696c6573746f6e654d616e616765723a20616c726561647920726567697374604482015263195c995960e21b6064820152608490fd5b60409060031901126102db576004359060243590565b90600182811c921680156123fc575b60208310146123e657565b634e487b7160e01b600052602260045260246000fd5b91607f16916123db565b606081019081106001600160401b038211176113a057604052565b6101c081019081106001600160401b038211176113a057604052565b602081019081106001600160401b038211176113a057604052565b90601f801991011681019081106001600160401b038211176113a057604052565b906040519182600082549261248d846123cc565b9081845260019485811690816000146124fc57506001146124b9575b50506124b792500383612458565b565b9093915060005260209081600020936000915b8183106124e45750506124b7935082010138806124a9565b855488840185015294850194879450918301916124cc565b9150506124b794506020925060ff191682840152151560051b82010138806124a9565b919082519283825260005b84811061254b575050826000602080949584010152601f8019910116010190565b60208183018101518483018201520161252a565b9060068210156104785752565b600435906001600160a01b03821682036102db57565b60609060031901126102db5760043590602435906044356001600160a01b03811681036102db5790565b9181601f840112156102db578235916001600160401b0383116102db57602083818601950101116102db57565b90815181526020820151602082015261267461266061261c61260a60408601516101c080604088015286019061251f565b6060860151858203606087015261251f565b6080850151608085015260a085015160a085015260c085015160c085015261264c60e086015160e086019061255f565b61010080860151908583039086015261251f565b61012080850151908483039085015261251f565b916101408082015190830152610160808201519083015261018080820151908301526101a080910151151591015290565b6001546001600160a01b031633036126b957565b606460405162461bcd60e51b815260206004820152602060248201527f4f776e61626c653a2063616c6c6572206973206e6f7420746865206f776e65726044820152fd5b1561270457565b60405162461bcd60e51b815260206004820152602660248201527f4d696c6573746f6e654d616e616765723a206e6f742063616d706169676e20636044820152653932b0ba37b960d11b6064820152608490fd5b919082018092116102a957565b60001981146102a95760010190565b9291926001600160401b0382116113a0576040519161279d601f8201601f191660200184612458565b8294818452818301116102db578281602093846000960137010152565b90601f81116127c857505050565b600091825260208220906020601f850160051c83019410612804575b601f0160051c01915b8281106127f957505050565b8181556001016127ed565b90925082906127e4565b908060209392818452848401376000828201840152601f01601f1916010190565b1561283657565b60405162461bcd60e51b815260206004820152602360248201527f4d696c6573746f6e654d616e616765723a20696e76616c6964206d696c6573746044820152626f6e6560e81b6064820152608490fd5b919082039182116102a957565b6002600054146128a5576002600055565b60405162461bcd60e51b815260206004820152601f60248201527f5265656e7472616e637947756172643a207265656e7472616e742063616c6c006044820152606490fd5b156128f157565b60405162461bcd60e51b815260206004820152602660248201527f4d696c6573746f6e654d616e616765723a2063616c6c6572206973206e6f74206044820152656f7261636c6560d01b6064820152608490fd5b1561294c57565b60405162461bcd60e51b815260206004820152602860248201527f4d696c6573746f6e654d616e616765723a206e6f7420696e205375626d697474604482015267656420737461746560c01b6064820152608490fd5b818102929181159184041417156102a957565b9060008281526003602052604081208282526020526040812090600a8201546129e2600b84015482612758565b916127109182840294848604841485151715612a6a576005015494612a09600a54876129a2565b11612a6157828102928184041490151715612a4d5750612a2b600b54836129a2565b11612a3b5750506124b791612a7e565b14612a44575050565b6124b791612a7e565b634e487b7160e01b81526011600452602490fd5b50505050505050565b634e487b7160e01b83526011600452602483fd5b600081815260036020526040812083825260205260408120600781019081549060ff82166006811015612b9057600103612b8857612ac5600b600a83015492015482612758565b908115159182612b48575b505015612b115750805460ff191660021790556040519081527f9ffbb52f2a1362273cd74689a516ca4f52c4282dc13e2e68b7e0646a9a7af7a390602090a3565b60ff191660031790556040519081527f888c5547e7a66deaaeef7cc96fdf1b39154057815e8d0f702c46858d074e66a590602090a3565b90915061271091828102928184041490151715612b7457600b54612b6b916129a2565b11153880612ad0565b634e487b7160e01b85526011600452602485fd5b505050505050565b634e487b7160e01b85526021600452602485fd5b60405190612bb182612421565b816101a0600091828152826020820152606060408201526060808201528260808201528260a08201528260c08201528260e0820152606061010082015260606101208201528261014082015282610160820152826101808201520152565b90604051612c1c81612421565b80928054825260018101546020830152612c3860028201612479565b6040830152612c4960038201612479565b606083015260048101546080830152600581015460a0830152600681015460c083015260ff60078201541690600682101561047857600d60ff916101a09360e0860152612c9860088201612479565b610100860152612caa60098201612479565b610120860152600a810154610140860152600b810154610160860152600c8101546101808601520154161515910152565b6001600160401b0381116113a05760051b60200190565b8051821015612d065760209160051b010190565b634e487b7160e01b600052603260045260246000fdfea264697066735822122098b0fdefc6924cc71ab3ccd0bcada6a676d3d59af70f92d8e86237ce0a97fe6e64736f6c63430008130033",
  "linkReferences": {},
  "deployedLinkReferences": {}
}