{
  "_format": "hh-sol-artifact-1",
  "contractName": "MilestoneManager",
  "sourceName": "contracts/MilestoneManager.sol",
  "abi": [
    {
      "inputs": [
        {
          "internalType": "address",
          "name": "_oracleAddress",
          "type": "address"
        }
      ],
      "stateMutability": "nonpayable",
      "type": "constructor"
    },
    {
      "anonymous": false,
      "inputs": [
        {
          "indexed": true,
          "internalType": "uint256",
          "name": "campaignId",
          "type": "uint256"
        },
        {
          "indexed": true,
          "internalType": "address",
          "name": "creator",
          "type": "address"
        }
      ],
      "name": "CampaignRegistered",
      "type": "event"
    },
    {
      "anonymous": false,
      "inputs": [
        {
          "indexed": true,
          "internalType": "uint256",
          "name": "campaignId",
          "type": "uint256"
        },
        {
          "indexed": true,
          "internalType": "uint256",
          "name": "milestoneId",
          "type": "uint256"
        },
        {
          "indexed": false,
          "internalType": "address",
          "name": "approver",
          "type": "address"
        }
      ],
      "name": "MilestoneApproved",
      "type": "event"
    },
    {
      "anonymous": false,
      "inputs": [
        {
          "indexed": true,
          "internalType": "uint256",
          "name": "campaignId",
          "type": "uint256"
        },
        {
          "indexed": true,
          "internalType": "uint256",
          "name": "milestoneId",
          "type": "uint256"
        },
        {
          "indexed": false,
          "internalType": "string",
          "name": "title",
          "type": "string"
        },
        {
          "indexed": false,
          "internalType": "uint256",
          "name": "targetAmount",
          "type": "uint256"
        },
        {
          "indexed": false,
          "internalType": "uint256",
          "name": "deadline",
          "type": "uint256"
        }
      ],
      "name": "MilestoneCreated",
      "type": "event"
    },
    {
      "anonymous": false,
      "inputs": [
        {
          "indexed": true,
          "internalType": "uint256",
          "name": "campaignId",
          "type": "uint256"
        },
        {
          "indexed": true,
          "internalType": "uint256",
          "name": "milestoneId",
          "type": "uint256"
        },
        {
          "indexed": true,
          "internalType": "address",
          "name": "contributor",
          "type": "address"
        },
        {
          "indexed": false,
          "internalType": "uint256",
          "name": "amount",
          "type": "uint256"
        }
      ],
      "name": "MilestoneFunded",
      "type": "event"
    },
    {
      "anonymous": false,
      "inputs": [
        {
          "indexed": true,
          "internalType": "uint256",
          "name": "campaignId",
          "type": "uint256"
        },
        {
          "indexed": true,
          "internalType": "uint256",
          "name": "milestoneId",
          "type": "uint256"
        },
        {
          "indexed": false,
          "internalType": "address",
          "name": "rejecter",
          "type": "address"
        }
      ],
      "name": "MilestoneRejected",
      "type": "event"
    },
    {
      "anonymous": false,
      "inputs": [
        {
          "indexed": true,
          "internalType": "uint256",
          "name": "campaignId",
          "type": "uint256"
        },
        {
          "indexed": true,
          "internalType": "uint256",
          "name": "milestoneId",
          "type": "uint256"
        },
        {
          "indexed": false,
          "internalType": "uint256",
          "name": "amount",
          "type": "uint256"
        }
      ],
      "name": "MilestoneReleased",
      "type": "event"
    },
    {
      "anonymous": false,
      "inputs": [
        {
          "indexed": true,
          "internalType": "uint256",
          "name": "campaignId",
          "type": "uint256"
        },
        {
          "indexed": true,
          "internalType": "uint256",
          "name": "milestoneId",
          "type": "uint256"
        },
        {
          "indexed": false,
          "internalType": "string",
          "name": "evidenceIpfsHash",
          "type": "string"
        },
        {
          "indexed": false,
          "internalType": "string",
          "name": "evidenceUrl",
          "type": "string"
        }
      ],
      "name": "MilestoneSubmitted",
      "type": "event"
    },
    {
      "anonymous": false,
      "inputs": [
        {
          "indexed": true,
          "internalType": "uint256",
          "name": "campaignId",
          "type": "uint256"
        },
        {
          "indexed": true,
          "internalType": "uint256",
          "name": "milestoneId",
          "type": "uint256"
        },
        {
          "indexed": true,
          "internalType": "address",
          "name": "voter",
          "type": "address"
        },
        {
          "indexed": false,
          "internalType": "bool",
          "name": "inFavour",
          "type": "bool"
        },
        {
          "indexed": false,
          "internalType": "uint256",
          "name": "weight",
          "type": "uint256"
        }
      ],
      "name": "MilestoneVoted",
      "type": "event"
    },
    {
      "anonymous": false,
      "inputs": [
        {
          "indexed": true,
          "internalType": "address",
          "name": "oldOracle",
          "type": "address"
        },
        {
          "indexed": true,
          "internalType": "address",
          "name": "newOracle",
          "type": "address"
        }
      ],
      "name": "OracleAddressUpdated",
      "type": "event"
    },
    {
      "anonymous": false,
      "inputs": [
        {
          "indexed": true,
          "internalType": "address",
          "name": "previousOwner",
          "type": "address"
        },
        {
          "indexed": true,
          "internalType": "address",
          "name": "newOwner",
          "type": "address"
        }
      ],
      "name": "OwnershipTransferred",
      "type": "event"
    },
    {
      "anonymous": false,
      "inputs": [
        {
          "indexed": false,
          "internalType": "uint256",
          "name": "quorumBps",
          "type": "uint256"
        },
        {
          "indexed": false,
          "internalType": "uint256",
          "name": "thresholdBps",
          "type": "uint256"
        },
        {
          "indexed": false,
          "internalType": "uint256",
          "name": "windowSeconds",
          "type": "uint256"
        }
      ],
      "name": "VotingParamsUpdated",
      "type": "event"
    },
    {
      "inputs": [],
      "name": "approvalThresholdBps",
      "outputs": [
        {
          "internalType": "uint256",
          "name": "",
          "type": "uint256"
        }
      ],
      "stateMutability": "view",
      "type": "function"
    },
    {
      "inputs": [
        {
          "internalType": "uint256",
          "name": "_campaignId",
          "type": "uint256"
        },
        {
          "internalType": "uint256",
          "name": "_milestoneId",
          "type": "uint256"
        }
      ],
      "name": "approveMilestoneByOracle",
      "outputs": [],
      "stateMutability": "nonpayable",
      "type": "function"
    },
    {
      "inputs": [
        {
          "internalType": "uint256",
          "name": "",
          "type": "uint256"
        }
      ],
      "name": "campaignCreator",
      "outputs": [
        {
          "internalType": "address",
          "name": "",
          "type": "address"
        }
      ],
      "stateMutability": "view",
      "type": "function"
    },
    {
      "inputs": [
        {
          "internalType": "uint256",
          "name": "_campaignId",
          "type": "uint256"
        },
        {
          "internalType": "uint256",
          "name": "_milestoneId",
          "type": "uint256"
        }
      ],
      "name": "claimMilestoneRefund",
      "outputs": [],
      "stateMutability": "nonpayable",
      "type": "function"
    },
    {
      "inputs": [
        {
          "internalType": "uint256",
          "name": "_campaignId",
          "type": "uint256"
        },
        {
          "internalType": "uint256",
          "name": "_milestoneId",
          "type": "uint256"
        }
      ],
      "name": "contributeToMilestone",
      "outputs": [],
      "stateMutability": "payable",
      "type": "function"
    },
    {
      "inputs": [
        {
          "internalType": "uint256",
          "name": "_campaignId",
          "type": "uint256"
        },
        {
          "internalType": "string",
          "name": "_title",
          "type": "string"
        },
        {
          "internalType": "string",
          "name": "_description",
          "type": "string"
        },
        {
          "internalType": "uint256",
          "name": "_targetAmount",
          "type": "uint256"
        },
        {
          "internalType": "uint256",
          "name": "_duration",
          "type": "uint256"
        }
      ],
      "name": "createMilestone",
      "outputs": [],
      "stateMutability": "nonpayable",
      "type": "function"
    },
    {
      "inputs": [
        {
          "internalType": "uint256",
          "name": "_campaignId",
          "type": "uint256"
        },
        {
          "internalType": "uint256",
          "name": "_milestoneId",
          "type": "uint256"
        }
      ],
      "name": "finalizeVoting",
      "outputs": [],
      "stateMutability": "nonpayable",
      "type": "function"
    },
    {
      "inputs": [
        {
          "internalType": "uint256",
          "name": "_campaignId",
          "type": "uint256"
        }
      ],
      "name": "getCampaignMilestones",
      "outputs": [
        {
          "components": [
            {
              "internalType": "uint256",
              "name": "id",
              "type": "uint256"
            },
            {
              "internalType": "uint256",
              "name": "campaignId",
              "type": "uint256"
            },
            {
              "internalType": "string",
              "name": "title",
              "type": "string"
            },
            {
              "internalType": "string",
              "name": "description",
              "type": "string"
            },
            {
              "internalType": "uint256",
              "name": "targetAmount",
              "type": "uint256"
            },
            {
              "internalType": "uint256",
              "name": "raisedAmount",
              "type": "uint256"
            },
            {
              "internalType": "uint256",
              "name": "deadline",
              "type": "uint256"
            },
            {
              "internalType": "enum MilestoneManager.MilestoneStatus",
              "name": "status",
              "type": "uint8"
            },
            {
              "internalType": "string",
              "name": "evidenceIpfsHash",
              "type": "string"
            },
            {
              "internalType": "string",
              "name": "evidenceUrl",
              "type": "string"
            },
            {
              "internalType": "uint256",
              "name": "totalVotesFor",
              "type": "uint256"
            },
            {
              "internalType": "uint256",
              "name": "totalVotesAgainst",
              "type": "uint256"
            },
            {
              "internalType": "uint256",
              "name": "contributorsCount",
              "type": "uint256"
            },
            {
              "internalType": "bool",
              "name": "fundsReleased",
              "type": "bool"
            }
          ],
          "internalType": "struct MilestoneManager.Milestone[]",
          "name": "",
          "type": "tuple[]"
        }
      ],
      "stateMutability": "view",
      "type": "function"
    },
    {
      "inputs": [
        {
          "internalType": "uint256",
          "name": "_campaignId",
          "type": "uint256"
        },
        {
          "internalType": "uint256",
          "name": "_milestoneId",
          "type": "uint256"
        },
        {
          "internalType": "address",
          "name": "_contributor",
          "type": "address"
        }
      ],
      "name": "getContribution",
      "outputs": [
        {
          "internalType": "uint256",
          "name": "",
          "type": "uint256"
        }
      ],
      "stateMutability": "view",
      "type": "function"
    },
    {
      "inputs": [
        {
          "internalType": "uint256",
          "name": "_campaignId",
          "type": "uint256"
        },
        {
          "internalType": "uint256",
          "name": "_milestoneId",
          "type": "uint256"
        }
      ],
      "name": "getMilestone",
      "outputs": [
        {
          "components": [
            {
              "internalType": "uint256",
              "name": "id",
              "type": "uint256"
            },
            {
              "internalType": "uint256",
              "name": "campaignId",
              "type": "uint256"
            },
            {
              "internalType": "string",
              "name": "title",
              "type": "string"
            },
            {
              "internalType": "string",
              "name": "description",
              "type": "string"
            },
            {
              "internalType": "uint256",
              "name": "targetAmount",
              "type": "uint256"
            },
            {
              "internalType": "uint256",
              "name": "raisedAmount",
              "type": "uint256"
            },
            {
              "internalType": "uint256",
              "name": "deadline",
              "type": "uint256"
            },
            {
              "internalType": "enum MilestoneManager.MilestoneStatus",
              "name": "status",
              "type": "uint8"
            },
            {
              "internalType": "string",
              "name": "evidenceIpfsHash",
              "type": "string"
            },
            {
              "internalType": "string",
              "name": "evidenceUrl",
              "type": "string"
            },
            {
              "internalType": "uint256",
              "name": "totalVotesFor",
              "type": "uint256"
            },
            {
              "internalType": "uint256",
              "name": "totalVotesAgainst",
              "type": "uint256"
            },
            {
              "internalType": "uint256",
              "name": "contributorsCount",
              "type": "uint256"
            },
            {
              "internalType": "bool",
              "name": "fundsReleased",
              "type": "bool"
            }
          ],
          "internalType": "struct MilestoneManager.Milestone",
          "name": "",
          "type": "tuple"
        }
      ],
      "stateMutability": "view",
      "type": "function"
    },
    {
      "inputs": [
        {
          "internalType": "uint256",
          "name": "_campaignId",
          "type": "uint256"
        },
        {
          "internalType": "uint256",
          "name": "_milestoneId",
          "type": "uint256"
        },
        {
          "internalType": "address",
          "name": "_voter",
          "type": "address"
        }
      ],
      "name": "getVote",
      "outputs": [
        {
          "components": [
            {
              "internalType": "bool",
              "name": "hasVoted",
              "type": "bool"
            },
            {
              "internalType": "bool",
              "name": "inFavour",
              "type": "bool"
            },
            {
              "internalType": "uint256",
              "name": "weight",
              "type": "uint256"
            }
          ],
          "internalType": "struct MilestoneManager.Vote",
          "name": "",
          "type": "tuple"
        }
      ],
      "stateMutability": "view",
      "type": "function"
    },
    {
      "inputs": [
        {
          "internalType": "uint256",
          "name": "",
          "type": "uint256"
        },
        {
          "internalType": "uint256",
          "name": "",
          "type": "uint256"
        },
        {
          "internalType": "address",
          "name": "",
          "type": "address"
        }
      ],
      "name": "milestoneContributions",
      "outputs": [
        {
          "internalType": "uint256",
          "name": "",
          "type": "uint256"
        }
      ],
      "stateMutability": "view",
      "type": "function"
    },
    {
      "inputs": [
        {
          "internalType": "uint256",
          "name": "",
          "type": "uint256"
        }
      ],
      "name": "milestoneCount",
      "outputs": [
        {
          "internalType": "uint256",
          "name": "",
          "type": "uint256"
        }
      ],
      "stateMutability": "view",
      "type": "function"
    },
    {
      "inputs": [
        {
          "internalType": "uint256",
          "name": "",
          "type": "uint256"
        },
        {
          "internalType": "uint256",
          "name": "",
          "type": "uint256"
        }
      ],
      "name": "milestones",
      "outputs": [
        {
          "internalType": "uint256",
          "name": "id",
          "type": "uint256"
        },
        {
          "internalType": "uint256",
          "name": "campaignId",
          "type": "uint256"
        },
        {
          "internalType": "string",
          "name": "title",
          "type": "string"
        },
        {
          "internalType": "string",
          "name": "description",
          "type": "string"
        },
        {
          "internalType": "uint256",
          "name": "targetAmount",
          "type": "uint256"
        },
        {
          "internalType": "uint256",
          "name": "raisedAmount",
          "type": "uint256"
        },
        {
          "internalType": "uint256",
          "name": "deadline",
          "type": "uint256"
        },
        {
          "internalType": "enum MilestoneManager.MilestoneStatus",
          "name": "status",
          "type": "uint8"
        },
        {
          "internalType": "string",
          "name": "evidenceIpfsHash",
          "type": "string"
        },
        {
          "internalType": "string",
          "name": "evidenceUrl",
          "type": "string"
        },
        {
          "internalType": "uint256",
          "name": "totalVotesFor",
          "type": "uint256"
        },
        {
          "internalType": "uint256",
          "name": "totalVotesAgainst",
          "type": "uint256"
        },
        {
          "internalType": "uint256",
          "name": "contributorsCount",
          "type": "uint256"
        },
        {
          "internalType": "bool",
          "name": "fundsReleased",
          "type": "bool"
        }
      ],
      "stateMutability": "view",
      "type": "function"
    },
    {
      "inputs": [],
      "name": "oracleAddress",
      "outputs": [
        {
          "internalType": "address",
          "name": "",
          "type": "address"
        }
      ],
      "stateMutability": "view",
      "type": "function"
    },
    {
      "inputs": [],
      "name": "owner",
      "outputs": [
        {
          "internalType": "address",
          "name": "",
          "type": "address"
        }
      ],
      "stateMutability": "view",
      "type": "function"
    },
    {
      "inputs": [
        {
          "internalType": "uint256",
          "name": "_campaignId",
          "type": "uint256"
        }
      ],
      "name": "registerCampaign",
      "outputs": [],
      "stateMutability": "nonpayable",
      "type": "function"
    },
    {
      "inputs": [
        {
          "internalType": "uint256",
          "name": "_campaignId",
          "type": "uint256"
        },
        {
          "internalType": "uint256",
          "name": "_milestoneId",
          "type": "uint256"
        }
      ],
      "name": "rejectMilestoneByOracle",
      "outputs": [],
      "stateMutability": "nonpayable",
      "type": "function"
    },
    {
      "inputs": [],
      "name": "renounceOwnership",
      "outputs": [],
      "stateMutability": "nonpayable",
      "type": "function"
    },
    {
      "inputs": [
        {
          "internalType": "address",
          "name": "_newOracle",
          "type": "address"
        }
      ],
      "name": "setOracleAddress",
      "outputs": [],
      "stateMutability": "nonpayable",
      "type": "function"
    },
    {
      "inputs": [
        {
          "internalType": "uint256",
          "name": "_quorumBps",
          "type": "uint256"
        },
        {
          "internalType": "uint256",
          "name": "_thresholdBps",
          "type": "uint256"
        },
        {
          "internalType": "uint256",
          "name": "_windowSeconds",
          "type": "uint256"
        }
      ],
      "name": "setVotingParams",
      "outputs": [],
      "stateMutability": "nonpayable",
      "type": "function"
    },
    {
      "inputs": [
        {
          "internalType": "uint256",
          "name": "_campaignId",
          "type": "uint256"
        },
        {
          "internalType": "uint256",
          "name": "_milestoneId",
          "type": "uint256"
        },
        {
          "internalType": "string",
          "name": "_evidenceIpfsHash",
          "type": "string"
        },
        {
          "internalType": "string",
          "name": "_evidenceUrl",
          "type": "string"
        }
      ],
      "name": "submitMilestoneEvidence",
      "outputs": [],
      "stateMutability": "nonpayable",
      "type": "function"
    },
    {
      "inputs": [
        {
          "internalType": "address",
          "name": "newOwner",
          "type": "address"
        }
      ],
      "name": "transferOwnership",
      "outputs": [],
      "stateMutability": "nonpayable",
      "type": "function"
    },
    {
      "inputs": [
        {
          "internalType": "uint256",
          "name": "_campaignId",
          "type": "uint256"
        },
        {
          "internalType": "uint256",
          "name": "_milestoneId",
          "type": "uint256"
        },
        {
          "internalType": "bool",
          "name": "_inFavour",
          "type": "bool"
        }
      ],
      "name": "voteMilestone",
      "outputs": [],
      "stateMutability": "nonpayable",
      "type": "function"
    },
    {
      "inputs": [
        {
          "internalType": "uint256",
          "name": "",
          "type": "uint256"
        },
        {
          "internalType": "uint256",
          "name": "",
          "type": "uint256"
        },
        {
          "internalType": "address",
          "name": "",
          "type": "address"
        }
      ],
      "name": "votes",
      "outputs": [
        {
          "internalType": "bool",
          "name": "hasVoted",
          "type": "bool"
        },
        {
          "internalType": "bool",
          "name": "inFavour",
          "type": "bool"
        },
        {
          "internalType": "uint256",
          "name": "weight",
          "type": "uint256"
        }
      ],
      "stateMutability": "view",
      "type": "function"
    },
    {
      "inputs": [],
      "name": "votingQuorumBps",
      "outputs": [
        {
          "internalType": "uint256",
          "name": "",
          "type": "uint256"
        }
      ],
      "stateMutability": "view",
      "type": "function"
    },
    {
      "inputs": [],
      "name": "votingWindowSeconds",
      "outputs": [
        {
          "internalType": "uint256",
          "name": "",
          "type": "uint256"
        }
      ],
      "stateMutability": "view",
      "type": "function"
    },
    {
      "inputs": [
        {
          "internalType": "uint256",
          "name": "_campaignId",
          "type": "uint256"
        },
        {
          "internalType": "uint256",
          "name": "_milestoneId",
          "type": "uint256"
        }
      ],
      "name": "withdrawMilestoneFunds",
      "outputs": [],
      "stateMutability": "nonpayable",
      "type": "function"
    },
    {
      "stateMutability": "payable",
      "type": "receive"
    }
  ],
  "bytecode": "0x60803461011e57601f62002b4438819003918201601f19168301916001600160401b038311848410176101235780849260209460405283398101031261011e57516001600160a01b038082169182900361011e5760016000556001549060018060a01b0319913383821617600155604051913391167f8be0079c531659141344cd1fd0a4f28419497f9722a3daafe3b4186f6b6457e0600080a3610bb86008556113ec60095562093a80600a5582156100cb57506002541617600255604051612a0a90816200013a8239f35b62461bcd60e51b815260206004820152602860248201527f4d696c6573746f6e654d616e616765723a206f7261636c65206973207a65726f604482015267206164647265737360c01b6064820152608490fd5b600080fd5b634e487b7160e01b600052604160045260246000fdfe6080604052600436101561001b575b361561001957600080fd5b005b60003560e01c8063147fefa614611de85780631c376c6314611cbb57806328fad64614611bff57806331aee8a114611a285780633eb6b2c614610bf25780634c69c00f146119745780634f2b4234146118d2578063657e62f714611816578063715018a6146117b957806372ebb42a1461178d578063776e957a146116285780638da5cb5b146115ff5780638dc7b61514610f015780638ed9895c14610e83578063918cb24114610c395780639b03234214610bf2578063a89ae4ba14610bc9578063b48e784a14610b95578063bb7641e6146107b9578063bcded7b61461079b578063bfe26612146105df578063c169342014610510578063c8db7e7a146104ac578063cb7c172b1461048e578063d1bc76eb14610470578063f01a592514610373578063f2fde38b146102aa5763f91e4b290361000e57346102a5576020806003193601126102a5576004359081600052600481526040600020549161018283612993565b92610190604051948561211d565b808452601f1961019f82612993565b0160005b818110610289575050600191825b8281111561021b5750505060405191808301818452845180915260408401918060408360051b8701019601926000905b8382106101ee5786880387f35b9091929394838061020a839a603f198b8203018652895161229e565b9997019594939190910191016101e1565b816000969496526003855260406000208160005285526040600020906000198101918183116102735761026b92610254610265926128c7565b61025e82896129aa565b52866129aa565b5061241d565b9492946101b1565b634e487b7160e01b600052601160045260246000fd5b849061029696949661285c565b828287010152019492946101a3565b600080fd5b346102a55760203660031901126102a5576102c3612231565b6102cb61236a565b6001600160a01b0390811690811561031f57600154826bffffffffffffffffffffffff60a01b821617600155167f8be0079c531659141344cd1fd0a4f28419497f9722a3daafe3b4186f6b6457e0600080a3005b60405162461bcd60e51b815260206004820152602660248201527f4f776e61626c653a206e6577206f776e657220697320746865207a65726f206160448201526564647265737360d01b6064820152608490fd5b346102a5576103813661207b565b80151580610458575b610393906124f4565b816000526003602052604060002081600052602052604060002060ff6007820154166006811015610442576103db916103d06001600693146125fd565b0154600a549061242c565b42106103ea5761001991612736565b60405162461bcd60e51b815260206004820152602a60248201527f4d696c6573746f6e654d616e616765723a20766f74696e672077696e646f772060448201526939ba34b6361037b832b760b11b6064820152608490fd5b634e487b7160e01b600052602160045260246000fd5b5060008281526004602052604090205481111561038a565b346102a55760003660031901126102a5576020600a54604051908152f35b346102a55760003660031901126102a5576020600954604051908152f35b346102a5576104ba36612247565b91600052600760205260406000209060005260205260406000209060018060a01b0316600052602052606060406000206001815491015460ff604051928181161515845260081c16151560208301526040820152f35b346102a55760203660031901126102a5576004356000818152600560205260409020546001600160a01b031661058e578060005260056020526040600020336bffffffffffffffffffffffff60a01b82541617905533907f4f373b7130fde2eca917b55949b3f1b3ec21d20d77fe40cab78cced7b9ebd05c600080a3005b60405162461bcd60e51b8152602060048201526024808201527f4d696c6573746f6e654d616e616765723a20616c726561647920726567697374604482015263195c995960e21b6064820152608490fd5b346102a5576105ed3661207b565b908060005260206005815260018060a01b0390610612826040600020541633146123c2565b83151580610784575b610624906124f4565b61062c61254c565b826000526003815260406000208460005281526040600020600d8101805460ff811661073457600783019182549060ff82166006811015610442576002036106ef576000948594600486958695600595600160ff198094161790551617905501548096888352600587526040832054168282156106e6575bf1156106da577fd33fcd27cbfb73a2d9058c968b560ccb306500bf536133802048489ecc7355e991604051908152a36001600055005b6040513d6000823e3d90fd5b506108fc6106a4565b60405162461bcd60e51b815260048101879052601e60248201527f4d696c6573746f6e654d616e616765723a206e6f7420617070726f76656400006044820152606490fd5b60405162461bcd60e51b815260048101859052602260248201527f4d696c6573746f6e654d616e616765723a20616c72656164792072656c656173604482015261195960f21b6064820152608490fd5b50600083815260048252604090205484111561061b565b346102a55760003660031901126102a5576020600854604051908152f35b346102a55760803660031901126102a557602480356004356001600160401b036044358181116102a5576107f1903690600401612271565b90916064358181116102a55761080b903690600401612271565b91856000526020976005895261082f60018060a01b036040600020541633146123c2565b87151580610b7e575b610841906124f4565b86600052600389526040600020886000528952604060002090600782019182549260ff84166006811015610b6957610b0d578715801590610b04575b15610ab0576001809460ff191617905560088101848811610a9b576108ac886108a68354612091565b8361247f565b8760008d601f8311600114610a2c5750906009939291600091610a21575b5060001960038b901b1c191689861b1790555b01928511610a0d57506108fa846108f48454612091565b8461247f565b6000601f8511600114610982579184807facefa0f349f716ad6ed6168191ef3ce7fa814c240f96e4299b6508550ffcb820999a9b95936109729795600093610977575b501b906000198560031b1c19161790555b6109656040519687966040885260408801916124d3565b92858403908601526124d3565b0390a3005b85013592508d61093d565b601f19851690836000528a6000209160005b8181106109f85750917facefa0f349f716ad6ed6168191ef3ce7fa814c240f96e4299b6508550ffcb820999a9b95939187610972989694106109de575b505083811b01905561094e565b840135600019600387901b60f8161c191690558b806109d1565b86830135845592840192918c01918c01610994565b634e487b7160e01b60009081526041600452fd5b90508a01358e6108ca565b908b949392601f198116846000528360002093896000985b838a10610a80575050506009965010610a66575b50508489811b0190556108dd565b8b013560001960038c901b60f8161c191690558d80610a58565b85013586559781019790940193928301928d9250898f610a44565b82634e487b7160e01b60005260416004526000fd5b60405162461bcd60e51b8152600481018d90526027818501527f4d696c6573746f6e654d616e616765723a206d7573742070726f766964652065604482015266766964656e636560c81b6064820152608490fd5b5086151561087d565b60405162461bcd60e51b8152600481018d9052602f818501527f4d696c6573746f6e654d616e616765723a20616c7265616479207375626d697460448201526e1d1959081bdc881c995cdbdb1d9959608a1b6064820152608490fd5b83634e487b7160e01b60005260216004526000fd5b50600087815260048a526040902054881115610838565b346102a55760203660031901126102a5576004356000526005602052602060018060a01b0360406000205416604051908152f35b346102a55760003660031901126102a5576002546040516001600160a01b039091168152602090f35b346102a557610c0036612247565b91600052600660205260406000209060005260205260406000209060018060a01b03166000526020526020604060002054604051908152f35b346102a55760603660031901126102a5576044356024356004358215158084036102a55782151580610e6b575b610c6f906124f4565b816000526020600381526040600020846000528152604060002090836000526006815260406000208560005281526040600020336000528152604060002054918215610e0f57846000526007825260406000208660005282526040600020336000528252604060002096875460ff8116610dca5760ff600784015416600681101561044257600103610d7b5760016100199981879361ff008a60081b169061ffff1916171781550155600014610d6657600a01610d2d83825461242c565b90555b60405192835282015282827fc4034c86715a9b37c41bd89fdabb308d4cc0f2aca4a22eb6b311492fefdad74360403394a461266d565b600b01610d7483825461242c565b9055610d30565b60405162461bcd60e51b815260048101859052602160248201527f4d696c6573746f6e654d616e616765723a20766f74696e67206e6f74206f70656044820152603760f91b6064820152608490fd5b60405162461bcd60e51b815260048101859052601f60248201527f4d696c6573746f6e654d616e616765723a20616c726561647920766f746564006044820152606490fd5b60405162461bcd60e51b815260048101839052602e60248201527f4d696c6573746f6e654d616e616765723a206e6f20636f6e747269627574696f60448201526d0dc40e8de40ecdee8ca40eed2e8d60931b6064820152608490fd5b50600082815260046020526040902054831115610c66565b346102a557610e913661207b565b90610e9a61285c565b5081151580610ee9575b610ead906124f4565b6000526003602052604060002090600052602052610ee5610ed160406000206128c7565b60405191829160208352602083019061229e565b0390f35b50600081815260046020526040902054821115610ea4565b346102a55760a03660031901126102a5576024356001600160401b0381116102a557610f31903690600401612271565b6044356001600160401b0381116102a557610f50903690600401612271565b9290916004356000526005602052610f7660018060a01b036040600020541633146123c2565b606435156115ae576084351561155a5780156115155760043560005260046020526040600020610fa6815461241d565b9055600435600052600460205260406000205492610ff9610fc96084354261242c565b9160405196610fd7886120e6565b8688526004356020890152610fed368688612439565b60408901523691612439565b60608601526064356080860152600060a086015260c0850152600060e085015260405161102581612102565b6000815261010085015260405161103b81612102565b6000815261012085015260006101408501526000610160850152600061018085015260006101a08501526004356000526003602052604060002083600052602052604060002093805185556020810151600186015560408101518051906001600160401b0382116113885781906110c2826110b960028b0154612091565b60028b0161247f565b602090601f83116001146114a357600092611498575b50508160011b916000199060031b1c19161760028601555b60608101518051906001600160401b0382116113885781906111228261111960038b0154612091565b60038b0161247f565b602090601f83116001146114265760009261141b575b50508160011b916000199060031b1c19161760038601555b6080810151600486015560a0810151600586015560c081015160068601556007850160e082015160068110156104425760ff801983541691161790556101008101518051906001600160401b0382116113885781906111bf826111b660088b0154612091565b60088b0161247f565b602090601f83116001146113a95760009261139e575b50508160011b916000199060031b1c19161760088601555b6101208101519485516001600160401b0381116113885761121e816112156009850154612091565b6009850161247f565b6020601f82116001146112f0579181600d926101a0947f7388b0a2d11e0575b753037e87c5c66b795cb79a842ab2cc7dbaae43ff84e7de98999a6000926112e5575b50508160011b916000199060031b1c19161760098201555b610140840151600a820155610160840151600b820155610180840151600c82015501910151151560ff801983541691161790556112cd6112ba6084354261242c565b93604051926060845260608401916124d3565b926064356020830152604082015280600435930390a3005b015190508a80611260565b6009830160005260206000209760005b601f19841681106113705750827f7388b0a2d11e0575b753037e87c5c66b795cb79a842ab2cc7dbaae43ff84e7de9798996101a09593600193600d96601f19811610611357575b505050811b016009820155611278565b015160001960f88460031b161c191690558a8080611347565b828201518a5560019099019860209283019201611300565b634e487b7160e01b600052604160045260246000fd5b0151905087806111d5565b9250600888016000526020600020906000935b601f1984168510611400576001945083601f198116106113e7575b505050811b0160088601556111ed565b015160001960f88460031b161c191690558780806113d7565b818101518355602094850194600190930192909101906113bc565b015190508780611138565b9250600388016000526020600020906000935b601f198416851061147d576001945083601f19811610611464575b505050811b016003860155611150565b015160001960f88460031b161c19169055878080611454565b81810151835560209485019460019093019290910190611439565b0151905087806110d8565b9250600288016000526020600020906000935b601f19841685106114fa576001945083601f198116106114e1575b505050811b0160028601556110f0565b015160001960f88460031b161c191690558780806114d1565b818101518355602094850194600190930192909101906114b6565b60405162461bcd60e51b815260206004820152601d60248201527f4d696c6573746f6e654d616e616765723a20656d707479207469746c650000006044820152606490fd5b60405162461bcd60e51b815260206004820152602660248201527f4d696c6573746f6e654d616e616765723a206475726174696f6e206d7573742060448201526506265203e20360d41b6064820152608490fd5b60405162461bcd60e51b8152602060048201526024808201527f4d696c6573746f6e654d616e616765723a20746172676574206d7573742062656044820152630203e20360e41b6064820152608490fd5b346102a55760003660031901126102a5576001546040516001600160a01b039091168152602090f35b346102a55760603660031901126102a55760443560243560043561164a61236a565b6127108082116117485782116116f8576201518083106116a8577ff2b4407bc29c4fa956df36358492d43b143e2221b965f5244605dbf5d5545bca92606092826008558060095581600a5560405192835260208301526040820152a1005b60405162461bcd60e51b815260206004820152602260248201527f4d696c6573746f6e654d616e616765723a2077696e646f7720746f6f2073686f6044820152611c9d60f21b6064820152608490fd5b60405162461bcd60e51b815260206004820152602260248201527f4d696c6573746f6e654d616e616765723a207468726573686f6c64203e203130604482015261302560f01b6064820152608490fd5b60405162461bcd60e51b815260206004820152601f60248201527f4d696c6573746f6e654d616e616765723a2071756f72756d203e2031303025006044820152606490fd5b346102a55760203660031901126102a55760043560005260046020526020604060002054604051908152f35b346102a55760003660031901126102a5576117d261236a565b600180546001600160a01b031981169091556000906001600160a01b03167f8be0079c531659141344cd1fd0a4f28419497f9722a3daafe3b4186f6b6457e08280a3005b346102a5576118243661207b565b9061183a60018060a01b036002541633146125a2565b811515806118ba575b61184c906124f4565b8060005260036020526040600020826000526020526007604060002001805460ff8116906006821015610442576118876001600393146125fd565b60ff19161790557f888c5547e7a66deaaeef7cc96fdf1b39154057815e8d0f702c46858d074e66a56020604051338152a3005b50600081815260046020526040902054821115611843565b346102a55760606118e236612247565b90604051926118f0846120cb565b60008452600060406020958287820152015260005260078352604060002090600052825260406000209060018060a01b031660005281526040600020906040519061193a826120cb565b82546040600160ff831615159586865260ff8587019460081c16151584520154930192835260405193845251151590830152516040820152f35b346102a55760203660031901126102a55761198d612231565b61199561236a565b6001600160a01b039081169081156119e357816002549182167fd3afd1676752459d3aa8b6f73633fac8efd724610da9c4cd8d8e4fa1631841fb600080a36001600160a01b03191617600255005b60405162461bcd60e51b815260206004820152601e60248201527f4d696c6573746f6e654d616e616765723a207a65726f206164647265737300006044820152606490fd5b346102a557611a363661207b565b9081151580611be7575b611a49906124f4565b611a5161254c565b806000526020600381526040600020836000528152600760406000200160ff81541660068110156104425760038114908115611bdc575b5015611b9957826000526006825260406000208460005282526040600020336000528252604060002054908115611b485783600052600683526040600020856000528352604060002033600052835260006040812055805460ff8116600681101561044257600093849384936003859414611b38575b50503382f1156106da577f888c5547e7a66deaaeef7cc96fdf1b39154057815e8d0f702c46858d074e66a590604051338152a36001600055005b60ff191660051790558880611afe565b60405162461bcd60e51b815260048101849052602360248201527f4d696c6573746f6e654d616e616765723a206e6f7468696e6720746f207265666044820152621d5b9960ea1b6064820152608490fd5b6064826040519062461bcd60e51b825280600483015260248201527f4d696c6573746f6e654d616e616765723a206e6f7420726566756e6461626c656044820152fd5b600591501485611a88565b50600081815260046020526040902054821115611a40565b346102a557611c0d3661207b565b90611c2360018060a01b036002541633146125a2565b81151580611ca3575b611c35906124f4565b8060005260036020526040600020826000526020526007604060002001805460ff811690600682101561044257611c706001600293146125fd565b60ff19161790557f9ffbb52f2a1362273cd74689a516ca4f52c4282dc13e2e68b7e0646a9a7af7a36020604051338152a3005b50600081815260046020526040902054821115611c2c565b346102a557611cc93661207b565b9060005260036020526040600020906000526020526040600020805460018201549160028101611cf89061213e565b611d046003830161213e565b91600481015492600582015493600683015490600784015460ff169060088501611d2d9061213e565b91611d3a6009870161213e565b93600a87015498600b88015496600c89015498600d015460ff16996040519d8e809e8152602001528c6101c06040819201528d01611d77916121e4565b8c810360608e0152611d88916121e4565b9360808c015260a08b015260c08a015260e08901611da591612224565b878103610100890152611db7916121e4565b868103610120880152611dc9916121e4565b9361014086015261016085015261018084015215156101a08301520390f35b611df13661207b565b80151580612063575b611e03906124f4565b611e0b61254c565b341561201e5781600052602091600383526040600020826000528352604060002060ff600782015416600681101561044257611fc3576006810154421015611f7457816000526005845260018060a01b03604060002054163314611f1b5760059082600052600685526040600020846000528552604060002033600052855260406000205415611f06575b8260005260068552604060002084600052855260406000203360005285526040600020611ec434825461242c565b905501611ed234825461242c565b90557f1e3bc6edf35d9744b767980df51144c565ebc7f201c4a611d2a3e9888deef730604051933485523394a46001600055005b600c8101611f14815461241d565b9055611e96565b60405162461bcd60e51b815260048101859052602b60248201527f4d696c6573746f6e654d616e616765723a2063726561746f722063616e6e6f7460448201526a20636f6e7472696275746560a81b6064820152608490fd5b60405162461bcd60e51b815260048101859052602160248201527f4d696c6573746f6e654d616e616765723a20646561646c696e652070617373656044820152601960fa1b6064820152608490fd5b60405162461bcd60e51b815260048101859052602d60248201527f4d696c6573746f6e654d616e616765723a206e6f7420616363657074696e672060448201526c636f6e747269627574696f6e7360981b6064820152608490fd5b60405162461bcd60e51b815260206004820152601f60248201527f4d696c6573746f6e654d616e616765723a206d7573742073656e6420455448006044820152606490fd5b50600082815260046020526040902054811115611dfa565b60409060031901126102a5576004359060243590565b90600182811c921680156120c1575b60208310146120ab57565b634e487b7160e01b600052602260045260246000fd5b91607f16916120a0565b606081019081106001600160401b0382111761138857604052565b6101c081019081106001600160401b0382111761138857604052565b602081019081106001600160401b0382111761138857604052565b90601f801991011681019081106001600160401b0382111761138857604052565b906040519182600082549261215284612091565b9081845260019485811690816000146121c1575060011461217e575b505061217c9250038361211d565b565b9093915060005260209081600020936000915b8183106121a957505061217c9350820101388061216e565b85548884018501529485019487945091830191612191565b91505061217c94506020925060ff191682840152151560051b820101388061216e565b919082519283825260005b848110612210575050826000602080949584010152601f8019910116010190565b6020818301810151848301820152016121ef565b9060068210156104425752565b600435906001600160a01b03821682036102a557565b60609060031901126102a55760043590602435906044356001600160a01b03811681036102a55790565b9181601f840112156102a5578235916001600160401b0383116102a557602083818601950101116102a557565b9081518152602082015160208201526123396123256122e16122cf60408601516101c08060408801528601906121e4565b606086015185820360608701526121e4565b6080850151608085015260a085015160a085015260c085015160c085015261231160e086015160e0860190612224565b6101008086015190858303908601526121e4565b6101208085015190848303908501526121e4565b916101408082015190830152610160808201519083015261018080820151908301526101a080910151151591015290565b6001546001600160a01b0316330361237e57565b606460405162461bcd60e51b815260206004820152602060248201527f4f776e61626c653a2063616c6c6572206973206e6f7420746865206f776e65726044820152fd5b156123c957565b60405162461bcd60e51b815260206004820152602660248201527f4d696c6573746f6e654d616e616765723a206e6f742063616d706169676e20636044820152653932b0ba37b960d11b6064820152608490fd5b60001981146102735760010190565b9190820180921161027357565b9291926001600160401b0382116113885760405191612462601f8201601f19166020018461211d565b8294818452818301116102a5578281602093846000960137010152565b90601f811161248d57505050565b600091825260208220906020601f850160051c830194106124c9575b601f0160051c01915b8281106124be57505050565b8181556001016124b2565b90925082906124a9565b908060209392818452848401376000828201840152601f01601f1916010190565b156124fb57565b60405162461bcd60e51b815260206004820152602360248201527f4d696c6573746f6e654d616e616765723a20696e76616c6964206d696c6573746044820152626f6e6560e81b6064820152608490fd5b60026000541461255d576002600055565b60405162461bcd60e51b815260206004820152601f60248201527f5265656e7472616e637947756172643a207265656e7472616e742063616c6c006044820152606490fd5b156125a957565b60405162461bcd60e51b815260206004820152602660248201527f4d696c6573746f6e654d616e616765723a2063616c6c6572206973206e6f74206044820152656f7261636c6560d01b6064820152608490fd5b1561260457565b60405162461bcd60e51b815260206004820152602860248201527f4d696c6573746f6e654d616e616765723a206e6f7420696e205375626d697474604482015267656420737461746560c01b6064820152608490fd5b8181029291811591840414171561027357565b9060008281526003602052604081208282526020526040812090600a82015461269a600b8401548261242c565b9161271091828402948486048414851517156127225760050154946126c16008548761265a565b116127195782810292818404149015171561270557506126e36009548361265a565b116126f357505061217c91612736565b146126fc575050565b61217c91612736565b634e487b7160e01b81526011600452602490fd5b50505050505050565b634e487b7160e01b83526011600452602483fd5b600081815260036020526040812083825260205260408120600781019081549060ff82166006811015612848576001036128405761277d600b600a8301549201548261242c565b908115159182612800575b5050156127c95750805460ff191660021790556040519081527f9ffbb52f2a1362273cd74689a516ca4f52c4282dc13e2e68b7e0646a9a7af7a390602090a3565b60ff191660031790556040519081527f888c5547e7a66deaaeef7cc96fdf1b39154057815e8d0f702c46858d074e66a590602090a3565b9091506127109182810292818404149015171561282c576009546128239161265a565b11153880612788565b634e487b7160e01b85526011600452602485fd5b505050505050565b634e487b7160e01b85526021600452602485fd5b60405190612869826120e6565b816101a0600091828152826020820152606060408201526060808201528260808201528260a08201528260c08201528260e0820152606061010082015260606101208201528261014082015282610160820152826101808201520152565b906040516128d4816120e6565b809280548252600181015460208301526128f06002820161213e565b60408301526129016003820161213e565b606083015260048101546080830152600581015460a0830152600681015460c083015260ff60078201541690600682101561044257600d60ff916101a09360e08601526129506008820161213e565b6101008601526129626009820161213e565b610120860152600a810154610140860152600b810154610160860152600c8101546101808601520154161515910152565b6001600160401b0381116113885760051b60200190565b80518210156129be5760209160051b010190565b634e487b7160e01b600052603260045260246000fdfea2646970667358221220fbea399d7ea3363bc6600287659da98b5359a3cb53354667ed8e9e28f1ee775964736f6c63430008130033",
  "linkReferences": {},
  "deployedLinkReferences": {}
}