{"contracts/MilestoneManager.sol":{"MilestoneManager":{"abi":[{"inputs":[{"internalType":"address","name":"_oracleAddress","type":"address"}],"stateMutability":"nonpayable","type":"constructor"},{"anonymous":false,"inputs":[{"indexed":true,"internalType":"uint256","name":"campaignId","type":"uint256"},{"indexed":true,"internalType":"address","name":"creator","type":"address"}],"name":"CampaignRegistered","type":"event"},{"anonymous":false,"inputs":[{"indexed":true,"internalType":"uint256","name":"campaignId","type":"uint256"},{"indexed":true,"internalType":"uint256","name":"milestoneId","type":"uint256"},{"indexed":false,"internalType":"address","name":"approver","type":"address"}],"name":"MilestoneApproved","type":"event"},{"anonymous":false,"inputs":[{"indexed":true,"internalType":"uint256","name":"campaignId","type":"uint256"},{"indexed":true,"internalType":"uint256","name":"milestoneId","type":"uint256"},{"indexed":false,"internalType":"string","name":"title","type":"string"},{"indexed":false,"internalType":"uint256","name":"targetAmount","type":"uint256"},{"indexed":false,"internalType":"uint256","name":"deadline","type":"uint256"}],"name":"MilestoneCreated","type":"event"},{"anonymous":false,"inputs":[{"indexed":true,"internalType":"uint256","name":"campaignId","type":"uint256"},{"indexed":true,"internalType":"uint256","name":"milestoneId","type":"uint256"},{"indexed":true,"internalType":"address","name":"contributor","type":"address"},{"indexed":false,"internalType":"uint256","name":"amount","type":"uint256"}],"name":"MilestoneFunded","type":"event"},{"anonymous":false,"inputs":[{"indexed":true,"internalType":"uint256","name":"campaignId","type":"uint256"},{"indexed":true,"internalType":"uint256","name":"milestoneId","type":"uint256"},{"indexed":false,"internalType":"address","name":"rejecter","type":"address"}],"name":"MilestoneRejected","type":"event"},{"anonymous":false,"inputs":[{"indexed":true,"internalType":"uint256","name":"campaignId","type":"uint256"},{"indexed":true,"internalType":"uint256","name":"milestoneId","type":"uint256"},{"indexed":false,"internalType":"uint256","name":"amount","type":"uint256"}],"name":"MilestoneReleased","type":"event"},{"anonymous":false,"inputs":[{"indexed":true,"internalType":"uint256","name":"campaignId","type":"uint256"},{"indexed":true,"internalType":"uint256","name":"milestoneId","type":"uint256"},{"indexed":false,"internalType":"string","name":"evidenceIpfsHash","type":"string"},{"indexed":false,"internalType":"string","name":"evidenceUrl","type":"string"}],"name":"MilestoneSubmitted","type":"event"},{"anonymous":false,"inputs":[{"indexed":true,"internalType":"uint256","name":"campaignId","type":"uint256"},{"indexed":true,"internalType":"uint256","name":"milestoneId","type":"uint256"},{"indexed":true,"internalType":"address","name":"voter","type":"address"},{"indexed":false,"internalType":"bool","name":"inFavour","type":"bool"},{"indexed":false,"internalType":"uint256","name":"weight","type":"uint256"}],"name":"MilestoneVoted","type":"event"},{"anonymous":false,"inputs":[{"indexed":true,"internalType":"address","name":"oldOracle","type":"address"},{"indexed":true,"internalType":"address","name":"newOracle","type":"address"}],"name":"OracleAddressUpdated","type":"event"},{"anonymous":false,"inputs":[{"indexed":true,"internalType":"address","name":"previousOwner","type":"address"},{"indexed":true,"internalType":"address","name":"newOwner","type":"address"}],"name":"OwnershipTransferred","type":"event"},{"anonymous":false,"inputs":[{"indexed":false,"internalType":"uint256","name":"quorumBps","type":"uint256"},{"indexed":false,"internalType":"uint256","name":"thresholdBps","type":"uint256"},{"indexed":false,"internalType":"uint256","name":"windowSeconds","type":"uint256"}],"name":"VotingParamsUpdated","type":"event"},{"inputs":[],"name":"approvalThresholdBps","outputs":[{"internalType":"uint256","name":"","type":"uint256"}],"stateMutability":"view","type":"function"},{"inputs":[{"internalType":"uint256","name":"_campaignId","type":"uint256"},{"internalType":"uint256","name":"_milestoneId","type":"uint256"}],"name":"approveMilestoneByOracle","outputs":[],"stateMutability":"nonpayable","type":"function"},{"inputs":[{"internalType":"uint256","name":"","type":"uint256"}],"name":"campaignCreator","outputs":[{"internalType":"address","name":"","type":"address"}],"stateMutability":"view","type":"function"},{"inputs":[{"internalType":"uint256","name":"","type":"uint256"}],"name":"campaignTarget","outputs":[{"internalType":"uint256","name":"","type":"uint256"}],"stateMutability":"view","type":"function"},{"inputs":[{"internalType":"uint256","name":"_campaignId","type":"uint256"},{"internalType":"uint256","name":"_milestoneId","type":"uint256"}],"name":"claimMilestoneRefund","outputs":[],"stateMutability":"nonpayable","type":"function"},{"inputs":[{"internalType":"uint256","name":"_campaignId","type":"uint256"},{"internalType":"uint256","name":"_milestoneId","type":"uint256"}],"name":"contributeToMilestone","outputs":[],"stateMutability":"payable","type":"function"},{"inputs":[{"internalType":"uint256","name":"_campaignId","type":"uint256"},{"internalType":"string","name":"_title","type":"string"},{"internalType":"string","name":"_description","type":"string"},{"internalType":"uint256","name":"_targetAmount","type":"uint256"},{"internalType":"uint256","name":"_duration","type":"uint256"}],"name":"createMilestone","outputs":[],"stateMutability":"nonpayable","type":"function"},{"inputs":[{"internalType":"uint256","name":"_campaignId","type":"uint256"},{"internalType":"uint256","name":"_milestoneId","type":"uint256"}],"name":"finalizeVoting","outputs":[],"stateMutability":"nonpayable","type":"function"},{"inputs":[{"internalType":"uint256","name":"_campaignId","type":"uint256"}],"name":"getCampaignMilestones","outputs":[{"components":[{"internalType":"uint256","name":"id","type":"uint256"},{"internalType":"uint256","name":"campaignId","type":"uint256"},{"internalType":"string","name":"title","type":"string"},{"internalType":"string","name":"description","type":"string"},{"internalType":"uint256","name":"targetAmount","type":"uint256"},{"internalType":"uint256","name":"raisedAmount","type":"uint256"},{"internalType":"uint256","name":"deadline","type":"uint256"},{"internalType":"enum MilestoneManager.MilestoneStatus","name":"status","type":"uint8"},{"internalType":"string","name":"evidenceIpfsHash","type":"string"},{"internalType":"string","name":"evidenceUrl","type":"string"},{"internalType":"uint256","name":"totalVotesFor","type":"uint256"},{"internalType":"uint256","name":"totalVotesAgainst","type":"uint256"},{"internalType":"uint256","name":"contributorsCount","type":"uint256"},{"internalType":"bool","name":"fundsReleased","type":"bool"}],"internalType":"struct MilestoneManager.Milestone[]","name":"","type":"tuple[]"}],"stateMutability":"view","type":"function"},{"inputs":[{"internalType":"uint256","name":"_campaignId","type":"uint256"},{"internalType":"uint256","name":"_milestoneId","type":"uint256"},{"internalType":"address","name":"_contributor","type":"address"}],"name":"getContribution","outputs":[{"internalType":"uint256","name":"","type":"uint256"}],"stateMutability":"view","type":"function"},{"inputs":[{"internalType":"uint256","name":"_campaignId","type":"uint256"},{"internalType":"uint256","name":"_milestoneId","type":"uint256"}],"name":"getMilestone","outputs":[{"components":[{"internalType":"uint256","name":"id","type":"uint256"},{"internalType":"uint256","name":"campaignId","type":"uint256"},{"internalType":"string","name":"title","type":"string"},{"internalType":"string","name":"description","type":"string"},{"internalType":"uint256","name":"targetAmount","type":"uint256"},{"internalType":"uint256","name":"raisedAmount","type":"uint256"},{"internalType":"uint256","name":"deadline","type":"uint256"},{"internalType":"enum MilestoneManager.MilestoneStatus","name":"status","type":"uint8"},{"internalType":"string","name":"evidenceIpfsHash","type":"string"},{"internalType":"string","name":"evidenceUrl","type":"string"},{"internalType":"uint256","name":"totalVotesFor","type":"uint256"},{"internalType":"uint256","name":"totalVotesAgainst","type":"uint256"},{"internalType":"uint256","name":"contributorsCount","type":"uint256"},{"internalType":"bool","name":"fundsReleased","type":"bool"}],"internalType":"struct MilestoneManager.Milestone","name":"","type":"tuple"}],"stateMutability":"view","type":"function"},{"inputs":[{"internalType":"uint256","name":"_campaignId","type":"uint256"},{"internalType":"uint256","name":"_milestoneId","type":"uint256"},{"internalType":"address","name":"_voter","type":"address"}],"name":"getVote","outputs":[{"components":[{"internalType":"bool","name":"hasVoted","type":"bool"},{"internalType":"bool","name":"inFavour","type":"bool"},{"internalType":"uint256","name":"weight","type":"uint256"}],"internalType":"struct MilestoneManager.Vote","name":"","type":"tuple"}],"stateMutability":"view","type":"function"},{"inputs":[{"internalType":"uint256","name":"_campaignId","type":"uint256"}],"name":"isCampaignRegistered","outputs":[{"internalType":"bool","name":"","type":"bool"}],"stateMutability":"view","type":"function"},{"inputs":[{"internalType":"uint256","name":"","type":"uint256"},{"internalType":"uint256","name":"","type":"uint256"},{"internalType":"address","name":"","type":"address"}],"name":"milestoneContributions","outputs":[{"internalType":"uint256","name":"","type":"uint256"}],"stateMutability":"view","type":"function"},{"inputs":[{"internalType":"uint256","name":"","type":"uint256"}],"name":"milestoneCount","outputs":[{"internalType":"uint256","name":"","type":"uint256"}],"stateMutability":"view","type":"function"},{"inputs":[{"internalType":"uint256","name":"","type":"uint256"},{"internalType":"uint256","name":"","type":"uint256"}],"name":"milestones","outputs":[{"internalType":"uint256","name":"id","type":"uint256"},{"internalType":"uint256","name":"campaignId","type":"uint256"},{"internalType":"string","name":"title","type":"string"},{"internalType":"string","name":"description","type":"string"},{"internalType":"uint256","name":"targetAmount","type":"uint256"},{"internalType":"uint256","name":"raisedAmount","type":"uint256"},{"internalType":"uint256","name":"deadline","type":"uint256"},{"internalType":"enum MilestoneManager.MilestoneStatus","name":"status","type":"uint8"},{"internalType":"string","name":"evidenceIpfsHash","type":"string"},{"internalType":"string","name":"evidenceUrl","type":"string"},{"internalType":"uint256","name":"totalVotesFor","type":"uint256"},{"internalType":"uint256","name":"totalVotesAgainst","type":"uint256"},{"internalType":"uint256","name":"contributorsCount","type":"uint256"},{"internalType":"bool","name":"fundsReleased","type":"bool"}],"stateMutability":"view","type":"function"},{"inputs":[],"name":"oracleAddress","outputs":[{"internalType":"address","name":"","type":"address"}],"stateMutability":"view","type":"function"},{"inputs":[],"name":"owner","outputs":[{"internalType":"address","name":"","type":"address"}],"stateMutability":"view","type":"function"},{"inputs":[{"internalType":"uint256","name":"_campaignId","type":"uint256"},{"internalType":"uint256","name":"_campaignTarget","type":"uint256"}],"name":"registerCampaign","outputs":[],"stateMutability":"nonpayable","type":"function"},{"inputs":[{"internalType":"uint256","name":"_campaignId","type":"uint256"},{"internalType":"uint256","name":"_milestoneId","type":"uint256"}],"name":"rejectMilestoneByOracle","outputs":[],"stateMutability":"nonpayable","type":"function"},{"inputs":[],"name":"renounceOwnership","outputs":[],"stateMutability":"nonpayable","type":"function"},{"inputs":[{"internalType":"address","name":"_newOracle","type":"address"}],"name":"setOracleAddress","outputs":[],"stateMutability":"nonpayable","type":"function"},{"inputs":[{"internalType":"uint256","name":"_quorumBps","type":"uint256"},{"internalType":"uint256","name":"_thresholdBps","type":"uint256"},{"internalType":"uint256","name":"_windowSeconds","type":"uint256"}],"name":"setVotingParams","outputs":[],"stateMutability":"nonpayable","type":"function"},{"inputs":[{"internalType":"uint256","name":"_campaignId","type":"uint256"},{"internalType":"uint256","name":"_milestoneId","type":"uint256"},{"internalType":"string","name":"_evidenceIpfsHash","type":"string"},{"internalType":"string","name":"_evidenceUrl","type":"string"}],"name":"submitMilestoneEvidence","outputs":[],"stateMutability":"nonpayable","type":"function"},{"inputs":[{"internalType":"uint256","name":"","type":"uint256"}],"name":"totalMilestoneTarget","outputs":[{"internalType":"uint256","name":"","type":"uint256"}],"stateMutability":"view","type":"function"},{"inputs":[{"internalType":"address","name":"newOwner","type":"address"}],"name":"transferOwnership","outputs":[],"stateMutability":"nonpayable","type":"function"},{"inputs":[{"internalType":"uint256","name":"_campaignId","type":"uint256"},{"internalType":"uint256","name":"_milestoneId","type":"uint256"},{"internalType":"bool","name":"_inFavour","type":"bool"}],"name":"voteMilestone","outputs":[],"stateMutability":"nonpayable","type":"function"},{"inputs":[{"internalType":"uint256","name":"","type":"uint256"},{"internalType":"uint256","name":"","type":"uint256"},{"internalType":"address","name":"","type":"address"}],"name":"votes","outputs":[{"internalType":"bool","name":"hasVoted","type":"bool"},{"internalType":"bool","name":"inFavour","type":"bool"},{"internalType":"uint256","name":"weight","type":"uint256"}],"stateMutability":"view","type":"function"},{"inputs":[],"name":"votingQuorumBps","outputs":[{"internalType":"uint256","name":"","type":"uint256"}],"stateMutability":"view","type":"function"},{"inputs":[],"name":"votingWindowSeconds","outputs":[{"internalType":"uint256","name":"","type":"uint256"}],"stateMutability":"view","type":"function"},{"inputs":[{"internalType":"uint256","name":"_campaignId","type":"uint256"},{"internalType":"uint256","name":"_milestoneId","type":"uint256"}],"name":"withdrawMilestoneFunds","outputs":[],"stateMutability":"nonpayable","type":"function"},{"stateMutability":"payable","type":"receive"}],"evm":{"bytecode":{"linkReferences":{},"object":"6080346200012357601f62002e0338819003918201601f19168301916001600160401b0383118484101762000128578084926020946040528339810103126200012357516001600160a01b0380821691829003620001235760016000556001549060018060a01b0319913383821617600155604051913391167f8be0079c531659141344cd1fd0a4f28419497f9722a3daafe3b4186f6b6457e0600080a3610bb8600a556113ec600b5562093a80600c558215620000d057506002541617600255604051612cc490816200013f8239f35b62461bcd60e51b815260206004820152602860248201527f4d696c6573746f6e654d616e616765723a206f7261636c65206973207a65726f604482015267206164647265737360c01b6064820152608490fd5b600080fd5b634e487b7160e01b600052604160045260246000fdfe608080604052600436101561001d575b50361561001b57600080fd5b005b60003560e01c9081630e3f72cc146121f157508063147fefa614611e795780631c376c6314611d4c57806328fad64614611c9057806331aee8a114611abb5780633eb6b2c614610ba65780634c69c00f14611a075780634f2b423414611965578063583be14e1461192f578063657e62f714611873578063715018a61461181657806372ebb42a146117ea578063776e957a146116855780638da5cb5b1461165c5780638dc7b61514610eb55780638ed9895c14610e37578063918cb24114610bed5780639b03234214610ba6578063a89ae4ba14610b7d578063ab881ffd14610b51578063ad6b7aa614610b25578063b48e784a14610af1578063bb7641e614610715578063bcded7b6146106f7578063bfe266121461053b578063c8db7e7a146104d7578063cb7c172b146104b9578063d1bc76eb1461049b578063f01a59251461039e578063f2fde38b146102d55763f91e4b291461017f573861000f565b346102d0576020806003193601126102d057600435908160005260048152604060002054916101ad83612c4d565b926101bb60405194856123ca565b808452601f196101ca82612c4d565b0160005b8181106102b4575050600191825b828111156102465750505060405191808301818452845180915260408401918060408360051b8701019601926000905b8382106102195786880387f35b90919293948380610235839a603f198b8203018652895161254b565b99970195949391909101910161020c565b8160009694965260038552604060002081600052855260406000209060001981019181831161029e576102969261027f61029092612b81565b6102898289612c64565b5286612c64565b506126d7565b9492946101dc565b634e487b7160e01b600052601160045260246000fd5b84906102c1969496612b16565b828287010152019492946101ce565b600080fd5b346102d05760203660031901126102d0576102ee6124de565b6102f6612617565b6001600160a01b0390811690811561034a57600154826bffffffffffffffffffffffff60a01b821617600155167f8be0079c531659141344cd1fd0a4f28419497f9722a3daafe3b4186f6b6457e0600080a3005b60405162461bcd60e51b815260206004820152602660248201527f4f776e61626c653a206e6577206f776e657220697320746865207a65726f206160448201526564647265737360d01b6064820152608490fd5b346102d0576103ac36612328565b80151580610483575b6103be906127a1565b816000526003602052604060002081600052602052604060002060ff600782015416600681101561046d57610406916103fb6001600693146128b7565b0154600c54906126ca565b42106104155761001b916129f0565b60405162461bcd60e51b815260206004820152602a60248201527f4d696c6573746f6e654d616e616765723a20766f74696e672077696e646f772060448201526939ba34b6361037b832b760b11b6064820152608490fd5b634e487b7160e01b600052602160045260246000fd5b506000828152600460205260409020548111156103b5565b346102d05760003660031901126102d0576020600c54604051908152f35b346102d05760003660031901126102d0576020600b54604051908152f35b346102d0576104e5366124f4565b91600052600960205260406000209060005260205260406000209060018060a01b0316600052602052606060406000206001815491015460ff604051928181161515845260081c16151560208301526040820152f35b346102d05761054936612328565b908060005260206005815260018060a01b039061056e8260406000205416331461266f565b831515806106e0575b610580906127a1565b610588612806565b826000526003815260406000208460005281526040600020600d8101805460ff811661069057600783019182549060ff8216600681101561046d5760020361064b576000948594600486958695600595600160ff19809416179055161790550154809688835260058752604083205416828215610642575bf115610636577fd33fcd27cbfb73a2d9058c968b560ccb306500bf536133802048489ecc7355e991604051908152a36001600055005b6040513d6000823e3d90fd5b506108fc610600565b60405162461bcd60e51b815260048101879052601e60248201527f4d696c6573746f6e654d616e616765723a206e6f7420617070726f76656400006044820152606490fd5b60405162461bcd60e51b815260048101859052602260248201527f4d696c6573746f6e654d616e616765723a20616c72656164792072656c656173604482015261195960f21b6064820152608490fd5b506000838152600482526040902054841115610577565b346102d05760003660031901126102d0576020600a54604051908152f35b346102d05760803660031901126102d057602480356004356001600160401b036044358181116102d05761074d90369060040161251e565b90916064358181116102d05761076790369060040161251e565b91856000526020976005895261078b60018060a01b0360406000205416331461266f565b87151580610ada575b61079d906127a1565b86600052600389526040600020886000528952604060002090600782019182549260ff84166006811015610ac557610a69578715801590610a60575b15610a0c576001809460ff1916179055600881018488116109f75761080888610802835461233e565b8361272c565b8760008d601f8311600114610988575090600993929160009161097d575b5060001960038b901b1c191689861b1790555b01928511610969575061085684610850845461233e565b8461272c565b6000601f85116001146108de579184807facefa0f349f716ad6ed6168191ef3ce7fa814c240f96e4299b6508550ffcb820999a9b95936108ce97956000936108d3575b501b906000198560031b1c19161790555b6108c1604051968796604088526040880191612780565b9285840390860152612780565b0390a3005b85013592508d610899565b601f19851690836000528a6000209160005b8181106109545750917facefa0f349f716ad6ed6168191ef3ce7fa814c240f96e4299b6508550ffcb820999a9b959391876108ce9896941061093a575b505083811b0190556108aa565b840135600019600387901b60f8161c191690558b8061092d565b86830135845592840192918c01918c016108f0565b634e487b7160e01b60009081526041600452fd5b90508a01358e610826565b908b949392601f198116846000528360002093896000985b838a106109dc5750505060099650106109c2575b50508489811b019055610839565b8b013560001960038c901b60f8161c191690558d806109b4565b85013586559781019790940193928301928d9250898f6109a0565b82634e487b7160e01b60005260416004526000fd5b60405162461bcd60e51b8152600481018d90526027818501527f4d696c6573746f6e654d616e616765723a206d7573742070726f766964652065604482015266766964656e636560c81b6064820152608490fd5b508615156107d9565b60405162461bcd60e51b8152600481018d9052602f818501527f4d696c6573746f6e654d616e616765723a20616c7265616479207375626d697460448201526e1d1959081bdc881c995cdbdb1d9959608a1b6064820152608490fd5b83634e487b7160e01b60005260216004526000fd5b50600087815260048a526040902054881115610794565b346102d05760203660031901126102d0576004356000526005602052602060018060a01b0360406000205416604051908152f35b346102d05760203660031901126102d05760043560005260066020526020604060002054604051908152f35b346102d05760203660031901126102d05760043560005260076020526020604060002054604051908152f35b346102d05760003660031901126102d0576002546040516001600160a01b039091168152602090f35b346102d057610bb4366124f4565b91600052600860205260406000209060005260205260406000209060018060a01b03166000526020526020604060002054604051908152f35b346102d05760603660031901126102d0576044356024356004358215158084036102d05782151580610e1f575b610c23906127a1565b816000526020600381526040600020846000528152604060002090836000526008815260406000208560005281526040600020336000528152604060002054918215610dc357846000526009825260406000208660005282526040600020336000528252604060002096875460ff8116610d7e5760ff600784015416600681101561046d57600103610d2f57600161001b9981879361ff008a60081b169061ffff1916171781550155600014610d1a57600a01610ce18382546126ca565b90555b60405192835282015282827fc4034c86715a9b37c41bd89fdabb308d4cc0f2aca4a22eb6b311492fefdad74360403394a4612927565b600b01610d288382546126ca565b9055610ce4565b60405162461bcd60e51b815260048101859052602160248201527f4d696c6573746f6e654d616e616765723a20766f74696e67206e6f74206f70656044820152603760f91b6064820152608490fd5b60405162461bcd60e51b815260048101859052601f60248201527f4d696c6573746f6e654d616e616765723a20616c726561647920766f746564006044820152606490fd5b60405162461bcd60e51b815260048101839052602e60248201527f4d696c6573746f6e654d616e616765723a206e6f20636f6e747269627574696f60448201526d0dc40e8de40ecdee8ca40eed2e8d60931b6064820152608490fd5b50600082815260046020526040902054831115610c1a565b346102d057610e4536612328565b90610e4e612b16565b5081151580610e9d575b610e61906127a1565b6000526003602052604060002090600052602052610e99610e856040600020612b81565b60405191829160208352602083019061254b565b0390f35b50600081815260046020526040902054821115610e58565b346102d05760a03660031901126102d0576024356001600160401b0381116102d057610ee590369060040161251e565b6044356001600160401b0381116102d057610f0490369060040161251e565b9290916004356000526005602052610f2a60018060a01b0360406000205416331461266f565b6064351561160b57608435156115b7578015611572576004356000526007602052610f5c6064356040600020546126ca565b6004356000526006602052604060002054811161150757600435600052600760205260406000205560046020526040600020610f9881546126d7565b9055600435600052600460205260406000205492610feb610fbb608435426126ca565b9160405196610fc988612393565b8688526004356020890152610fdf3686886126e6565b604089015236916126e6565b60608601526064356080860152600060a086015260c0850152600060e0850152604051611017816123af565b6000815261010085015260405161102d816123af565b6000815261012085015260006101408501526000610160850152600061018085015260006101a08501526004356000526003602052604060002083600052602052604060002093805185556020810151600186015560408101518051906001600160401b03821161137a5781906110b4826110ab60028b015461233e565b60028b0161272c565b602090601f83116001146114955760009261148a575b50508160011b916000199060031b1c19161760028601555b60608101518051906001600160401b03821161137a5781906111148261110b60038b015461233e565b60038b0161272c565b602090601f83116001146114185760009261140d575b50508160011b916000199060031b1c19161760038601555b6080810151600486015560a0810151600586015560c081015160068601556007850160e0820151600681101561046d5760ff801983541691161790556101008101518051906001600160401b03821161137a5781906111b1826111a860088b015461233e565b60088b0161272c565b602090601f831160011461139b57600092611390575b50508160011b916000199060031b1c19161760088601555b6101208101519485516001600160401b03811161137a5761121081611207600985015461233e565b6009850161272c565b6020601f82116001146112e2579181600d926101a0947f7388b0a2d11e0575b753037e87c5c66b795cb79a842ab2cc7dbaae43ff84e7de98999a6000926112d7575b50508160011b916000199060031b1c19161760098201555b610140840151600a820155610160840151600b820155610180840151600c82015501910151151560ff801983541691161790556112bf6112ac608435426126ca565b9360405192606084526060840191612780565b926064356020830152604082015280600435930390a3005b015190508a80611252565b6009830160005260206000209760005b601f19841681106113625750827f7388b0a2d11e0575b753037e87c5c66b795cb79a842ab2cc7dbaae43ff84e7de9798996101a09593600193600d96601f19811610611349575b505050811b01600982015561126a565b015160001960f88460031b161c191690558a8080611339565b828201518a55600190990198602092830192016112f2565b634e487b7160e01b600052604160045260246000fd5b0151905087806111c7565b9250600888016000526020600020906000935b601f19841685106113f2576001945083601f198116106113d9575b505050811b0160088601556111df565b015160001960f88460031b161c191690558780806113c9565b818101518355602094850194600190930192909101906113ae565b01519050878061112a565b9250600388016000526020600020906000935b601f198416851061146f576001945083601f19811610611456575b505050811b016003860155611142565b015160001960f88460031b161c19169055878080611446565b8181015183556020948501946001909301929091019061142b565b0151905087806110ca565b9250600288016000526020600020906000935b601f19841685106114ec576001945083601f198116106114d3575b505050811b0160028601556110e2565b015160001960f88460031b161c191690558780806114c3565b818101518355602094850194600190930192909101906114a8565b60405162461bcd60e51b815260206004820152603e60248201527f4d696c6573746f6e654d616e616765723a206d696c6573746f6e65207461726760448201527f65747320776f756c64206578636565642063616d706169676e20676f616c00006064820152608490fd5b60405162461bcd60e51b815260206004820152601d60248201527f4d696c6573746f6e654d616e616765723a20656d707479207469746c650000006044820152606490fd5b60405162461bcd60e51b815260206004820152602660248201527f4d696c6573746f6e654d616e616765723a206475726174696f6e206d7573742060448201526506265203e20360d41b6064820152608490fd5b60405162461bcd60e51b8152602060048201526024808201527f4d696c6573746f6e654d616e616765723a20746172676574206d7573742062656044820152630203e20360e41b6064820152608490fd5b346102d05760003660031901126102d0576001546040516001600160a01b039091168152602090f35b346102d05760603660031901126102d0576044356024356004356116a7612617565b6127108082116117a557821161175557620151808310611705577ff2b4407bc29c4fa956df36358492d43b143e2221b965f5244605dbf5d5545bca9260609282600a5580600b5581600c5560405192835260208301526040820152a1005b60405162461bcd60e51b815260206004820152602260248201527f4d696c6573746f6e654d616e616765723a2077696e646f7720746f6f2073686f6044820152611c9d60f21b6064820152608490fd5b60405162461bcd60e51b815260206004820152602260248201527f4d696c6573746f6e654d616e616765723a207468726573686f6c64203e203130604482015261302560f01b6064820152608490fd5b60405162461bcd60e51b815260206004820152601f60248201527f4d696c6573746f6e654d616e616765723a2071756f72756d203e2031303025006044820152606490fd5b346102d05760203660031901126102d05760043560005260046020526020604060002054604051908152f35b346102d05760003660031901126102d05761182f612617565b600180546001600160a01b031981169091556000906001600160a01b03167f8be0079c531659141344cd1fd0a4f28419497f9722a3daafe3b4186f6b6457e08280a3005b346102d05761188136612328565b9061189760018060a01b0360025416331461285c565b81151580611917575b6118a9906127a1565b8060005260036020526040600020826000526020526007604060002001805460ff811690600682101561046d576118e46001600393146128b7565b60ff19161790557f888c5547e7a66deaaeef7cc96fdf1b39154057815e8d0f702c46858d074e66a56020604051338152a3005b506000818152600460205260409020548211156118a0565b346102d05760203660031901126102d0576004356000526005602052602060018060a01b03604060002054161515604051908152f35b346102d0576060611975366124f4565b906040519261198384612378565b60008452600060406020958287820152015260005260098352604060002090600052825260406000209060018060a01b03166000528152604060002090604051906119cd82612378565b82546040600160ff831615159586865260ff8587019460081c16151584520154930192835260405193845251151590830152516040820152f35b346102d05760203660031901126102d057611a206124de565b611a28612617565b6001600160a01b03908116908115611a7657816002549182167fd3afd1676752459d3aa8b6f73633fac8efd724610da9c4cd8d8e4fa1631841fb600080a36001600160a01b03191617600255005b60405162461bcd60e51b815260206004820152601e60248201527f4d696c6573746f6e654d616e616765723a207a65726f206164647265737300006044820152606490fd5b346102d057611ac936612328565b9081151580611c78575b611adc906127a1565b611ae4612806565b80600052602060038152604060002083600052815260076040600020019060ff825416600681101561046d5760038114908115611c6d575b5015611c2a57826000526008815260406000208460005281526040600020336000528152604060002054918215611bd95783600052600882526040600020856000528252604060002033600052825260006040812055805460ff8116600681101561046d57600314611bc9575b50506000808080853382f115610636577fd33fcd27cbfb73a2d9058c968b560ccb306500bf536133802048489ecc7355e991604051908152a36001600055005b60ff191660051790558480611b89565b60405162461bcd60e51b815260048101839052602360248201527f4d696c6573746f6e654d616e616765723a206e6f7468696e6720746f207265666044820152621d5b9960ea1b6064820152608490fd5b6064906040519062461bcd60e51b825280600483015260248201527f4d696c6573746f6e654d616e616765723a206e6f7420726566756e6461626c656044820152fd5b600591501485611b1c565b50600081815260046020526040902054821115611ad3565b346102d057611c9e36612328565b90611cb460018060a01b0360025416331461285c565b81151580611d34575b611cc6906127a1565b8060005260036020526040600020826000526020526007604060002001805460ff811690600682101561046d57611d016001600293146128b7565b60ff19161790557f9ffbb52f2a1362273cd74689a516ca4f52c4282dc13e2e68b7e0646a9a7af7a36020604051338152a3005b50600081815260046020526040902054821115611cbd565b346102d057611d5a36612328565b9060005260036020526040600020906000526020526040600020805460018201549160028101611d89906123eb565b611d95600383016123eb565b91600481015492600582015493600683015490600784015460ff169060088501611dbe906123eb565b91611dcb600987016123eb565b93600a87015498600b88015496600c89015498600d015460ff16996040519d8e809e8152602001528c6101c06040819201528d01611e0891612491565b8c810360608e0152611e1991612491565b9360808c015260a08b015260c08a015260e08901611e36916124d1565b878103610100890152611e4891612491565b868103610120880152611e5a91612491565b9361014086015261016085015261018084015215156101a08301520390f35b611e8236612328565b801515806121d9575b611e94906127a1565b611e9c612806565b3415612194578160005260209160038352604060002082600052835260406000209260ff600785015416600681101561046d5761213a5760068401544210156120ec57816000526005815260018060a01b03604060002054163314612094576004840154936005810194855480821160001461208b57611f1b916127f9565b80156120205780341160001461201857945b611f3786346127f9565b9184600052600884526040600020866000528452604060002033600052845260406000205415612003575b508360005260088352604060002085600052835260406000203360005283526040600020611f918782546126ca565b9055611f9e8682546126ca565b905580158015611fdd575b50507f1e3bc6edf35d9744b767980df51144c565ebc7f201c4a611d2a3e9888deef730906040519485523394a46001600055005b600080809381938290611ffa575b3390f115610636578480611fa9565b506108fc611feb565b600c0161201081546126d7565b905586611f62565b503494611f2d565b60405162461bcd60e51b815260048101849052603a60248201527f4d696c6573746f6e654d616e616765723a206d696c6573746f6e652066756e6460448201527f696e672074617267657420616c726561647920726561636865640000000000006064820152608490fd5b50506000611f1b565b6084906040519062461bcd60e51b82526004820152602b60248201527f4d696c6573746f6e654d616e616765723a2063726561746f722063616e6e6f7460448201526a20636f6e7472696275746560a81b6064820152fd5b6084906040519062461bcd60e51b82526004820152602160248201527f4d696c6573746f6e654d616e616765723a20646561646c696e652070617373656044820152601960fa1b6064820152fd5b6084906040519062461bcd60e51b82526004820152602d60248201527f4d696c6573746f6e654d616e616765723a206e6f7420616363657074696e672060448201526c636f6e747269627574696f6e7360981b6064820152fd5b60405162461bcd60e51b815260206004820152601f60248201527f4d696c6573746f6e654d616e616765723a206d7573742073656e6420455448006044820152606490fd5b50600082815260046020526040902054811115611e8b565b346102d0576121ff36612328565b600082815260056020526040902054919290916001600160a01b03166122da5750801561227f578160005260056020526040600020336bffffffffffffffffffffffff60a01b825416179055600660205260406000205533907f4f373b7130fde2eca917b55949b3f1b3ec21d20d77fe40cab78cced7b9ebd05c600080a3005b60405162461bcd60e51b815260206004820152602d60248201527f4d696c6573746f6e654d616e616765723a2063616d706169676e20746172676560448201526c074206d757374206265203e203609c1b6064820152608490fd5b62461bcd60e51b8152602060048201526024808201527f4d696c6573746f6e654d616e616765723a20616c726561647920726567697374604482015263195c995960e21b6064820152608490fd5b60409060031901126102d0576004359060243590565b90600182811c9216801561236e575b602083101461235857565b634e487b7160e01b600052602260045260246000fd5b91607f169161234d565b606081019081106001600160401b0382111761137a57604052565b6101c081019081106001600160401b0382111761137a57604052565b602081019081106001600160401b0382111761137a57604052565b90601f801991011681019081106001600160401b0382111761137a57604052565b90604051918260008254926123ff8461233e565b90818452600194858116908160001461246e575060011461242b575b5050612429925003836123ca565b565b9093915060005260209081600020936000915b8183106124565750506124299350820101388061241b565b8554888401850152948501948794509183019161243e565b91505061242994506020925060ff191682840152151560051b820101388061241b565b919082519283825260005b8481106124bd575050826000602080949584010152601f8019910116010190565b60208183018101518483018201520161249c565b90600682101561046d5752565b600435906001600160a01b03821682036102d057565b60609060031901126102d05760043590602435906044356001600160a01b03811681036102d05790565b9181601f840112156102d0578235916001600160401b0383116102d057602083818601950101116102d057565b9081518152602082015160208201526125e66125d261258e61257c60408601516101c0806040880152860190612491565b60608601518582036060870152612491565b6080850151608085015260a085015160a085015260c085015160c08501526125be60e086015160e08601906124d1565b610100808601519085830390860152612491565b610120808501519084830390850152612491565b916101408082015190830152610160808201519083015261018080820151908301526101a080910151151591015290565b6001546001600160a01b0316330361262b57565b606460405162461bcd60e51b815260206004820152602060248201527f4f776e61626c653a2063616c6c6572206973206e6f7420746865206f776e65726044820152fd5b1561267657565b60405162461bcd60e51b815260206004820152602660248201527f4d696c6573746f6e654d616e616765723a206e6f742063616d706169676e20636044820152653932b0ba37b960d11b6064820152608490fd5b9190820180921161029e57565b600019811461029e5760010190565b9291926001600160401b03821161137a576040519161270f601f8201601f1916602001846123ca565b8294818452818301116102d0578281602093846000960137010152565b90601f811161273a57505050565b600091825260208220906020601f850160051c83019410612776575b601f0160051c01915b82811061276b57505050565b81815560010161275f565b9092508290612756565b908060209392818452848401376000828201840152601f01601f1916010190565b156127a857565b60405162461bcd60e51b815260206004820152602360248201527f4d696c6573746f6e654d616e616765723a20696e76616c6964206d696c6573746044820152626f6e6560e81b6064820152608490fd5b9190820391821161029e57565b600260005414612817576002600055565b60405162461bcd60e51b815260206004820152601f60248201527f5265656e7472616e637947756172643a207265656e7472616e742063616c6c006044820152606490fd5b1561286357565b60405162461bcd60e51b815260206004820152602660248201527f4d696c6573746f6e654d616e616765723a2063616c6c6572206973206e6f74206044820152656f7261636c6560d01b6064820152608490fd5b156128be57565b60405162461bcd60e51b815260206004820152602860248201527f4d696c6573746f6e654d616e616765723a206e6f7420696e205375626d697474604482015267656420737461746560c01b6064820152608490fd5b8181029291811591840414171561029e57565b9060008281526003602052604081208282526020526040812090600a820154612954600b840154826126ca565b9161271091828402948486048414851517156129dc57600501549461297b600a5487612914565b116129d3578281029281840414901517156129bf575061299d600b5483612914565b116129ad575050612429916129f0565b146129b6575050565b612429916129f0565b634e487b7160e01b81526011600452602490fd5b50505050505050565b634e487b7160e01b83526011600452602483fd5b600081815260036020526040812083825260205260408120600781019081549060ff82166006811015612b0257600103612afa57612a37600b600a830154920154826126ca565b908115159182612aba575b505015612a835750805460ff191660021790556040519081527f9ffbb52f2a1362273cd74689a516ca4f52c4282dc13e2e68b7e0646a9a7af7a390602090a3565b60ff191660031790556040519081527f888c5547e7a66deaaeef7cc96fdf1b39154057815e8d0f702c46858d074e66a590602090a3565b90915061271091828102928184041490151715612ae657600b54612add91612914565b11153880612a42565b634e487b7160e01b85526011600452602485fd5b505050505050565b634e487b7160e01b85526021600452602485fd5b60405190612b2382612393565b816101a0600091828152826020820152606060408201526060808201528260808201528260a08201528260c08201528260e0820152606061010082015260606101208201528261014082015282610160820152826101808201520152565b90604051612b8e81612393565b80928054825260018101546020830152612baa600282016123eb565b6040830152612bbb600382016123eb565b606083015260048101546080830152600581015460a0830152600681015460c083015260ff60078201541690600682101561046d57600d60ff916101a09360e0860152612c0a600882016123eb565b610100860152612c1c600982016123eb565b610120860152600a810154610140860152600b810154610160860152600c8101546101808601520154161515910152565b6001600160401b03811161137a5760051b60200190565b8051821015612c785760209160051b010190565b634e487b7160e01b600052603260045260246000fdfea26469706673582212204d098f8c40964c2ce9281d8a5820f49e8a0fef8149bf4e755517c4cfcba1b8c364736f6c63430008130033","opcodes":"PUSH1 0x80 CALLVALUE PUSH3 0x123 JUMPI PUSH1 0x1F PUSH3 0x2E03 CODESIZE DUP2 SWAP1 SUB SWAP2 DUP3 ADD PUSH1 0x1F NOT AND DUP4 ADD SWAP2 PUSH1 0x1 PUSH1 0x1 PUSH1 0x40 SHL SUB DUP4 GT DUP5 DUP5 LT OR PUSH3 0x128 JUMPI DUP1 DUP5 SWAP3 PUSH1 0x20 SWAP5 PUSH1 0x40 MSTORE DUP4 CODECOPY DUP2 ADD SUB SLT PUSH3 0x123 JUMPI MLOAD PUSH1 0x1 PUSH1 0x1 PUSH1 0xA0 SHL SUB DUP1 DUP3 AND SWAP2 DUP3 SWAP1 SUB PUSH3 0x123 JUMPI PUSH1 0x1 PUSH1 0x0 SSTORE PUSH1 0x1 SLOAD SWAP1 PUSH1 0x1 DUP1 PUSH1 0xA0 SHL SUB NOT SWAP2 CALLER DUP4 DUP3 AND OR PUSH1 0x1 SSTORE PUSH1 0x40 MLOAD SWAP2 CALLER SWAP2 AND PUSH32 0x8BE0079C531659141344CD1FD0A4F28419497F9722A3DAAFE3B4186F6B6457E0 PUSH1 0x0 DUP1 LOG3 PUSH2 0xBB8 PUSH1 0xA SSTORE PUSH2 0x13EC PUSH1 0xB SSTORE PUSH3 0x93A80 PUSH1 0xC SSTORE DUP3 ISZERO PUSH3 0xD0 JUMPI POP PUSH1 0x2 SLOAD AND OR PUSH1 0x2 SSTORE PUSH1 0x40 MLOAD PUSH2 0x2CC4 SWAP1 DUP2 PUSH3 0x13F DUP3 CODECOPY RETURN JUMPDEST PUSH3 0x461BCD PUSH1 0xE5 SHL DUP2 MSTORE PUSH1 0x20 PUSH1 0x4 DUP3 ADD MSTORE PUSH1 0x28 PUSH1 0x24 DUP3 ADD MSTORE PUSH32 0x4D696C6573746F6E654D616E616765723A206F7261636C65206973207A65726F PUSH1 0x44 DUP3 ADD MSTORE PUSH8 0x2061646472657373 PUSH1 0xC0 SHL PUSH1 0x64 DUP3 ADD MSTORE PUSH1 0x84 SWAP1 REVERT JUMPDEST PUSH1 0x0 DUP1 REVERT JUMPDEST PUSH4 0x4E487B71 PUSH1 0xE0 SHL PUSH1 0x0 MSTORE PUSH1 0x41 PUSH1 0x4 MSTORE PUSH1 0x24 PUSH1 0x0 REVERT INVALID PUSH1 0x80 DUP1 PUSH1 0x40 MSTORE PUSH1 0x4 CALLDATASIZE LT ISZERO PUSH2 0x1D JUMPI JUMPDEST POP CALLDATASIZE ISZERO PUSH2 0x1B JUMPI PUSH1 0x0 DUP1 REVERT JUMPDEST STOP JUMPDEST PUSH1 0x0 CALLDATALOAD PUSH1 0xE0 SHR SWAP1 DUP2 PUSH4 0xE3F72CC EQ PUSH2 0x21F1 JUMPI POP DUP1 PUSH4 0x147FEFA6 EQ PUSH2 0x1E79 JUMPI DUP1 PUSH4 0x1C376C63 EQ PUSH2 0x1D4C JUMPI DUP1 PUSH4 0x28FAD646 EQ PUSH2 0x1C90 JUMPI DUP1 PUSH4 0x31AEE8A1 EQ PUSH2 0x1ABB JUMPI DUP1 PUSH4 0x3EB6B2C6 EQ PUSH2 0xBA6 JUMPI DUP1 PUSH4 0x4C69C00F EQ PUSH2 0x1A07 JUMPI DUP1 PUSH4 0x4F2B4234 EQ PUSH2 0x1965 JUMPI DUP1 PUSH4 0x583BE14E EQ PUSH2 0x192F JUMPI DUP1 PUSH4 0x657E62F7 EQ PUSH2 0x1873 JUMPI DUP1 PUSH4 0x715018A6 EQ PUSH2 0x1816 JUMPI DUP1 PUSH4 0x72EBB42A EQ PUSH2 0x17EA JUMPI DUP1 PUSH4 0x776E957A EQ PUSH2 0x1685 JUMPI DUP1 PUSH4 0x8DA5CB5B EQ PUSH2 0x165C JUMPI DUP1 PUSH4 0x8DC7B615 EQ PUSH2 0xEB5 JUMPI DUP1 PUSH4 0x8ED9895C EQ PUSH2 0xE37 JUMPI DUP1 PUSH4 0x918CB241 EQ PUSH2 0xBED JUMPI DUP1 PUSH4 0x9B032342 EQ PUSH2 0xBA6 JUMPI DUP1 PUSH4 0xA89AE4BA EQ PUSH2 0xB7D JUMPI DUP1 PUSH4 0xAB881FFD EQ PUSH2 0xB51 JUMPI DUP1 PUSH4 0xAD6B7AA6 EQ PUSH2 0xB25 JUMPI DUP1 PUSH4 0xB48E784A EQ PUSH2 0xAF1 JUMPI DUP1 PUSH4 0xBB7641E6 EQ PUSH2 0x715 JUMPI DUP1 PUSH4 0xBCDED7B6 EQ PUSH2 0x6F7 JUMPI DUP1 PUSH4 0xBFE26612 EQ PUSH2 0x53B JUMPI DUP1 PUSH4 0xC8DB7E7A EQ PUSH2 0x4D7 JUMPI DUP1 PUSH4 0xCB7C172B EQ PUSH2 0x4B9 JUMPI DUP1 PUSH4 0xD1BC76EB EQ PUSH2 0x49B JUMPI DUP1 PUSH4 0xF01A5925 EQ PUSH2 0x39E JUMPI DUP1 PUSH4 0xF2FDE38B EQ PUSH2 0x2D5 JUMPI PUSH4 0xF91E4B29 EQ PUSH2 0x17F JUMPI CODESIZE PUSH2 0xF JUMP JUMPDEST CALLVALUE PUSH2 0x2D0 JUMPI PUSH1 0x20 DUP1 PUSH1 0x3 NOT CALLDATASIZE ADD SLT PUSH2 0x2D0 JUMPI PUSH1 0x4 CALLDATALOAD SWAP1 DUP2 PUSH1 0x0 MSTORE PUSH1 0x4 DUP2 MSTORE PUSH1 0x40 PUSH1 0x0 KECCAK256 SLOAD SWAP2 PUSH2 0x1AD DUP4 PUSH2 0x2C4D JUMP JUMPDEST SWAP3 PUSH2 0x1BB PUSH1 0x40 MLOAD SWAP5 DUP6 PUSH2 0x23CA JUMP JUMPDEST DUP1 DUP5 MSTORE PUSH1 0x1F NOT PUSH2 0x1CA DUP3 PUSH2 0x2C4D JUMP JUMPDEST ADD PUSH1 0x0 JUMPDEST DUP2 DUP2 LT PUSH2 0x2B4 JUMPI POP POP PUSH1 0x1 SWAP2 DUP3 JUMPDEST DUP3 DUP2 GT ISZERO PUSH2 0x246 JUMPI POP POP POP PUSH1 0x40 MLOAD SWAP2 DUP1 DUP4 ADD DUP2 DUP5 MSTORE DUP5 MLOAD DUP1 SWAP2 MSTORE PUSH1 0x40 DUP5 ADD SWAP2 DUP1 PUSH1 0x40 DUP4 PUSH1 0x5 SHL DUP8 ADD ADD SWAP7 ADD SWAP3 PUSH1 0x0 SWAP1 JUMPDEST DUP4 DUP3 LT PUSH2 0x219 JUMPI DUP7 DUP9 SUB DUP8 RETURN JUMPDEST SWAP1 SWAP2 SWAP3 SWAP4 SWAP5 DUP4 DUP1 PUSH2 0x235 DUP4 SWAP11 PUSH1 0x3F NOT DUP12 DUP3 SUB ADD DUP7 MSTORE DUP10 MLOAD PUSH2 0x254B JUMP JUMPDEST SWAP10 SWAP8 ADD SWAP6 SWAP5 SWAP4 SWAP2 SWAP1 SWAP2 ADD SWAP2 ADD PUSH2 0x20C JUMP JUMPDEST DUP2 PUSH1 0x0 SWAP7 SWAP5 SWAP7 MSTORE PUSH1 0x3 DUP6 MSTORE PUSH1 0x40 PUSH1 0x0 KECCAK256 DUP2 PUSH1 0x0 MSTORE DUP6 MSTORE PUSH1 0x40 PUSH1 0x0 KECCAK256 SWAP1 PUSH1 0x0 NOT DUP2 ADD SWAP2 DUP2 DUP4 GT PUSH2 0x29E JUMPI PUSH2 0x296 SWAP3 PUSH2 0x27F PUSH2 0x290 SWAP3 PUSH2 0x2B81 JUMP JUMPDEST PUSH2 0x289 DUP3 DUP10 PUSH2 0x2C64 JUMP JUMPDEST MSTORE DUP7 PUSH2 0x2C64 JUMP JUMPDEST POP PUSH2 0x26D7 JUMP JUMPDEST SWAP5 SWAP3 SWAP5 PUSH2 0x1DC JUMP JUMPDEST PUSH4 0x4E487B71 PUSH1 0xE0 SHL PUSH1 0x0 MSTORE PUSH1 0x11 PUSH1 0x4 MSTORE PUSH1 0x24 PUSH1 0x0 REVERT JUMPDEST DUP5 SWAP1 PUSH2 0x2C1 SWAP7 SWAP5 SWAP7 PUSH2 0x2B16 JUMP JUMPDEST DUP3 DUP3 DUP8 ADD ADD MSTORE ADD SWAP5 SWAP3 SWAP5 PUSH2 0x1CE JUMP JUMPDEST PUSH1 0x0 DUP1 REVERT JUMPDEST CALLVALUE PUSH2 0x2D0 JUMPI PUSH1 0x20 CALLDATASIZE PUSH1 0x3 NOT ADD SLT PUSH2 0x2D0 JUMPI PUSH2 0x2EE PUSH2 0x24DE JUMP JUMPDEST PUSH2 0x2F6 PUSH2 0x2617 JUMP JUMPDEST PUSH1 0x1 PUSH1 0x1 PUSH1 0xA0 SHL SUB SWAP1 DUP2 AND SWAP1 DUP2 ISZERO PUSH2 0x34A JUMPI PUSH1 0x1 SLOAD DUP3 PUSH12 0xFFFFFFFFFFFFFFFFFFFFFFFF PUSH1 0xA0 SHL DUP3 AND OR PUSH1 0x1 SSTORE AND PUSH32 0x8BE0079C531659141344CD1FD0A4F28419497F9722A3DAAFE3B4186F6B6457E0 PUSH1 0x0 DUP1 LOG3 STOP JUMPDEST PUSH1 0x40 MLOAD PUSH3 0x461BCD PUSH1 0xE5 SHL DUP2 MSTORE PUSH1 0x20 PUSH1 0x4 DUP3 ADD MSTORE PUSH1 0x26 PUSH1 0x24 DUP3 ADD MSTORE PUSH32 0x4F776E61626C653A206E6577206F776E657220697320746865207A65726F2061 PUSH1 0x44 DUP3 ADD MSTORE PUSH6 0x646472657373 PUSH1 0xD0 SHL PUSH1 0x64 DUP3 ADD MSTORE PUSH1 0x84 SWAP1 REVERT JUMPDEST CALLVALUE PUSH2 0x2D0 JUMPI PUSH2 0x3AC CALLDATASIZE PUSH2 0x2328 JUMP JUMPDEST DUP1 ISZERO ISZERO DUP1 PUSH2 0x483 JUMPI JUMPDEST PUSH2 0x3BE SWAP1 PUSH2 0x27A1 JUMP JUMPDEST DUP2 PUSH1 0x0 MSTORE PUSH1 0x3 PUSH1 0x20 MSTORE PUSH1 0x40 PUSH1 0x0 KECCAK256 DUP2 PUSH1 0x0 MSTORE PUSH1 0x20 MSTORE PUSH1 0x40 PUSH1 0x0 KECCAK256 PUSH1 0xFF PUSH1 0x7 DUP3 ADD SLOAD AND PUSH1 0x6 DUP2 LT ISZERO PUSH2 0x46D JUMPI PUSH2 0x406 SWAP2 PUSH2 0x3FB PUSH1 0x1 PUSH1 0x6 SWAP4 EQ PUSH2 0x28B7 JUMP JUMPDEST ADD SLOAD PUSH1 0xC SLOAD SWAP1 PUSH2 0x26CA JUMP JUMPDEST TIMESTAMP LT PUSH2 0x415 JUMPI PUSH2 0x1B SWAP2 PUSH2 0x29F0 JUMP JUMPDEST PUSH1 0x40 MLOAD PUSH3 0x461BCD PUSH1 0xE5 SHL DUP2 MSTORE PUSH1 0x20 PUSH1 0x4 DUP3 ADD MSTORE PUSH1 0x2A PUSH1 0x24 DUP3 ADD MSTORE PUSH32 0x4D696C6573746F6E654D616E616765723A20766F74696E672077696E646F7720 PUSH1 0x44 DUP3 ADD MSTORE PUSH10 0x39BA34B6361037B832B7 PUSH1 0xB1 SHL PUSH1 0x64 DUP3 ADD MSTORE PUSH1 0x84 SWAP1 REVERT JUMPDEST PUSH4 0x4E487B71 PUSH1 0xE0 SHL PUSH1 0x0 MSTORE PUSH1 0x21 PUSH1 0x4 MSTORE PUSH1 0x24 PUSH1 0x0 REVERT JUMPDEST POP PUSH1 0x0 DUP3 DUP2 MSTORE PUSH1 0x4 PUSH1 0x20 MSTORE PUSH1 0x40 SWAP1 KECCAK256 SLOAD DUP2 GT ISZERO PUSH2 0x3B5 JUMP JUMPDEST CALLVALUE PUSH2 0x2D0 JUMPI PUSH1 0x0 CALLDATASIZE PUSH1 0x3 NOT ADD SLT PUSH2 0x2D0 JUMPI PUSH1 0x20 PUSH1 0xC SLOAD PUSH1 0x40 MLOAD SWAP1 DUP2 MSTORE RETURN JUMPDEST CALLVALUE PUSH2 0x2D0 JUMPI PUSH1 0x0 CALLDATASIZE PUSH1 0x3 NOT ADD SLT PUSH2 0x2D0 JUMPI PUSH1 0x20 PUSH1 0xB SLOAD PUSH1 0x40 MLOAD SWAP1 DUP2 MSTORE RETURN JUMPDEST CALLVALUE PUSH2 0x2D0 JUMPI PUSH2 0x4E5 CALLDATASIZE PUSH2 0x24F4 JUMP JUMPDEST SWAP2 PUSH1 0x0 MSTORE PUSH1 0x9 PUSH1 0x20 MSTORE PUSH1 0x40 PUSH1 0x0 KECCAK256 SWAP1 PUSH1 0x0 MSTORE PUSH1 0x20 MSTORE PUSH1 0x40 PUSH1 0x0 KECCAK256 SWAP1 PUSH1 0x1 DUP1 PUSH1 0xA0 SHL SUB AND PUSH1 0x0 MSTORE PUSH1 0x20 MSTORE PUSH1 0x60 PUSH1 0x40 PUSH1 0x0 KECCAK256 PUSH1 0x1 DUP2 SLOAD SWAP2 ADD SLOAD PUSH1 0xFF PUSH1 0x40 MLOAD SWAP3 DUP2 DUP2 AND ISZERO ISZERO DUP5 MSTORE PUSH1 0x8 SHR AND ISZERO ISZERO PUSH1 0x20 DUP4 ADD MSTORE PUSH1 0x40 DUP3 ADD MSTORE RETURN JUMPDEST CALLVALUE PUSH2 0x2D0 JUMPI PUSH2 0x549 CALLDATASIZE PUSH2 0x2328 JUMP JUMPDEST SWAP1 DUP1 PUSH1 0x0 MSTORE PUSH1 0x20 PUSH1 0x5 DUP2 MSTORE PUSH1 0x1 DUP1 PUSH1 0xA0 SHL SUB SWAP1 PUSH2 0x56E DUP3 PUSH1 0x40 PUSH1 0x0 KECCAK256 SLOAD AND CALLER EQ PUSH2 0x266F JUMP JUMPDEST DUP4 ISZERO ISZERO DUP1 PUSH2 0x6E0 JUMPI JUMPDEST PUSH2 0x580 SWAP1 PUSH2 0x27A1 JUMP JUMPDEST PUSH2 0x588 PUSH2 0x2806 JUMP JUMPDEST DUP3 PUSH1 0x0 MSTORE PUSH1 0x3 DUP2 MSTORE PUSH1 0x40 PUSH1 0x0 KECCAK256 DUP5 PUSH1 0x0 MSTORE DUP2 MSTORE PUSH1 0x40 PUSH1 0x0 KECCAK256 PUSH1 0xD DUP2 ADD DUP1 SLOAD PUSH1 0xFF DUP2 AND PUSH2 0x690 JUMPI PUSH1 0x7 DUP4 ADD SWAP2 DUP3 SLOAD SWAP1 PUSH1 0xFF DUP3 AND PUSH1 0x6 DUP2 LT ISZERO PUSH2 0x46D JUMPI PUSH1 0x2 SUB PUSH2 0x64B JUMPI PUSH1 0x0 SWAP5 DUP6 SWAP5 PUSH1 0x4 DUP7 SWAP6 DUP7 SWAP6 PUSH1 0x5 SWAP6 PUSH1 0x1 PUSH1 0xFF NOT DUP1 SWAP5 AND OR SWAP1 SSTORE AND OR SWAP1 SSTORE ADD SLOAD DUP1 SWAP7 DUP9 DUP4 MSTORE PUSH1 0x5 DUP8 MSTORE PUSH1 0x40 DUP4 KECCAK256 SLOAD AND DUP3 DUP3 ISZERO PUSH2 0x642 JUMPI JUMPDEST CALL ISZERO PUSH2 0x636 JUMPI PUSH32 0xD33FCD27CBFB73A2D9058C968B560CCB306500BF536133802048489ECC7355E9 SWAP2 PUSH1 0x40 MLOAD SWAP1 DUP2 MSTORE LOG3 PUSH1 0x1 PUSH1 0x0 SSTORE STOP JUMPDEST PUSH1 0x40 MLOAD RETURNDATASIZE PUSH1 0x0 DUP3 RETURNDATACOPY RETURNDATASIZE SWAP1 REVERT JUMPDEST POP PUSH2 0x8FC PUSH2 0x600 JUMP JUMPDEST PUSH1 0x40 MLOAD PUSH3 0x461BCD PUSH1 0xE5 SHL DUP2 MSTORE PUSH1 0x4 DUP2 ADD DUP8 SWAP1 MSTORE PUSH1 0x1E PUSH1 0x24 DUP3 ADD MSTORE PUSH32 0x4D696C6573746F6E654D616E616765723A206E6F7420617070726F7665640000 PUSH1 0x44 DUP3 ADD MSTORE PUSH1 0x64 SWAP1 REVERT JUMPDEST PUSH1 0x40 MLOAD PUSH3 0x461BCD PUSH1 0xE5 SHL DUP2 MSTORE PUSH1 0x4 DUP2 ADD DUP6 SWAP1 MSTORE PUSH1 0x22 PUSH1 0x24 DUP3 ADD MSTORE PUSH32 0x4D696C6573746F6E654D616E616765723A20616C72656164792072656C656173 PUSH1 0x44 DUP3 ADD MSTORE PUSH2 0x1959 PUSH1 0xF2 SHL PUSH1 0x64 DUP3 ADD MSTORE PUSH1 0x84 SWAP1 REVERT JUMPDEST POP PUSH1 0x0 DUP4 DUP2 MSTORE PUSH1 0x4 DUP3 MSTORE PUSH1 0x40 SWAP1 KECCAK256 SLOAD DUP5 GT ISZERO PUSH2 0x577 JUMP JUMPDEST CALLVALUE PUSH2 0x2D0 JUMPI PUSH1 0x0 CALLDATASIZE PUSH1 0x3 NOT ADD SLT PUSH2 0x2D0 JUMPI PUSH1 0x20 PUSH1 0xA SLOAD PUSH1 0x40 MLOAD SWAP1 DUP2 MSTORE RETURN JUMPDEST CALLVALUE PUSH2 0x2D0 JUMPI PUSH1 0x80 CALLDATASIZE PUSH1 0x3 NOT ADD SLT PUSH2 0x2D0 JUMPI PUSH1 0x24 DUP1 CALLDATALOAD PUSH1 0x4 CALLDATALOAD PUSH1 0x1 PUSH1 0x1 PUSH1 0x40 SHL SUB PUSH1 0x44 CALLDATALOAD DUP2 DUP2 GT PUSH2 0x2D0 JUMPI PUSH2 0x74D SWAP1 CALLDATASIZE SWAP1 PUSH1 0x4 ADD PUSH2 0x251E JUMP JUMPDEST SWAP1 SWAP2 PUSH1 0x64 CALLDATALOAD DUP2 DUP2 GT PUSH2 0x2D0 JUMPI PUSH2 0x767 SWAP1 CALLDATASIZE SWAP1 PUSH1 0x4 ADD PUSH2 0x251E JUMP JUMPDEST SWAP2 DUP6 PUSH1 0x0 MSTORE PUSH1 0x20 SWAP8 PUSH1 0x5 DUP10 MSTORE PUSH2 0x78B PUSH1 0x1 DUP1 PUSH1 0xA0 SHL SUB PUSH1 0x40 PUSH1 0x0 KECCAK256 SLOAD AND CALLER EQ PUSH2 0x266F JUMP JUMPDEST DUP8 ISZERO ISZERO DUP1 PUSH2 0xADA JUMPI JUMPDEST PUSH2 0x79D SWAP1 PUSH2 0x27A1 JUMP JUMPDEST DUP7 PUSH1 0x0 MSTORE PUSH1 0x3 DUP10 MSTORE PUSH1 0x40 PUSH1 0x0 KECCAK256 DUP9 PUSH1 0x0 MSTORE DUP10 MSTORE PUSH1 0x40 PUSH1 0x0 KECCAK256 SWAP1 PUSH1 0x7 DUP3 ADD SWAP2 DUP3 SLOAD SWAP3 PUSH1 0xFF DUP5 AND PUSH1 0x6 DUP2 LT ISZERO PUSH2 0xAC5 JUMPI PUSH2 0xA69 JUMPI DUP8 ISZERO DUP1 ISZERO SWAP1 PUSH2 0xA60 JUMPI JUMPDEST ISZERO PUSH2 0xA0C JUMPI PUSH1 0x1 DUP1 SWAP5 PUSH1 0xFF NOT AND OR SWAP1 SSTORE PUSH1 0x8 DUP2 ADD DUP5 DUP9 GT PUSH2 0x9F7 JUMPI PUSH2 0x808 DUP9 PUSH2 0x802 DUP4 SLOAD PUSH2 0x233E JUMP JUMPDEST DUP4 PUSH2 0x272C JUMP JUMPDEST DUP8 PUSH1 0x0 DUP14 PUSH1 0x1F DUP4 GT PUSH1 0x1 EQ PUSH2 0x988 JUMPI POP SWAP1 PUSH1 0x9 SWAP4 SWAP3 SWAP2 PUSH1 0x0 SWAP2 PUSH2 0x97D JUMPI JUMPDEST POP PUSH1 0x0 NOT PUSH1 0x3 DUP12 SWAP1 SHL SHR NOT AND DUP10 DUP7 SHL OR SWAP1 SSTORE JUMPDEST ADD SWAP3 DUP6 GT PUSH2 0x969 JUMPI POP PUSH2 0x856 DUP5 PUSH2 0x850 DUP5 SLOAD PUSH2 0x233E JUMP JUMPDEST DUP5 PUSH2 0x272C JUMP JUMPDEST PUSH1 0x0 PUSH1 0x1F DUP6 GT PUSH1 0x1 EQ PUSH2 0x8DE JUMPI SWAP2 DUP5 DUP1 PUSH32 0xACEFA0F349F716AD6ED6168191EF3CE7FA814C240F96E4299B6508550FFCB820 SWAP10 SWAP11 SWAP12 SWAP6 SWAP4 PUSH2 0x8CE SWAP8 SWAP6 PUSH1 0x0 SWAP4 PUSH2 0x8D3 JUMPI JUMPDEST POP SHL SWAP1 PUSH1 0x0 NOT DUP6 PUSH1 0x3 SHL SHR NOT AND OR SWAP1 SSTORE JUMPDEST PUSH2 0x8C1 PUSH1 0x40 MLOAD SWAP7 DUP8 SWAP7 PUSH1 0x40 DUP9 MSTORE PUSH1 0x40 DUP9 ADD SWAP2 PUSH2 0x2780 JUMP JUMPDEST SWAP3 DUP6 DUP5 SUB SWAP1 DUP7 ADD MSTORE PUSH2 0x2780 JUMP JUMPDEST SUB SWAP1 LOG3 STOP JUMPDEST DUP6 ADD CALLDATALOAD SWAP3 POP DUP14 PUSH2 0x899 JUMP JUMPDEST PUSH1 0x1F NOT DUP6 AND SWAP1 DUP4 PUSH1 0x0 MSTORE DUP11 PUSH1 0x0 KECCAK256 SWAP2 PUSH1 0x0 JUMPDEST DUP2 DUP2 LT PUSH2 0x954 JUMPI POP SWAP2 PUSH32 0xACEFA0F349F716AD6ED6168191EF3CE7FA814C240F96E4299B6508550FFCB820 SWAP10 SWAP11 SWAP12 SWAP6 SWAP4 SWAP2 DUP8 PUSH2 0x8CE SWAP9 SWAP7 SWAP5 LT PUSH2 0x93A JUMPI JUMPDEST POP POP DUP4 DUP2 SHL ADD SWAP1 SSTORE PUSH2 0x8AA JUMP JUMPDEST DUP5 ADD CALLDATALOAD PUSH1 0x0 NOT PUSH1 0x3 DUP8 SWAP1 SHL PUSH1 0xF8 AND SHR NOT AND SWAP1 SSTORE DUP12 DUP1 PUSH2 0x92D JUMP JUMPDEST DUP7 DUP4 ADD CALLDATALOAD DUP5 SSTORE SWAP3 DUP5 ADD SWAP3 SWAP2 DUP13 ADD SWAP2 DUP13 ADD PUSH2 0x8F0 JUMP JUMPDEST PUSH4 0x4E487B71 PUSH1 0xE0 SHL PUSH1 0x0 SWAP1 DUP2 MSTORE PUSH1 0x41 PUSH1 0x4 MSTORE REVERT JUMPDEST SWAP1 POP DUP11 ADD CALLDATALOAD DUP15 PUSH2 0x826 JUMP JUMPDEST SWAP1 DUP12 SWAP5 SWAP4 SWAP3 PUSH1 0x1F NOT DUP2 AND DUP5 PUSH1 0x0 MSTORE DUP4 PUSH1 0x0 KECCAK256 SWAP4 DUP10 PUSH1 0x0 SWAP9 JUMPDEST DUP4 DUP11 LT PUSH2 0x9DC JUMPI POP POP POP PUSH1 0x9 SWAP7 POP LT PUSH2 0x9C2 JUMPI JUMPDEST POP POP DUP5 DUP10 DUP2 SHL ADD SWAP1 SSTORE PUSH2 0x839 JUMP JUMPDEST DUP12 ADD CALLDATALOAD PUSH1 0x0 NOT PUSH1 0x3 DUP13 SWAP1 SHL PUSH1 0xF8 AND SHR NOT AND SWAP1 SSTORE DUP14 DUP1 PUSH2 0x9B4 JUMP JUMPDEST DUP6 ADD CALLDATALOAD DUP7 SSTORE SWAP8 DUP2 ADD SWAP8 SWAP1 SWAP5 ADD SWAP4 SWAP3 DUP4 ADD SWAP3 DUP14 SWAP3 POP DUP10 DUP16 PUSH2 0x9A0 JUMP JUMPDEST DUP3 PUSH4 0x4E487B71 PUSH1 0xE0 SHL PUSH1 0x0 MSTORE PUSH1 0x41 PUSH1 0x4 MSTORE PUSH1 0x0 REVERT JUMPDEST PUSH1 0x40 MLOAD PUSH3 0x461BCD PUSH1 0xE5 SHL DUP2 MSTORE PUSH1 0x4 DUP2 ADD DUP14 SWAP1 MSTORE PUSH1 0x27 DUP2 DUP6 ADD MSTORE PUSH32 0x4D696C6573746F6E654D616E616765723A206D7573742070726F766964652065 PUSH1 0x44 DUP3 ADD MSTORE PUSH7 0x766964656E6365 PUSH1 0xC8 SHL PUSH1 0x64 DUP3 ADD MSTORE PUSH1 0x84 SWAP1 REVERT JUMPDEST POP DUP7 ISZERO ISZERO PUSH2 0x7D9 JUMP JUMPDEST PUSH1 0x40 MLOAD PUSH3 0x461BCD PUSH1 0xE5 SHL DUP2 MSTORE PUSH1 0x4 DUP2 ADD DUP14 SWAP1 MSTORE PUSH1 0x2F DUP2 DUP6 ADD MSTORE PUSH32 0x4D696C6573746F6E654D616E616765723A20616C7265616479207375626D6974 PUSH1 0x44 DUP3 ADD MSTORE PUSH15 0x1D1959081BDC881C995CDBDB1D9959 PUSH1 0x8A SHL PUSH1 0x64 DUP3 ADD MSTORE PUSH1 0x84 SWAP1 REVERT JUMPDEST DUP4 PUSH4 0x4E487B71 PUSH1 0xE0 SHL PUSH1 0x0 MSTORE PUSH1 0x21 PUSH1 0x4 MSTORE PUSH1 0x0 REVERT JUMPDEST POP PUSH1 0x0 DUP8 DUP2 MSTORE PUSH1 0x4 DUP11 MSTORE PUSH1 0x40 SWAP1 KECCAK256 SLOAD DUP9 GT ISZERO PUSH2 0x794 JUMP JUMPDEST CALLVALUE PUSH2 0x2D0 JUMPI PUSH1 0x20 CALLDATASIZE PUSH1 0x3 NOT ADD SLT PUSH2 0x2D0 JUMPI PUSH1 0x4 CALLDATALOAD PUSH1 0x0 MSTORE PUSH1 0x5 PUSH1 0x20 MSTORE PUSH1 0x20 PUSH1 0x1 DUP1 PUSH1 0xA0 SHL SUB PUSH1 0x40 PUSH1 0x0 KECCAK256 SLOAD AND PUSH1 0x40 MLOAD SWAP1 DUP2 MSTORE RETURN JUMPDEST CALLVALUE PUSH2 0x2D0 JUMPI PUSH1 0x20 CALLDATASIZE PUSH1 0x3 NOT ADD SLT PUSH2 0x2D0 JUMPI PUSH1 0x4 CALLDATALOAD PUSH1 0x0 MSTORE PUSH1 0x6 PUSH1 0x20 MSTORE PUSH1 0x20 PUSH1 0x40 PUSH1 0x0 KECCAK256 SLOAD PUSH1 0x40 MLOAD SWAP1 DUP2 MSTORE RETURN JUMPDEST CALLVALUE PUSH2 0x2D0 JUMPI PUSH1 0x20 CALLDATASIZE PUSH1 0x3 NOT ADD SLT PUSH2 0x2D0 JUMPI PUSH1 0x4 CALLDATALOAD PUSH1 0x0 MSTORE PUSH1 0x7 PUSH1 0x20 MSTORE PUSH1 0x20 PUSH1 0x40 PUSH1 0x0 KECCAK256 SLOAD PUSH1 0x40 MLOAD SWAP1 DUP2 MSTORE RETURN JUMPDEST CALLVALUE PUSH2 0x2D0 JUMPI PUSH1 0x0 CALLDATASIZE PUSH1 0x3 NOT ADD SLT PUSH2 0x2D0 JUMPI PUSH1 0x2 SLOAD PUSH1 0x40 MLOAD PUSH1 0x1 PUSH1 0x1 PUSH1 0xA0 SHL SUB SWAP1 SWAP2 AND DUP2 MSTORE PUSH1 0x20 SWAP1 RETURN JUMPDEST CALLVALUE PUSH2 0x2D0 JUMPI PUSH2 0xBB4 CALLDATASIZE PUSH2 0x24F4 JUMP JUMPDEST SWAP2 PUSH1 0x0 MSTORE PUSH1 0x8 PUSH1 0x20 MSTORE PUSH1 0x40 PUSH1 0x0 KECCAK256 SWAP1 PUSH1 0x0 MSTORE PUSH1 0x20 MSTORE PUSH1 0x40 PUSH1 0x0 KECCAK256 SWAP1 PUSH1 0x1 DUP1 PUSH1 0xA0 SHL SUB AND PUSH1 0x0 MSTORE PUSH1 0x20 MSTORE PUSH1 0x20 PUSH1 0x40 PUSH1 0x0 KECCAK256 SLOAD PUSH1 0x40 MLOAD SWAP1 DUP2 MSTORE RETURN JUMPDEST CALLVALUE PUSH2 0x2D0 JUMPI PUSH1 0x60 CALLDATASIZE PUSH1 0x3 NOT ADD SLT PUSH2 0x2D0 JUMPI PUSH1 0x44 CALLDATALOAD PUSH1 0x24 CALLDATALOAD PUSH1 0x4 CALLDATALOAD DUP3 ISZERO ISZERO DUP1 DUP5 SUB PUSH2 0x2D0 JUMPI DUP3 ISZERO ISZERO DUP1 PUSH2 0xE1F JUMPI JUMPDEST PUSH2 0xC23 SWAP1 PUSH2 0x27A1 JUMP JUMPDEST DUP2 PUSH1 0x0 MSTORE PUSH1 0x20 PUSH1 0x3 DUP2 MSTORE PUSH1 0x40 PUSH1 0x0 KECCAK256 DUP5 PUSH1 0x0 MSTORE DUP2 MSTORE PUSH1 0x40 PUSH1 0x0 KECCAK256 SWAP1 DUP4 PUSH1 0x0 MSTORE PUSH1 0x8 DUP2 MSTORE PUSH1 0x40 PUSH1 0x0 KECCAK256 DUP6 PUSH1 0x0 MSTORE DUP2 MSTORE PUSH1 0x40 PUSH1 0x0 KECCAK256 CALLER PUSH1 0x0 MSTORE DUP2 MSTORE PUSH1 0x40 PUSH1 0x0 KECCAK256 SLOAD SWAP2 DUP3 ISZERO PUSH2 0xDC3 JUMPI DUP5 PUSH1 0x0 MSTORE PUSH1 0x9 DUP3 MSTORE PUSH1 0x40 PUSH1 0x0 KECCAK256 DUP7 PUSH1 0x0 MSTORE DUP3 MSTORE PUSH1 0x40 PUSH1 0x0 KECCAK256 CALLER PUSH1 0x0 MSTORE DUP3 MSTORE PUSH1 0x40 PUSH1 0x0 KECCAK256 SWAP7 DUP8 SLOAD PUSH1 0xFF DUP2 AND PUSH2 0xD7E JUMPI PUSH1 0xFF PUSH1 0x7 DUP5 ADD SLOAD AND PUSH1 0x6 DUP2 LT ISZERO PUSH2 0x46D JUMPI PUSH1 0x1 SUB PUSH2 0xD2F JUMPI PUSH1 0x1 PUSH2 0x1B SWAP10 DUP2 DUP8 SWAP4 PUSH2 0xFF00 DUP11 PUSH1 0x8 SHL AND SWAP1 PUSH2 0xFFFF NOT AND OR OR DUP2 SSTORE ADD SSTORE PUSH1 0x0 EQ PUSH2 0xD1A JUMPI PUSH1 0xA ADD PUSH2 0xCE1 DUP4 DUP3 SLOAD PUSH2 0x26CA JUMP JUMPDEST SWAP1 SSTORE JUMPDEST PUSH1 0x40 MLOAD SWAP3 DUP4 MSTORE DUP3 ADD MSTORE DUP3 DUP3 PUSH32 0xC4034C86715A9B37C41BD89FDABB308D4CC0F2ACA4A22EB6B311492FEFDAD743 PUSH1 0x40 CALLER SWAP5 LOG4 PUSH2 0x2927 JUMP JUMPDEST PUSH1 0xB ADD PUSH2 0xD28 DUP4 DUP3 SLOAD PUSH2 0x26CA JUMP JUMPDEST SWAP1 SSTORE PUSH2 0xCE4 JUMP JUMPDEST PUSH1 0x40 MLOAD PUSH3 0x461BCD PUSH1 0xE5 SHL DUP2 MSTORE PUSH1 0x4 DUP2 ADD DUP6 SWAP1 MSTORE PUSH1 0x21 PUSH1 0x24 DUP3 ADD MSTORE PUSH32 0x4D696C6573746F6E654D616E616765723A20766F74696E67206E6F74206F7065 PUSH1 0x44 DUP3 ADD MSTORE PUSH1 0x37 PUSH1 0xF9 SHL PUSH1 0x64 DUP3 ADD MSTORE PUSH1 0x84 SWAP1 REVERT JUMPDEST PUSH1 0x40 MLOAD PUSH3 0x461BCD PUSH1 0xE5 SHL DUP2 MSTORE PUSH1 0x4 DUP2 ADD DUP6 SWAP1 MSTORE PUSH1 0x1F PUSH1 0x24 DUP3 ADD MSTORE PUSH32 0x4D696C6573746F6E654D616E616765723A20616C726561647920766F74656400 PUSH1 0x44 DUP3 ADD MSTORE PUSH1 0x64 SWAP1 REVERT JUMPDEST PUSH1 0x40 MLOAD PUSH3 0x461BCD PUSH1 0xE5 SHL DUP2 MSTORE PUSH1 0x4 DUP2 ADD DUP4 SWAP1 MSTORE PUSH1 0x2E PUSH1 0x24 DUP3 ADD MSTORE PUSH32 0x4D696C6573746F6E654D616E616765723A206E6F20636F6E747269627574696F PUSH1 0x44 DUP3 ADD MSTORE PUSH14 0xDC40E8DE40ECDEE8CA40EED2E8D PUSH1 0x93 SHL PUSH1 0x64 DUP3 ADD MSTORE PUSH1 0x84 SWAP1 REVERT JUMPDEST POP PUSH1 0x0 DUP3 DUP2 MSTORE PUSH1 0x4 PUSH1 0x20 MSTORE PUSH1 0x40 SWAP1 KECCAK256 SLOAD DUP4 GT ISZERO PUSH2 0xC1A JUMP JUMPDEST CALLVALUE PUSH2 0x2D0 JUMPI PUSH2 0xE45 CALLDATASIZE PUSH2 0x2328 JUMP JUMPDEST SWAP1 PUSH2 0xE4E PUSH2 0x2B16 JUMP JUMPDEST POP DUP2 ISZERO ISZERO DUP1 PUSH2 0xE9D JUMPI JUMPDEST PUSH2 0xE61 SWAP1 PUSH2 0x27A1 JUMP JUMPDEST PUSH1 0x0 MSTORE PUSH1 0x3 PUSH1 0x20 MSTORE PUSH1 0x40 PUSH1 0x0 KECCAK256 SWAP1 PUSH1 0x0 MSTORE PUSH1 0x20 MSTORE PUSH2 0xE99 PUSH2 0xE85 PUSH1 0x40 PUSH1 0x0 KECCAK256 PUSH2 0x2B81 JUMP JUMPDEST PUSH1 0x40 MLOAD SWAP2 DUP3 SWAP2 PUSH1 0x20 DUP4 MSTORE PUSH1 0x20 DUP4 ADD SWAP1 PUSH2 0x254B JUMP JUMPDEST SUB SWAP1 RETURN JUMPDEST POP PUSH1 0x0 DUP2 DUP2 MSTORE PUSH1 0x4 PUSH1 0x20 MSTORE PUSH1 0x40 SWAP1 KECCAK256 SLOAD DUP3 GT ISZERO PUSH2 0xE58 JUMP JUMPDEST CALLVALUE PUSH2 0x2D0 JUMPI PUSH1 0xA0 CALLDATASIZE PUSH1 0x3 NOT ADD SLT PUSH2 0x2D0 JUMPI PUSH1 0x24 CALLDATALOAD PUSH1 0x1 PUSH1 0x1 PUSH1 0x40 SHL SUB DUP2 GT PUSH2 0x2D0 JUMPI PUSH2 0xEE5 SWAP1 CALLDATASIZE SWAP1 PUSH1 0x4 ADD PUSH2 0x251E JUMP JUMPDEST PUSH1 0x44 CALLDATALOAD PUSH1 0x1 PUSH1 0x1 PUSH1 0x40 SHL SUB DUP2 GT PUSH2 0x2D0 JUMPI PUSH2 0xF04 SWAP1 CALLDATASIZE SWAP1 PUSH1 0x4 ADD PUSH2 0x251E JUMP JUMPDEST SWAP3 SWAP1 SWAP2 PUSH1 0x4 CALLDATALOAD PUSH1 0x0 MSTORE PUSH1 0x5 PUSH1 0x20 MSTORE PUSH2 0xF2A PUSH1 0x1 DUP1 PUSH1 0xA0 SHL SUB PUSH1 0x40 PUSH1 0x0 KECCAK256 SLOAD AND CALLER EQ PUSH2 0x266F JUMP JUMPDEST PUSH1 0x64 CALLDATALOAD ISZERO PUSH2 0x160B JUMPI PUSH1 0x84 CALLDATALOAD ISZERO PUSH2 0x15B7 JUMPI DUP1 ISZERO PUSH2 0x1572 JUMPI PUSH1 0x4 CALLDATALOAD PUSH1 0x0 MSTORE PUSH1 0x7 PUSH1 0x20 MSTORE PUSH2 0xF5C PUSH1 0x64 CALLDATALOAD PUSH1 0x40 PUSH1 0x0 KECCAK256 SLOAD PUSH2 0x26CA JUMP JUMPDEST PUSH1 0x4 CALLDATALOAD PUSH1 0x0 MSTORE PUSH1 0x6 PUSH1 0x20 MSTORE PUSH1 0x40 PUSH1 0x0 KECCAK256 SLOAD DUP2 GT PUSH2 0x1507 JUMPI PUSH1 0x4 CALLDATALOAD PUSH1 0x0 MSTORE PUSH1 0x7 PUSH1 0x20 MSTORE PUSH1 0x40 PUSH1 0x0 KECCAK256 SSTORE PUSH1 0x4 PUSH1 0x20 MSTORE PUSH1 0x40 PUSH1 0x0 KECCAK256 PUSH2 0xF98 DUP2 SLOAD PUSH2 0x26D7 JUMP JUMPDEST SWAP1 SSTORE PUSH1 0x4 CALLDATALOAD PUSH1 0x0 MSTORE PUSH1 0x4 PUSH1 0x20 MSTORE PUSH1 0x40 PUSH1 0x0 KECCAK256 SLOAD SWAP3 PUSH2 0xFEB PUSH2 0xFBB PUSH1 0x84 CALLDATALOAD TIMESTAMP PUSH2 0x26CA JUMP JUMPDEST SWAP2 PUSH1 0x40 MLOAD SWAP7 PUSH2 0xFC9 DUP9 PUSH2 0x2393 JUMP JUMPDEST DUP7 DUP9 MSTORE PUSH1 0x4 CALLDATALOAD PUSH1 0x20 DUP10 ADD MSTORE PUSH2 0xFDF CALLDATASIZE DUP7 DUP9 PUSH2 0x26E6 JUMP JUMPDEST PUSH1 0x40 DUP10 ADD MSTORE CALLDATASIZE SWAP2 PUSH2 0x26E6 JUMP JUMPDEST PUSH1 0x60 DUP7 ADD MSTORE PUSH1 0x64 CALLDATALOAD PUSH1 0x80 DUP7 ADD MSTORE PUSH1 0x0 PUSH1 0xA0 DUP7 ADD MSTORE PUSH1 0xC0 DUP6 ADD MSTORE PUSH1 0x0 PUSH1 0xE0 DUP6 ADD MSTORE PUSH1 0x40 MLOAD PUSH2 0x1017 DUP2 PUSH2 0x23AF JUMP JUMPDEST PUSH1 0x0 DUP2 MSTORE PUSH2 0x100 DUP6 ADD MSTORE PUSH1 0x40 MLOAD PUSH2 0x102D DUP2 PUSH2 0x23AF JUMP JUMPDEST PUSH1 0x0 DUP2 MSTORE PUSH2 0x120 DUP6 ADD MSTORE PUSH1 0x0 PUSH2 0x140 DUP6 ADD MSTORE PUSH1 0x0 PUSH2 0x160 DUP6 ADD MSTORE PUSH1 0x0 PUSH2 0x180 DUP6 ADD MSTORE PUSH1 0x0 PUSH2 0x1A0 DUP6 ADD MSTORE PUSH1 0x4 CALLDATALOAD PUSH1 0x0 MSTORE PUSH1 0x3 PUSH1 0x20 MSTORE PUSH1 0x40 PUSH1 0x0 KECCAK256 DUP4 PUSH1 0x0 MSTORE PUSH1 0x20 MSTORE PUSH1 0x40 PUSH1 0x0 KECCAK256 SWAP4 DUP1 MLOAD DUP6 SSTORE PUSH1 0x20 DUP2 ADD MLOAD PUSH1 0x1 DUP7 ADD SSTORE PUSH1 0x40 DUP2 ADD MLOAD DUP1 MLOAD SWAP1 PUSH1 0x1 PUSH1 0x1 PUSH1 0x40 SHL SUB DUP3 GT PUSH2 0x137A JUMPI DUP2 SWAP1 PUSH2 0x10B4 DUP3 PUSH2 0x10AB PUSH1 0x2 DUP12 ADD SLOAD PUSH2 0x233E JUMP JUMPDEST PUSH1 0x2 DUP12 ADD PUSH2 0x272C JUMP JUMPDEST PUSH1 0x20 SWAP1 PUSH1 0x1F DUP4 GT PUSH1 0x1 EQ PUSH2 0x1495 JUMPI PUSH1 0x0 SWAP3 PUSH2 0x148A JUMPI JUMPDEST POP POP DUP2 PUSH1 0x1 SHL SWAP2 PUSH1 0x0 NOT SWAP1 PUSH1 0x3 SHL SHR NOT AND OR PUSH1 0x2 DUP7 ADD SSTORE JUMPDEST PUSH1 0x60 DUP2 ADD MLOAD DUP1 MLOAD SWAP1 PUSH1 0x1 PUSH1 0x1 PUSH1 0x40 SHL SUB DUP3 GT PUSH2 0x137A JUMPI DUP2 SWAP1 PUSH2 0x1114 DUP3 PUSH2 0x110B PUSH1 0x3 DUP12 ADD SLOAD PUSH2 0x233E JUMP JUMPDEST PUSH1 0x3 DUP12 ADD PUSH2 0x272C JUMP JUMPDEST PUSH1 0x20 SWAP1 PUSH1 0x1F DUP4 GT PUSH1 0x1 EQ PUSH2 0x1418 JUMPI PUSH1 0x0 SWAP3 PUSH2 0x140D JUMPI JUMPDEST POP POP DUP2 PUSH1 0x1 SHL SWAP2 PUSH1 0x0 NOT SWAP1 PUSH1 0x3 SHL SHR NOT AND OR PUSH1 0x3 DUP7 ADD SSTORE JUMPDEST PUSH1 0x80 DUP2 ADD MLOAD PUSH1 0x4 DUP7 ADD SSTORE PUSH1 0xA0 DUP2 ADD MLOAD PUSH1 0x5 DUP7 ADD SSTORE PUSH1 0xC0 DUP2 ADD MLOAD PUSH1 0x6 DUP7 ADD SSTORE PUSH1 0x7 DUP6 ADD PUSH1 0xE0 DUP3 ADD MLOAD PUSH1 0x6 DUP2 LT ISZERO PUSH2 0x46D JUMPI PUSH1 0xFF DUP1 NOT DUP4 SLOAD AND SWAP2 AND OR SWAP1 SSTORE PUSH2 0x100 DUP2 ADD MLOAD DUP1 MLOAD SWAP1 PUSH1 0x1 PUSH1 0x1 PUSH1 0x40 SHL SUB DUP3 GT PUSH2 0x137A JUMPI DUP2 SWAP1 PUSH2 0x11B1 DUP3 PUSH2 0x11A8 PUSH1 0x8 DUP12 ADD SLOAD PUSH2 0x233E JUMP JUMPDEST PUSH1 0x8 DUP12 ADD PUSH2 0x272C JUMP JUMPDEST PUSH1 0x20 SWAP1 PUSH1 0x1F DUP4 GT PUSH1 0x1 EQ PUSH2 0x139B JUMPI PUSH1 0x0 SWAP3 PUSH2 0x1390 JUMPI JUMPDEST POP POP DUP2 PUSH1 0x1 SHL SWAP2 PUSH1 0x0 NOT SWAP1 PUSH1 0x3 SHL SHR NOT AND OR PUSH1 0x8 DUP7 ADD SSTORE JUMPDEST PUSH2 0x120 DUP2 ADD MLOAD SWAP5 DUP6 MLOAD PUSH1 0x1 PUSH1 0x1 PUSH1 0x40 SHL SUB DUP2 GT PUSH2 0x137A JUMPI PUSH2 0x1210 DUP2 PUSH2 0x1207 PUSH1 0x9 DUP6 ADD SLOAD PUSH2 0x233E JUMP JUMPDEST PUSH1 0x9 DUP6 ADD PUSH2 0x272C JUMP JUMPDEST PUSH1 0x20 PUSH1 0x1F DUP3 GT PUSH1 0x1 EQ PUSH2 0x12E2 JUMPI SWAP2 DUP2 PUSH1 0xD SWAP3 PUSH2 0x1A0 SWAP5 PUSH32 0x7388B0A2D11E0575B753037E87C5C66B795CB79A842AB2CC7DBAAE43FF84E7DE SWAP9 SWAP10 SWAP11 PUSH1 0x0 SWAP3 PUSH2 0x12D7 JUMPI JUMPDEST POP POP DUP2 PUSH1 0x1 SHL SWAP2 PUSH1 0x0 NOT SWAP1 PUSH1 0x3 SHL SHR NOT AND OR PUSH1 0x9 DUP3 ADD SSTORE JUMPDEST PUSH2 0x140 DUP5 ADD MLOAD PUSH1 0xA DUP3 ADD SSTORE PUSH2 0x160 DUP5 ADD MLOAD PUSH1 0xB DUP3 ADD SSTORE PUSH2 0x180 DUP5 ADD MLOAD PUSH1 0xC DUP3 ADD SSTORE ADD SWAP2 ADD MLOAD ISZERO ISZERO PUSH1 0xFF DUP1 NOT DUP4 SLOAD AND SWAP2 AND OR SWAP1 SSTORE PUSH2 0x12BF PUSH2 0x12AC PUSH1 0x84 CALLDATALOAD TIMESTAMP PUSH2 0x26CA JUMP JUMPDEST SWAP4 PUSH1 0x40 MLOAD SWAP3 PUSH1 0x60 DUP5 MSTORE PUSH1 0x60 DUP5 ADD SWAP2 PUSH2 0x2780 JUMP JUMPDEST SWAP3 PUSH1 0x64 CALLDATALOAD PUSH1 0x20 DUP4 ADD MSTORE PUSH1 0x40 DUP3 ADD MSTORE DUP1 PUSH1 0x4 CALLDATALOAD SWAP4 SUB SWAP1 LOG3 STOP JUMPDEST ADD MLOAD SWAP1 POP DUP11 DUP1 PUSH2 0x1252 JUMP JUMPDEST PUSH1 0x9 DUP4 ADD PUSH1 0x0 MSTORE PUSH1 0x20 PUSH1 0x0 KECCAK256 SWAP8 PUSH1 0x0 JUMPDEST PUSH1 0x1F NOT DUP5 AND DUP2 LT PUSH2 0x1362 JUMPI POP DUP3 PUSH32 0x7388B0A2D11E0575B753037E87C5C66B795CB79A842AB2CC7DBAAE43FF84E7DE SWAP8 SWAP9 SWAP10 PUSH2 0x1A0 SWAP6 SWAP4 PUSH1 0x1 SWAP4 PUSH1 0xD SWAP7 PUSH1 0x1F NOT DUP2 AND LT PUSH2 0x1349 JUMPI JUMPDEST POP POP POP DUP2 SHL ADD PUSH1 0x9 DUP3 ADD SSTORE PUSH2 0x126A JUMP JUMPDEST ADD MLOAD PUSH1 0x0 NOT PUSH1 0xF8 DUP5 PUSH1 0x3 SHL AND SHR NOT AND SWAP1 SSTORE DUP11 DUP1 DUP1 PUSH2 0x1339 JUMP JUMPDEST DUP3 DUP3 ADD MLOAD DUP11 SSTORE PUSH1 0x1 SWAP1 SWAP10 ADD SWAP9 PUSH1 0x20 SWAP3 DUP4 ADD SWAP3 ADD PUSH2 0x12F2 JUMP JUMPDEST PUSH4 0x4E487B71 PUSH1 0xE0 SHL PUSH1 0x0 MSTORE PUSH1 0x41 PUSH1 0x4 MSTORE PUSH1 0x24 PUSH1 0x0 REVERT JUMPDEST ADD MLOAD SWAP1 POP DUP8 DUP1 PUSH2 0x11C7 JUMP JUMPDEST SWAP3 POP PUSH1 0x8 DUP9 ADD PUSH1 0x0 MSTORE PUSH1 0x20 PUSH1 0x0 KECCAK256 SWAP1 PUSH1 0x0 SWAP4 JUMPDEST PUSH1 0x1F NOT DUP5 AND DUP6 LT PUSH2 0x13F2 JUMPI PUSH1 0x1 SWAP5 POP DUP4 PUSH1 0x1F NOT DUP2 AND LT PUSH2 0x13D9 JUMPI JUMPDEST POP POP POP DUP2 SHL ADD PUSH1 0x8 DUP7 ADD SSTORE PUSH2 0x11DF JUMP JUMPDEST ADD MLOAD PUSH1 0x0 NOT PUSH1 0xF8 DUP5 PUSH1 0x3 SHL AND SHR NOT AND SWAP1 SSTORE DUP8 DUP1 DUP1 PUSH2 0x13C9 JUMP JUMPDEST DUP2 DUP2 ADD MLOAD DUP4 SSTORE PUSH1 0x20 SWAP5 DUP6 ADD SWAP5 PUSH1 0x1 SWAP1 SWAP4 ADD SWAP3 SWAP1 SWAP2 ADD SWAP1 PUSH2 0x13AE JUMP JUMPDEST ADD MLOAD SWAP1 POP DUP8 DUP1 PUSH2 0x112A JUMP JUMPDEST SWAP3 POP PUSH1 0x3 DUP9 ADD PUSH1 0x0 MSTORE PUSH1 0x20 PUSH1 0x0 KECCAK256 SWAP1 PUSH1 0x0 SWAP4 JUMPDEST PUSH1 0x1F NOT DUP5 AND DUP6 LT PUSH2 0x146F JUMPI PUSH1 0x1 SWAP5 POP DUP4 PUSH1 0x1F NOT DUP2 AND LT PUSH2 0x1456 JUMPI JUMPDEST POP POP POP DUP2 SHL ADD PUSH1 0x3 DUP7 ADD SSTORE PUSH2 0x1142 JUMP JUMPDEST ADD MLOAD PUSH1 0x0 NOT PUSH1 0xF8 DUP5 PUSH1 0x3 SHL AND SHR NOT AND SWAP1 SSTORE DUP8 DUP1 DUP1 PUSH2 0x1446 JUMP JUMPDEST DUP2 DUP2 ADD MLOAD DUP4 SSTORE PUSH1 0x20 SWAP5 DUP6 ADD SWAP5 PUSH1 0x1 SWAP1 SWAP4 ADD SWAP3 SWAP1 SWAP2 ADD SWAP1 PUSH2 0x142B JUMP JUMPDEST ADD MLOAD SWAP1 POP DUP8 DUP1 PUSH2 0x10CA JUMP JUMPDEST SWAP3 POP PUSH1 0x2 DUP9 ADD PUSH1 0x0 MSTORE PUSH1 0x20 PUSH1 0x0 KECCAK256 SWAP1 PUSH1 0x0 SWAP4 JUMPDEST PUSH1 0x1F NOT DUP5 AND DUP6 LT PUSH2 0x14EC JUMPI PUSH1 0x1 SWAP5 POP DUP4 PUSH1 0x1F NOT DUP2 AND LT PUSH2 0x14D3 JUMPI JUMPDEST POP POP POP DUP2 SHL ADD PUSH1 0x2 DUP7 ADD SSTORE PUSH2 0x10E2 JUMP JUMPDEST ADD MLOAD PUSH1 0x0 NOT PUSH1 0xF8 DUP5 PUSH1 0x3 SHL AND SHR NOT AND SWAP1 SSTORE DUP8 DUP1 DUP1 PUSH2 0x14C3 JUMP JUMPDEST DUP2 DUP2 ADD MLOAD DUP4 SSTORE PUSH1 0x20 SWAP5 DUP6 ADD SWAP5 PUSH1 0x1 SWAP1 SWAP4 ADD SWAP3 SWAP1 SWAP2 ADD SWAP1 PUSH2 0x14A8 JUMP JUMPDEST PUSH1 0x40 MLOAD PUSH3 0x461BCD PUSH1 0xE5 SHL DUP2 MSTORE PUSH1 0x20 PUSH1 0x4 DUP3 ADD MSTORE PUSH1 0x3E PUSH1 0x24 DUP3 ADD MSTORE PUSH32 0x4D696C6573746F6E654D616E616765723A206D696C6573746F6E652074617267 PUSH1 0x44 DUP3 ADD MSTORE PUSH32 0x65747320776F756C64206578636565642063616D706169676E20676F616C0000 PUSH1 0x64 DUP3 ADD MSTORE PUSH1 0x84 SWAP1 REVERT JUMPDEST PUSH1 0x40 MLOAD PUSH3 0x461BCD PUSH1 0xE5 SHL DUP2 MSTORE PUSH1 0x20 PUSH1 0x4 DUP3 ADD MSTORE PUSH1 0x1D PUSH1 0x24 DUP3 ADD MSTORE PUSH32 0x4D696C6573746F6E654D616E616765723A20656D707479207469746C65000000 PUSH1 0x44 DUP3 ADD MSTORE PUSH1 0x64 SWAP1 REVERT JUMPDEST PUSH1 0x40 MLOAD PUSH3 0x461BCD PUSH1 0xE5 SHL DUP2 MSTORE PUSH1 0x20 PUSH1 0x4 DUP3 ADD MSTORE PUSH1 0x26 PUSH1 0x24 DUP3 ADD MSTORE PUSH32 0x4D696C6573746F6E654D616E616765723A206475726174696F6E206D75737420 PUSH1 0x44 DUP3 ADD MSTORE PUSH6 0x6265203E203 PUSH1 0xD4 SHL PUSH1 0x64 DUP3 ADD MSTORE PUSH1 0x84 SWAP1 REVERT JUMPDEST PUSH1 0x40 MLOAD PUSH3 0x461BCD PUSH1 0xE5 SHL DUP2 MSTORE PUSH1 0x20 PUSH1 0x4 DUP3 ADD MSTORE PUSH1 0x24 DUP1 DUP3 ADD MSTORE PUSH32 0x4D696C6573746F6E654D616E616765723A20746172676574206D757374206265 PUSH1 0x44 DUP3 ADD MSTORE PUSH4 0x203E203 PUSH1 0xE4 SHL PUSH1 0x64 DUP3 ADD MSTORE PUSH1 0x84 SWAP1 REVERT JUMPDEST CALLVALUE PUSH2 0x2D0 JUMPI PUSH1 0x0 CALLDATASIZE PUSH1 0x3 NOT ADD SLT PUSH2 0x2D0 JUMPI PUSH1 0x1 SLOAD PUSH1 0x40 MLOAD PUSH1 0x1 PUSH1 0x1 PUSH1 0xA0 SHL SUB SWAP1 SWAP2 AND DUP2 MSTORE PUSH1 0x20 SWAP1 RETURN JUMPDEST CALLVALUE PUSH2 0x2D0 JUMPI PUSH1 0x60 CALLDATASIZE PUSH1 0x3 NOT ADD SLT PUSH2 0x2D0 JUMPI PUSH1 0x44 CALLDATALOAD PUSH1 0x24 CALLDATALOAD PUSH1 0x4 CALLDATALOAD PUSH2 0x16A7 PUSH2 0x2617 JUMP JUMPDEST PUSH2 0x2710 DUP1 DUP3 GT PUSH2 0x17A5 JUMPI DUP3 GT PUSH2 0x1755 JUMPI PUSH3 0x15180 DUP4 LT PUSH2 0x1705 JUMPI PUSH32 0xF2B4407BC29C4FA956DF36358492D43B143E2221B965F5244605DBF5D5545BCA SWAP3 PUSH1 0x60 SWAP3 DUP3 PUSH1 0xA SSTORE DUP1 PUSH1 0xB SSTORE DUP2 PUSH1 0xC SSTORE PUSH1 0x40 MLOAD SWAP3 DUP4 MSTORE PUSH1 0x20 DUP4 ADD MSTORE PUSH1 0x40 DUP3 ADD MSTORE LOG1 STOP JUMPDEST PUSH1 0x40 MLOAD PUSH3 0x461BCD PUSH1 0xE5 SHL DUP2 MSTORE PUSH1 0x20 PUSH1 0x4 DUP3 ADD MSTORE PUSH1 0x22 PUSH1 0x24 DUP3 ADD MSTORE PUSH32 0x4D696C6573746F6E654D616E616765723A2077696E646F7720746F6F2073686F PUSH1 0x44 DUP3 ADD MSTORE PUSH2 0x1C9D PUSH1 0xF2 SHL PUSH1 0x64 DUP3 ADD MSTORE PUSH1 0x84 SWAP1 REVERT JUMPDEST PUSH1 0x40 MLOAD PUSH3 0x461BCD PUSH1 0xE5 SHL DUP2 MSTORE PUSH1 0x20 PUSH1 0x4 DUP3 ADD MSTORE PUSH1 0x22 PUSH1 0x24 DUP3 ADD MSTORE PUSH32 0x4D696C6573746F6E654D616E616765723A207468726573686F6C64203E203130 PUSH1 0x44 DUP3 ADD MSTORE PUSH2 0x3025 PUSH1 0xF0 SHL PUSH1 0x64 DUP3 ADD MSTORE PUSH1 0x84 SWAP1 REVERT JUMPDEST PUSH1 0x40 MLOAD PUSH3 0x461BCD PUSH1 0xE5 SHL DUP2 MSTORE PUSH1 0x20 PUSH1 0x4 DUP3 ADD MSTORE PUSH1 0x1F PUSH1 0x24 DUP3 ADD MSTORE PUSH32 0x4D696C6573746F6E654D616E616765723A2071756F72756D203E203130302500 PUSH1 0x44 DUP3 ADD MSTORE PUSH1 0x64 SWAP1 REVERT JUMPDEST CALLVALUE PUSH2 0x2D0 JUMPI PUSH1 0x20 CALLDATASIZE PUSH1 0x3 NOT ADD SLT PUSH2 0x2D0 JUMPI PUSH1 0x4 CALLDATALOAD PUSH1 0x0 MSTORE PUSH1 0x4 PUSH1 0x20 MSTORE PUSH1 0x20 PUSH1 0x40 PUSH1 0x0 KECCAK256 SLOAD PUSH1 0x40 MLOAD SWAP1 DUP2 MSTORE RETURN JUMPDEST CALLVALUE PUSH2 0x2D0 JUMPI PUSH1 0x0 CALLDATASIZE PUSH1 0x3 NOT ADD SLT PUSH2 0x2D0 JUMPI PUSH2 0x182F PUSH2 0x2617 JUMP JUMPDEST PUSH1 0x1 DUP1 SLOAD PUSH1 0x1 PUSH1 0x1 PUSH1 0xA0 SHL SUB NOT DUP2 AND SWAP1 SWAP2 SSTORE PUSH1 0x0 SWAP1 PUSH1 0x1 PUSH1 0x1 PUSH1 0xA0 SHL SUB AND PUSH32 0x8BE0079C531659141344CD1FD0A4F28419497F9722A3DAAFE3B4186F6B6457E0 DUP3 DUP1 LOG3 STOP JUMPDEST CALLVALUE PUSH2 0x2D0 JUMPI PUSH2 0x1881 CALLDATASIZE PUSH2 0x2328 JUMP JUMPDEST SWAP1 PUSH2 0x1897 PUSH1 0x1 DUP1 PUSH1 0xA0 SHL SUB PUSH1 0x2 SLOAD AND CALLER EQ PUSH2 0x285C JUMP JUMPDEST DUP2 ISZERO ISZERO DUP1 PUSH2 0x1917 JUMPI JUMPDEST PUSH2 0x18A9 SWAP1 PUSH2 0x27A1 JUMP JUMPDEST DUP1 PUSH1 0x0 MSTORE PUSH1 0x3 PUSH1 0x20 MSTORE PUSH1 0x40 PUSH1 0x0 KECCAK256 DUP3 PUSH1 0x0 MSTORE PUSH1 0x20 MSTORE PUSH1 0x7 PUSH1 0x40 PUSH1 0x0 KECCAK256 ADD DUP1 SLOAD PUSH1 0xFF DUP2 AND SWAP1 PUSH1 0x6 DUP3 LT ISZERO PUSH2 0x46D JUMPI PUSH2 0x18E4 PUSH1 0x1 PUSH1 0x3 SWAP4 EQ PUSH2 0x28B7 JUMP JUMPDEST PUSH1 0xFF NOT AND OR SWAP1 SSTORE PUSH32 0x888C5547E7A66DEAAEEF7CC96FDF1B39154057815E8D0F702C46858D074E66A5 PUSH1 0x20 PUSH1 0x40 MLOAD CALLER DUP2 MSTORE LOG3 STOP JUMPDEST POP PUSH1 0x0 DUP2 DUP2 MSTORE PUSH1 0x4 PUSH1 0x20 MSTORE PUSH1 0x40 SWAP1 KECCAK256 SLOAD DUP3 GT ISZERO PUSH2 0x18A0 JUMP JUMPDEST CALLVALUE PUSH2 0x2D0 JUMPI PUSH1 0x20 CALLDATASIZE PUSH1 0x3 NOT ADD SLT PUSH2 0x2D0 JUMPI PUSH1 0x4 CALLDATALOAD PUSH1 0x0 MSTORE PUSH1 0x5 PUSH1 0x20 MSTORE PUSH1 0x20 PUSH1 0x1 DUP1 PUSH1 0xA0 SHL SUB PUSH1 0x40 PUSH1 0x0 KECCAK256 SLOAD AND ISZERO ISZERO PUSH1 0x40 MLOAD SWAP1 DUP2 MSTORE RETURN JUMPDEST CALLVALUE PUSH2 0x2D0 JUMPI PUSH1 0x60 PUSH2 0x1975 CALLDATASIZE PUSH2 0x24F4 JUMP JUMPDEST SWAP1 PUSH1 0x40 MLOAD SWAP3 PUSH2 0x1983 DUP5 PUSH2 0x2378 JUMP JUMPDEST PUSH1 0x0 DUP5 MSTORE PUSH1 0x0 PUSH1 0x40 PUSH1 0x20 SWAP6 DUP3 DUP8 DUP3 ADD MSTORE ADD MSTORE PUSH1 0x0 MSTORE PUSH1 0x9 DUP4 MSTORE PUSH1 0x40 PUSH1 0x0 KECCAK256 SWAP1 PUSH1 0x0 MSTORE DUP3 MSTORE PUSH1 0x40 PUSH1 0x0 KECCAK256 SWAP1 PUSH1 0x1 DUP1 PUSH1 0xA0 SHL SUB AND PUSH1 0x0 MSTORE DUP2 MSTORE PUSH1 0x40 PUSH1 0x0 KECCAK256 SWAP1 PUSH1 0x40 MLOAD SWAP1 PUSH2 0x19CD DUP3 PUSH2 0x2378 JUMP JUMPDEST DUP3 SLOAD PUSH1 0x40 PUSH1 0x1 PUSH1 0xFF DUP4 AND ISZERO ISZERO SWAP6 DUP7 DUP7 MSTORE PUSH1 0xFF DUP6 DUP8 ADD SWAP5 PUSH1 0x8 SHR AND ISZERO ISZERO DUP5 MSTORE ADD SLOAD SWAP4 ADD SWAP3 DUP4 MSTORE PUSH1 0x40 MLOAD SWAP4 DUP5 MSTORE MLOAD ISZERO ISZERO SWAP1 DUP4 ADD MSTORE MLOAD PUSH1 0x40 DUP3 ADD MSTORE RETURN JUMPDEST CALLVALUE PUSH2 0x2D0 JUMPI PUSH1 0x20 CALLDATASIZE PUSH1 0x3 NOT ADD SLT PUSH2 0x2D0 JUMPI PUSH2 0x1A20 PUSH2 0x24DE JUMP JUMPDEST PUSH2 0x1A28 PUSH2 0x2617 JUMP JUMPDEST PUSH1 0x1 PUSH1 0x1 PUSH1 0xA0 SHL SUB SWAP1 DUP2 AND SWAP1 DUP2 ISZERO PUSH2 0x1A76 JUMPI DUP2 PUSH1 0x2 SLOAD SWAP2 DUP3 AND PUSH32 0xD3AFD1676752459D3AA8B6F73633FAC8EFD724610DA9C4CD8D8E4FA1631841FB PUSH1 0x0 DUP1 LOG3 PUSH1 0x1 PUSH1 0x1 PUSH1 0xA0 SHL SUB NOT AND OR PUSH1 0x2 SSTORE STOP JUMPDEST PUSH1 0x40 MLOAD PUSH3 0x461BCD PUSH1 0xE5 SHL DUP2 MSTORE PUSH1 0x20 PUSH1 0x4 DUP3 ADD MSTORE PUSH1 0x1E PUSH1 0x24 DUP3 ADD MSTORE PUSH32 0x4D696C6573746F6E654D616E616765723A207A65726F20616464726573730000 PUSH1 0x44 DUP3 ADD MSTORE PUSH1 0x64 SWAP1 REVERT JUMPDEST CALLVALUE PUSH2 0x2D0 JUMPI PUSH2 0x1AC9 CALLDATASIZE PUSH2 0x2328 JUMP JUMPDEST SWAP1 DUP2 ISZERO ISZERO DUP1 PUSH2 0x1C78 JUMPI JUMPDEST PUSH2 0x1ADC SWAP1 PUSH2 0x27A1 JUMP JUMPDEST PUSH2 0x1AE4 PUSH2 0x2806 JUMP JUMPDEST DUP1 PUSH1 0x0 MSTORE PUSH1 0x20 PUSH1 0x3 DUP2 MSTORE PUSH1 0x40 PUSH1 0x0 KECCAK256 DUP4 PUSH1 0x0 MSTORE DUP2 MSTORE PUSH1 0x7 PUSH1 0x40 PUSH1 0x0 KECCAK256 ADD SWAP1 PUSH1 0xFF DUP3 SLOAD AND PUSH1 0x6 DUP2 LT ISZERO PUSH2 0x46D JUMPI PUSH1 0x3 DUP2 EQ SWAP1 DUP2 ISZERO PUSH2 0x1C6D JUMPI JUMPDEST POP ISZERO PUSH2 0x1C2A JUMPI DUP3 PUSH1 0x0 MSTORE PUSH1 0x8 DUP2 MSTORE PUSH1 0x40 PUSH1 0x0 KECCAK256 DUP5 PUSH1 0x0 MSTORE DUP2 MSTORE PUSH1 0x40 PUSH1 0x0 KECCAK256 CALLER PUSH1 0x0 MSTORE DUP2 MSTORE PUSH1 0x40 PUSH1 0x0 KECCAK256 SLOAD SWAP2 DUP3 ISZERO PUSH2 0x1BD9 JUMPI DUP4 PUSH1 0x0 MSTORE PUSH1 0x8 DUP3 MSTORE PUSH1 0x40 PUSH1 0x0 KECCAK256 DUP6 PUSH1 0x0 MSTORE DUP3 MSTORE PUSH1 0x40 PUSH1 0x0 KECCAK256 CALLER PUSH1 0x0 MSTORE DUP3 MSTORE PUSH1 0x0 PUSH1 0x40 DUP2 KECCAK256 SSTORE DUP1 SLOAD PUSH1 0xFF DUP2 AND PUSH1 0x6 DUP2 LT ISZERO PUSH2 0x46D JUMPI PUSH1 0x3 EQ PUSH2 0x1BC9 JUMPI JUMPDEST POP POP PUSH1 0x0 DUP1 DUP1 DUP1 DUP6 CALLER DUP3 CALL ISZERO PUSH2 0x636 JUMPI PUSH32 0xD33FCD27CBFB73A2D9058C968B560CCB306500BF536133802048489ECC7355E9 SWAP2 PUSH1 0x40 MLOAD SWAP1 DUP2 MSTORE LOG3 PUSH1 0x1 PUSH1 0x0 SSTORE STOP JUMPDEST PUSH1 0xFF NOT AND PUSH1 0x5 OR SWAP1 SSTORE DUP5 DUP1 PUSH2 0x1B89 JUMP JUMPDEST PUSH1 0x40 MLOAD PUSH3 0x461BCD PUSH1 0xE5 SHL DUP2 MSTORE PUSH1 0x4 DUP2 ADD DUP4 SWAP1 MSTORE PUSH1 0x23 PUSH1 0x24 DUP3 ADD MSTORE PUSH32 0x4D696C6573746F6E654D616E616765723A206E6F7468696E6720746F20726566 PUSH1 0x44 DUP3 ADD MSTORE PUSH3 0x1D5B99 PUSH1 0xEA SHL PUSH1 0x64 DUP3 ADD MSTORE PUSH1 0x84 SWAP1 REVERT JUMPDEST PUSH1 0x64 SWAP1 PUSH1 0x40 MLOAD SWAP1 PUSH3 0x461BCD PUSH1 0xE5 SHL DUP3 MSTORE DUP1 PUSH1 0x4 DUP4 ADD MSTORE PUSH1 0x24 DUP3 ADD MSTORE PUSH32 0x4D696C6573746F6E654D616E616765723A206E6F7420726566756E6461626C65 PUSH1 0x44 DUP3 ADD MSTORE REVERT JUMPDEST PUSH1 0x5 SWAP2 POP EQ DUP6 PUSH2 0x1B1C JUMP JUMPDEST POP PUSH1 0x0 DUP2 DUP2 MSTORE PUSH1 0x4 PUSH1 0x20 MSTORE PUSH1 0x40 SWAP1 KECCAK256 SLOAD DUP3 GT ISZERO PUSH2 0x1AD3 JUMP JUMPDEST CALLVALUE PUSH2 0x2D0 JUMPI PUSH2 0x1C9E CALLDATASIZE PUSH2 0x2328 JUMP JUMPDEST SWAP1 PUSH2 0x1CB4 PUSH1 0x1 DUP1 PUSH1 0xA0 SHL SUB PUSH1 0x2 SLOAD AND CALLER EQ PUSH2 0x285C JUMP JUMPDEST DUP2 ISZERO ISZERO DUP1 PUSH2 0x1D34 JUMPI JUMPDEST PUSH2 0x1CC6 SWAP1 PUSH2 0x27A1 JUMP JUMPDEST DUP1 PUSH1 0x0 MSTORE PUSH1 0x3 PUSH1 0x20 MSTORE PUSH1 0x40 PUSH1 0x0 KECCAK256 DUP3 PUSH1 0x0 MSTORE PUSH1 0x20 MSTORE PUSH1 0x7 PUSH1 0x40 PUSH1 0x0 KECCAK256 ADD DUP1 SLOAD PUSH1 0xFF DUP2 AND SWAP1 PUSH1 0x6 DUP3 LT ISZERO PUSH2 0x46D JUMPI PUSH2 0x1D01 PUSH1 0x1 PUSH1 0x2 SWAP4 EQ PUSH2 0x28B7 JUMP JUMPDEST PUSH1 0xFF NOT AND OR SWAP1 SSTORE PUSH32 0x9FFBB52F2A1362273CD74689A516CA4F52C4282DC13E2E68B7E0646A9A7AF7A3 PUSH1 0x20 PUSH1 0x40 MLOAD CALLER DUP2 MSTORE LOG3 STOP JUMPDEST POP PUSH1 0x0 DUP2 DUP2 MSTORE PUSH1 0x4 PUSH1 0x20 MSTORE PUSH1 0x40 SWAP1 KECCAK256 SLOAD DUP3 GT ISZERO PUSH2 0x1CBD JUMP JUMPDEST CALLVALUE PUSH2 0x2D0 JUMPI PUSH2 0x1D5A CALLDATASIZE PUSH2 0x2328 JUMP JUMPDEST SWAP1 PUSH1 0x0 MSTORE PUSH1 0x3 PUSH1 0x20 MSTORE PUSH1 0x40 PUSH1 0x0 KECCAK256 SWAP1 PUSH1 0x0 MSTORE PUSH1 0x20 MSTORE PUSH1 0x40 PUSH1 0x0 KECCAK256 DUP1 SLOAD PUSH1 0x1 DUP3 ADD SLOAD SWAP2 PUSH1 0x2 DUP2 ADD PUSH2 0x1D89 SWAP1 PUSH2 0x23EB JUMP JUMPDEST PUSH2 0x1D95 PUSH1 0x3 DUP4 ADD PUSH2 0x23EB JUMP JUMPDEST SWAP2 PUSH1 0x4 DUP2 ADD SLOAD SWAP3 PUSH1 0x5 DUP3 ADD SLOAD SWAP4 PUSH1 0x6 DUP4 ADD SLOAD SWAP1 PUSH1 0x7 DUP5 ADD SLOAD PUSH1 0xFF AND SWAP1 PUSH1 0x8 DUP6 ADD PUSH2 0x1DBE SWAP1 PUSH2 0x23EB JUMP JUMPDEST SWAP2 PUSH2 0x1DCB PUSH1 0x9 DUP8 ADD PUSH2 0x23EB JUMP JUMPDEST SWAP4 PUSH1 0xA DUP8 ADD SLOAD SWAP9 PUSH1 0xB DUP9 ADD SLOAD SWAP7 PUSH1 0xC DUP10 ADD SLOAD SWAP9 PUSH1 0xD ADD SLOAD PUSH1 0xFF AND SWAP10 PUSH1 0x40 MLOAD SWAP14 DUP15 DUP1 SWAP15 DUP2 MSTORE PUSH1 0x20 ADD MSTORE DUP13 PUSH2 0x1C0 PUSH1 0x40 DUP2 SWAP3 ADD MSTORE DUP14 ADD PUSH2 0x1E08 SWAP2 PUSH2 0x2491 JUMP JUMPDEST DUP13 DUP2 SUB PUSH1 0x60 DUP15 ADD MSTORE PUSH2 0x1E19 SWAP2 PUSH2 0x2491 JUMP JUMPDEST SWAP4 PUSH1 0x80 DUP13 ADD MSTORE PUSH1 0xA0 DUP12 ADD MSTORE PUSH1 0xC0 DUP11 ADD MSTORE PUSH1 0xE0 DUP10 ADD PUSH2 0x1E36 SWAP2 PUSH2 0x24D1 JUMP JUMPDEST DUP8 DUP2 SUB PUSH2 0x100 DUP10 ADD MSTORE PUSH2 0x1E48 SWAP2 PUSH2 0x2491 JUMP JUMPDEST DUP7 DUP2 SUB PUSH2 0x120 DUP9 ADD MSTORE PUSH2 0x1E5A SWAP2 PUSH2 0x2491 JUMP JUMPDEST SWAP4 PUSH2 0x140 DUP7 ADD MSTORE PUSH2 0x160 DUP6 ADD MSTORE PUSH2 0x180 DUP5 ADD MSTORE ISZERO ISZERO PUSH2 0x1A0 DUP4 ADD MSTORE SUB SWAP1 RETURN JUMPDEST PUSH2 0x1E82 CALLDATASIZE PUSH2 0x2328 JUMP JUMPDEST DUP1 ISZERO ISZERO DUP1 PUSH2 0x21D9 JUMPI JUMPDEST PUSH2 0x1E94 SWAP1 PUSH2 0x27A1 JUMP JUMPDEST PUSH2 0x1E9C PUSH2 0x2806 JUMP JUMPDEST CALLVALUE ISZERO PUSH2 0x2194 JUMPI DUP2 PUSH1 0x0 MSTORE PUSH1 0x20 SWAP2 PUSH1 0x3 DUP4 MSTORE PUSH1 0x40 PUSH1 0x0 KECCAK256 DUP3 PUSH1 0x0 MSTORE DUP4 MSTORE PUSH1 0x40 PUSH1 0x0 KECCAK256 SWAP3 PUSH1 0xFF PUSH1 0x7 DUP6 ADD SLOAD AND PUSH1 0x6 DUP2 LT ISZERO PUSH2 0x46D JUMPI PUSH2 0x213A JUMPI PUSH1 0x6 DUP5 ADD SLOAD TIMESTAMP LT ISZERO PUSH2 0x20EC JUMPI DUP2 PUSH1 0x0 MSTORE PUSH1 0x5 DUP2 MSTORE PUSH1 0x1 DUP1 PUSH1 0xA0 SHL SUB PUSH1 0x40 PUSH1 0x0 KECCAK256 SLOAD AND CALLER EQ PUSH2 0x2094 JUMPI PUSH1 0x4 DUP5 ADD SLOAD SWAP4 PUSH1 0x5 DUP2 ADD SWAP5 DUP6 SLOAD DUP1 DUP3 GT PUSH1 0x0 EQ PUSH2 0x208B JUMPI PUSH2 0x1F1B SWAP2 PUSH2 0x27F9 JUMP JUMPDEST DUP1 ISZERO PUSH2 0x2020 JUMPI DUP1 CALLVALUE GT PUSH1 0x0 EQ PUSH2 0x2018 JUMPI SWAP5 JUMPDEST PUSH2 0x1F37 DUP7 CALLVALUE PUSH2 0x27F9 JUMP JUMPDEST SWAP2 DUP5 PUSH1 0x0 MSTORE PUSH1 0x8 DUP5 MSTORE PUSH1 0x40 PUSH1 0x0 KECCAK256 DUP7 PUSH1 0x0 MSTORE DUP5 MSTORE PUSH1 0x40 PUSH1 0x0 KECCAK256 CALLER PUSH1 0x0 MSTORE DUP5 MSTORE PUSH1 0x40 PUSH1 0x0 KECCAK256 SLOAD ISZERO PUSH2 0x2003 JUMPI JUMPDEST POP DUP4 PUSH1 0x0 MSTORE PUSH1 0x8 DUP4 MSTORE PUSH1 0x40 PUSH1 0x0 KECCAK256 DUP6 PUSH1 0x0 MSTORE DUP4 MSTORE PUSH1 0x40 PUSH1 0x0 KECCAK256 CALLER PUSH1 0x0 MSTORE DUP4 MSTORE PUSH1 0x40 PUSH1 0x0 KECCAK256 PUSH2 0x1F91 DUP8 DUP3 SLOAD PUSH2 0x26CA JUMP JUMPDEST SWAP1 SSTORE PUSH2 0x1F9E DUP7 DUP3 SLOAD PUSH2 0x26CA JUMP JUMPDEST SWAP1 SSTORE DUP1 ISZERO DUP1 ISZERO PUSH2 0x1FDD JUMPI JUMPDEST POP POP PUSH32 0x1E3BC6EDF35D9744B767980DF51144C565EBC7F201C4A611D2A3E9888DEEF730 SWAP1 PUSH1 0x40 MLOAD SWAP5 DUP6 MSTORE CALLER SWAP5 LOG4 PUSH1 0x1 PUSH1 0x0 SSTORE STOP JUMPDEST PUSH1 0x0 DUP1 DUP1 SWAP4 DUP2 SWAP4 DUP3 SWAP1 PUSH2 0x1FFA JUMPI JUMPDEST CALLER SWAP1 CALL ISZERO PUSH2 0x636 JUMPI DUP5 DUP1 PUSH2 0x1FA9 JUMP JUMPDEST POP PUSH2 0x8FC PUSH2 0x1FEB JUMP JUMPDEST PUSH1 0xC ADD PUSH2 0x2010 DUP2 SLOAD PUSH2 0x26D7 JUMP JUMPDEST SWAP1 SSTORE DUP7 PUSH2 0x1F62 JUMP JUMPDEST POP CALLVALUE SWAP5 PUSH2 0x1F2D JUMP JUMPDEST PUSH1 0x40 MLOAD PUSH3 0x461BCD PUSH1 0xE5 SHL DUP2 MSTORE PUSH1 0x4 DUP2 ADD DUP5 SWAP1 MSTORE PUSH1 0x3A PUSH1 0x24 DUP3 ADD MSTORE PUSH32 0x4D696C6573746F6E654D616E616765723A206D696C6573746F6E652066756E64 PUSH1 0x44 DUP3 ADD MSTORE PUSH32 0x696E672074617267657420616C72656164792072656163686564000000000000 PUSH1 0x64 DUP3 ADD MSTORE PUSH1 0x84 SWAP1 REVERT JUMPDEST POP POP PUSH1 0x0 PUSH2 0x1F1B JUMP JUMPDEST PUSH1 0x84 SWAP1 PUSH1 0x40 MLOAD SWAP1 PUSH3 0x461BCD PUSH1 0xE5 SHL DUP3 MSTORE PUSH1 0x4 DUP3 ADD MSTORE PUSH1 0x2B PUSH1 0x24 DUP3 ADD MSTORE PUSH32 0x4D696C6573746F6E654D616E616765723A2063726561746F722063616E6E6F74 PUSH1 0x44 DUP3 ADD MSTORE PUSH11 0x20636F6E74726962757465 PUSH1 0xA8 SHL PUSH1 0x64 DUP3 ADD MSTORE REVERT JUMPDEST PUSH1 0x84 SWAP1 PUSH1 0x40 MLOAD SWAP1 PUSH3 0x461BCD PUSH1 0xE5 SHL DUP3 MSTORE PUSH1 0x4 DUP3 ADD MSTORE PUSH1 0x21 PUSH1 0x24 DUP3 ADD MSTORE PUSH32 0x4D696C6573746F6E654D616E616765723A20646561646C696E65207061737365 PUSH1 0x44 DUP3 ADD MSTORE PUSH1 0x19 PUSH1 0xFA SHL PUSH1 0x64 DUP3 ADD MSTORE REVERT JUMPDEST PUSH1 0x84 SWAP1 PUSH1 0x40 MLOAD SWAP1 PUSH3 0x461BCD PUSH1 0xE5 SHL DUP3 MSTORE PUSH1 0x4 DUP3 ADD MSTORE PUSH1 0x2D PUSH1 0x24 DUP3 ADD MSTORE PUSH32 0x4D696C6573746F6E654D616E616765723A206E6F7420616363657074696E6720 PUSH1 0x44 DUP3 ADD MSTORE PUSH13 0x636F6E747269627574696F6E73 PUSH1 0x98 SHL PUSH1 0x64 DUP3 ADD MSTORE REVERT JUMPDEST PUSH1 0x40 MLOAD PUSH3 0x461BCD PUSH1 0xE5 SHL DUP2 MSTORE PUSH1 0x20 PUSH1 0x4 DUP3 ADD MSTORE PUSH1 0x1F PUSH1 0x24 DUP3 ADD MSTORE PUSH32 0x4D696C6573746F6E654D616E616765723A206D7573742073656E642045544800 PUSH1 0x44 DUP3 ADD MSTORE PUSH1 0x64 SWAP1 REVERT JUMPDEST POP PUSH1 0x0 DUP3 DUP2 MSTORE PUSH1 0x4 PUSH1 0x20 MSTORE PUSH1 0x40 SWAP1 KECCAK256 SLOAD DUP2 GT ISZERO PUSH2 0x1E8B JUMP JUMPDEST CALLVALUE PUSH2 0x2D0 JUMPI PUSH2 0x21FF CALLDATASIZE PUSH2 0x2328 JUMP JUMPDEST PUSH1 0x0 DUP3 DUP2 MSTORE PUSH1 0x5 PUSH1 0x20 MSTORE PUSH1 0x40 SWAP1 KECCAK256 SLOAD SWAP2 SWAP3 SWAP1 SWAP2 PUSH1 0x1 PUSH1 0x1 PUSH1 0xA0 SHL SUB AND PUSH2 0x22DA JUMPI POP DUP1 ISZERO PUSH2 0x227F JUMPI DUP2 PUSH1 0x0 MSTORE PUSH1 0x5 PUSH1 0x20 MSTORE PUSH1 0x40 PUSH1 0x0 KECCAK256 CALLER PUSH12 0xFFFFFFFFFFFFFFFFFFFFFFFF PUSH1 0xA0 SHL DUP3 SLOAD AND OR SWAP1 SSTORE PUSH1 0x6 PUSH1 0x20 MSTORE PUSH1 0x40 PUSH1 0x0 KECCAK256 SSTORE CALLER SWAP1 PUSH32 0x4F373B7130FDE2ECA917B55949B3F1B3EC21D20D77FE40CAB78CCED7B9EBD05C PUSH1 0x0 DUP1 LOG3 STOP JUMPDEST PUSH1 0x40 MLOAD PUSH3 0x461BCD PUSH1 0xE5 SHL DUP2 MSTORE PUSH1 0x20 PUSH1 0x4 DUP3 ADD MSTORE PUSH1 0x2D PUSH1 0x24 DUP3 ADD MSTORE PUSH32 0x4D696C6573746F6E654D616E616765723A2063616D706169676E207461726765 PUSH1 0x44 DUP3 ADD MSTORE PUSH13 0x74206D757374206265203E203 PUSH1 0x9C SHL PUSH1 0x64 DUP3 ADD MSTORE PUSH1 0x84 SWAP1 REVERT JUMPDEST PUSH3 0x461BCD PUSH1 0xE5 SHL DUP2 MSTORE PUSH1 0x20 PUSH1 0x4 DUP3 ADD MSTORE PUSH1 0x24 DUP1 DUP3 ADD MSTORE PUSH32 0x4D696C6573746F6E654D616E616765723A20616C726561647920726567697374 PUSH1 0x44 DUP3 ADD MSTORE PUSH4 0x195C9959 PUSH1 0xE2 SHL PUSH1 0x64 DUP3 ADD MSTORE PUSH1 0x84 SWAP1 REVERT JUMPDEST PUSH1 0x40 SWAP1 PUSH1 0x3 NOT ADD SLT PUSH2 0x2D0 JUMPI PUSH1 0x4 CALLDATALOAD SWAP1 PUSH1 0x24 CALLDATALOAD SWAP1 JUMP JUMPDEST SWAP1 PUSH1 0x1 DUP3 DUP2 SHR SWAP3 AND DUP1 ISZERO PUSH2 0x236E JUMPI JUMPDEST PUSH1 0x20 DUP4 LT EQ PUSH2 0x2358 JUMPI JUMP JUMPDEST PUSH4 0x4E487B71 PUSH1 0xE0 SHL PUSH1 0x0 MSTORE PUSH1 0x22 PUSH1 0x4 MSTORE PUSH1 0x24 PUSH1 0x0 REVERT JUMPDEST SWAP2 PUSH1 0x7F AND SWAP2 PUSH2 0x234D JUMP JUMPDEST PUSH1 0x60 DUP2 ADD SWAP1 DUP2 LT PUSH1 0x1 PUSH1 0x1 PUSH1 0x40 SHL SUB DUP3 GT OR PUSH2 0x137A JUMPI PUSH1 0x40 MSTORE JUMP JUMPDEST PUSH2 0x1C0 DUP2 ADD SWAP1 DUP2 LT PUSH1 0x1 PUSH1 0x1 PUSH1 0x40 SHL SUB DUP3 GT OR PUSH2 0x137A JUMPI PUSH1 0x40 MSTORE JUMP JUMPDEST PUSH1 0x20 DUP2 ADD SWAP1 DUP2 LT PUSH1 0x1 PUSH1 0x1 PUSH1 0x40 SHL SUB DUP3 GT OR PUSH2 0x137A JUMPI PUSH1 0x40 MSTORE JUMP JUMPDEST SWAP1 PUSH1 0x1F DUP1 NOT SWAP2 ADD AND DUP2 ADD SWAP1 DUP2 LT PUSH1 0x1 PUSH1 0x1 PUSH1 0x40 SHL SUB DUP3 GT OR PUSH2 0x137A JUMPI PUSH1 0x40 MSTORE JUMP JUMPDEST SWAP1 PUSH1 0x40 MLOAD SWAP2 DUP3 PUSH1 0x0 DUP3 SLOAD SWAP3 PUSH2 0x23FF DUP5 PUSH2 0x233E JUMP JUMPDEST SWAP1 DUP2 DUP5 MSTORE PUSH1 0x1 SWAP5 DUP6 DUP2 AND SWAP1 DUP2 PUSH1 0x0 EQ PUSH2 0x246E JUMPI POP PUSH1 0x1 EQ PUSH2 0x242B JUMPI JUMPDEST POP POP PUSH2 0x2429 SWAP3 POP SUB DUP4 PUSH2 0x23CA JUMP JUMPDEST JUMP JUMPDEST SWAP1 SWAP4 SWAP2 POP PUSH1 0x0 MSTORE PUSH1 0x20 SWAP1 DUP2 PUSH1 0x0 KECCAK256 SWAP4 PUSH1 0x0 SWAP2 JUMPDEST DUP2 DUP4 LT PUSH2 0x2456 JUMPI POP POP PUSH2 0x2429 SWAP4 POP DUP3 ADD ADD CODESIZE DUP1 PUSH2 0x241B JUMP JUMPDEST DUP6 SLOAD DUP9 DUP5 ADD DUP6 ADD MSTORE SWAP5 DUP6 ADD SWAP5 DUP8 SWAP5 POP SWAP2 DUP4 ADD SWAP2 PUSH2 0x243E JUMP JUMPDEST SWAP2 POP POP PUSH2 0x2429 SWAP5 POP PUSH1 0x20 SWAP3 POP PUSH1 0xFF NOT AND DUP3 DUP5 ADD MSTORE ISZERO ISZERO PUSH1 0x5 SHL DUP3 ADD ADD CODESIZE DUP1 PUSH2 0x241B JUMP JUMPDEST SWAP2 SWAP1 DUP3 MLOAD SWAP3 DUP4 DUP3 MSTORE PUSH1 0x0 JUMPDEST DUP5 DUP2 LT PUSH2 0x24BD JUMPI POP POP DUP3 PUSH1 0x0 PUSH1 0x20 DUP1 SWAP5 SWAP6 DUP5 ADD ADD MSTORE PUSH1 0x1F DUP1 NOT SWAP2 ADD AND ADD ADD SWAP1 JUMP JUMPDEST PUSH1 0x20 DUP2 DUP4 ADD DUP2 ADD MLOAD DUP5 DUP4 ADD DUP3 ADD MSTORE ADD PUSH2 0x249C JUMP JUMPDEST SWAP1 PUSH1 0x6 DUP3 LT ISZERO PUSH2 0x46D JUMPI MSTORE JUMP JUMPDEST PUSH1 0x4 CALLDATALOAD SWAP1 PUSH1 0x1 PUSH1 0x1 PUSH1 0xA0 SHL SUB DUP3 AND DUP3 SUB PUSH2 0x2D0 JUMPI JUMP JUMPDEST PUSH1 0x60 SWAP1 PUSH1 0x3 NOT ADD SLT PUSH2 0x2D0 JUMPI PUSH1 0x4 CALLDATALOAD SWAP1 PUSH1 0x24 CALLDATALOAD SWAP1 PUSH1 0x44 CALLDATALOAD PUSH1 0x1 PUSH1 0x1 PUSH1 0xA0 SHL SUB DUP2 AND DUP2 SUB PUSH2 0x2D0 JUMPI SWAP1 JUMP JUMPDEST SWAP2 DUP2 PUSH1 0x1F DUP5 ADD SLT ISZERO PUSH2 0x2D0 JUMPI DUP3 CALLDATALOAD SWAP2 PUSH1 0x1 PUSH1 0x1 PUSH1 0x40 SHL SUB DUP4 GT PUSH2 0x2D0 JUMPI PUSH1 0x20 DUP4 DUP2 DUP7 ADD SWAP6 ADD ADD GT PUSH2 0x2D0 JUMPI JUMP JUMPDEST SWAP1 DUP2 MLOAD DUP2 MSTORE PUSH1 0x20 DUP3 ADD MLOAD PUSH1 0x20 DUP3 ADD MSTORE PUSH2 0x25E6 PUSH2 0x25D2 PUSH2 0x258E PUSH2 0x257C PUSH1 0x40 DUP7 ADD MLOAD PUSH2 0x1C0 DUP1 PUSH1 0x40 DUP9 ADD MSTORE DUP7 ADD SWAP1 PUSH2 0x2491 JUMP JUMPDEST PUSH1 0x60 DUP7 ADD MLOAD DUP6 DUP3 SUB PUSH1 0x60 DUP8 ADD MSTORE PUSH2 0x2491 JUMP JUMPDEST PUSH1 0x80 DUP6 ADD MLOAD PUSH1 0x80 DUP6 ADD MSTORE PUSH1 0xA0 DUP6 ADD MLOAD PUSH1 0xA0 DUP6 ADD MSTORE PUSH1 0xC0 DUP6 ADD MLOAD PUSH1 0xC0 DUP6 ADD MSTORE PUSH2 0x25BE PUSH1 0xE0 DUP7 ADD MLOAD PUSH1 0xE0 DUP7 ADD SWAP1 PUSH2 0x24D1 JUMP JUMPDEST PUSH2 0x100 DUP1 DUP7 ADD MLOAD SWAP1 DUP6 DUP4 SUB SWAP1 DUP7 ADD MSTORE PUSH2 0x2491 JUMP JUMPDEST PUSH2 0x120 DUP1 DUP6 ADD MLOAD SWAP1 DUP5 DUP4 SUB SWAP1 DUP6 ADD MSTORE PUSH2 0x2491 JUMP JUMPDEST SWAP2 PUSH2 0x140 DUP1 DUP3 ADD MLOAD SWAP1 DUP4 ADD MSTORE PUSH2 0x160 DUP1 DUP3 ADD MLOAD SWAP1 DUP4 ADD MSTORE PUSH2 0x180 DUP1 DUP3 ADD MLOAD SWAP1 DUP4 ADD MSTORE PUSH2 0x1A0 DUP1 SWAP2 ADD MLOAD ISZERO ISZERO SWAP2 ADD MSTORE SWAP1 JUMP JUMPDEST PUSH1 0x1 SLOAD PUSH1 0x1 PUSH1 0x1 PUSH1 0xA0 SHL SUB AND CALLER SUB PUSH2 0x262B JUMPI JUMP JUMPDEST PUSH1 0x64 PUSH1 0x40 MLOAD PUSH3 0x461BCD PUSH1 0xE5 SHL DUP2 MSTORE PUSH1 0x20 PUSH1 0x4 DUP3 ADD MSTORE PUSH1 0x20 PUSH1 0x24 DUP3 ADD MSTORE PUSH32 0x4F776E61626C653A2063616C6C6572206973206E6F7420746865206F776E6572 PUSH1 0x44 DUP3 ADD MSTORE REVERT JUMPDEST ISZERO PUSH2 0x2676 JUMPI JUMP JUMPDEST PUSH1 0x40 MLOAD PUSH3 0x461BCD PUSH1 0xE5 SHL DUP2 MSTORE PUSH1 0x20 PUSH1 0x4 DUP3 ADD MSTORE PUSH1 0x26 PUSH1 0x24 DUP3 ADD MSTORE PUSH32 0x4D696C6573746F6E654D616E616765723A206E6F742063616D706169676E2063 PUSH1 0x44 DUP3 ADD MSTORE PUSH6 0x3932B0BA37B9 PUSH1 0xD1 SHL PUSH1 0x64 DUP3 ADD MSTORE PUSH1 0x84 SWAP1 REVERT JUMPDEST SWAP2 SWAP1 DUP3 ADD DUP1 SWAP3 GT PUSH2 0x29E JUMPI JUMP JUMPDEST PUSH1 0x0 NOT DUP2 EQ PUSH2 0x29E JUMPI PUSH1 0x1 ADD SWAP1 JUMP JUMPDEST SWAP3 SWAP2 SWAP3 PUSH1 0x1 PUSH1 0x1 PUSH1 0x40 SHL SUB DUP3 GT PUSH2 0x137A JUMPI PUSH1 0x40 MLOAD SWAP2 PUSH2 0x270F PUSH1 0x1F DUP3 ADD PUSH1 0x1F NOT AND PUSH1 0x20 ADD DUP5 PUSH2 0x23CA JUMP JUMPDEST DUP3 SWAP5 DUP2 DUP5 MSTORE DUP2 DUP4 ADD GT PUSH2 0x2D0 JUMPI DUP3 DUP2 PUSH1 0x20 SWAP4 DUP5 PUSH1 0x0 SWAP7 ADD CALLDATACOPY ADD ADD MSTORE JUMP JUMPDEST SWAP1 PUSH1 0x1F DUP2 GT PUSH2 0x273A JUMPI POP POP POP JUMP JUMPDEST PUSH1 0x0 SWAP2 DUP3 MSTORE PUSH1 0x20 DUP3 KECCAK256 SWAP1 PUSH1 0x20 PUSH1 0x1F DUP6 ADD PUSH1 0x5 SHR DUP4 ADD SWAP5 LT PUSH2 0x2776 JUMPI JUMPDEST PUSH1 0x1F ADD PUSH1 0x5 SHR ADD SWAP2 JUMPDEST DUP3 DUP2 LT PUSH2 0x276B JUMPI POP POP POP JUMP JUMPDEST DUP2 DUP2 SSTORE PUSH1 0x1 ADD PUSH2 0x275F JUMP JUMPDEST SWAP1 SWAP3 POP DUP3 SWAP1 PUSH2 0x2756 JUMP JUMPDEST SWAP1 DUP1 PUSH1 0x20 SWAP4 SWAP3 DUP2 DUP5 MSTORE DUP5 DUP5 ADD CALLDATACOPY PUSH1 0x0 DUP3 DUP3 ADD DUP5 ADD MSTORE PUSH1 0x1F ADD PUSH1 0x1F NOT AND ADD ADD SWAP1 JUMP JUMPDEST ISZERO PUSH2 0x27A8 JUMPI JUMP JUMPDEST PUSH1 0x40 MLOAD PUSH3 0x461BCD PUSH1 0xE5 SHL DUP2 MSTORE PUSH1 0x20 PUSH1 0x4 DUP3 ADD MSTORE PUSH1 0x23 PUSH1 0x24 DUP3 ADD MSTORE PUSH32 0x4D696C6573746F6E654D616E616765723A20696E76616C6964206D696C657374 PUSH1 0x44 DUP3 ADD MSTORE PUSH3 0x6F6E65 PUSH1 0xE8 SHL PUSH1 0x64 DUP3 ADD MSTORE PUSH1 0x84 SWAP1 REVERT JUMPDEST SWAP2 SWAP1 DUP3 SUB SWAP2 DUP3 GT PUSH2 0x29E JUMPI JUMP JUMPDEST PUSH1 0x2 PUSH1 0x0 SLOAD EQ PUSH2 0x2817 JUMPI PUSH1 0x2 PUSH1 0x0 SSTORE JUMP JUMPDEST PUSH1 0x40 MLOAD PUSH3 0x461BCD PUSH1 0xE5 SHL DUP2 MSTORE PUSH1 0x20 PUSH1 0x4 DUP3 ADD MSTORE PUSH1 0x1F PUSH1 0x24 DUP3 ADD MSTORE PUSH32 0x5265656E7472616E637947756172643A207265656E7472616E742063616C6C00 PUSH1 0x44 DUP3 ADD MSTORE PUSH1 0x64 SWAP1 REVERT JUMPDEST ISZERO PUSH2 0x2863 JUMPI JUMP JUMPDEST PUSH1 0x40 MLOAD PUSH3 0x461BCD PUSH1 0xE5 SHL DUP2 MSTORE PUSH1 0x20 PUSH1 0x4 DUP3 ADD MSTORE PUSH1 0x26 PUSH1 0x24 DUP3 ADD MSTORE PUSH32 0x4D696C6573746F6E654D616E616765723A2063616C6C6572206973206E6F7420 PUSH1 0x44 DUP3 ADD MSTORE PUSH6 0x6F7261636C65 PUSH1 0xD0 SHL PUSH1 0x64 DUP3 ADD MSTORE PUSH1 0x84 SWAP1 REVERT JUMPDEST ISZERO PUSH2 0x28BE JUMPI JUMP JUMPDEST PUSH1 0x40 MLOAD PUSH3 0x461BCD PUSH1 0xE5 SHL DUP2 MSTORE PUSH1 0x20 PUSH1 0x4 DUP3 ADD MSTORE PUSH1 0x28 PUSH1 0x24 DUP3 ADD MSTORE PUSH32 0x4D696C6573746F6E654D616E616765723A206E6F7420696E205375626D697474 PUSH1 0x44 DUP3 ADD MSTORE PUSH8 0x6564207374617465 PUSH1 0xC0 SHL PUSH1 0x64 DUP3 ADD MSTORE PUSH1 0x84 SWAP1 REVERT JUMPDEST DUP2 DUP2 MUL SWAP3 SWAP2 DUP2 ISZERO SWAP2 DUP5 DIV EQ OR ISZERO PUSH2 0x29E JUMPI JUMP JUMPDEST SWAP1 PUSH1 0x0 DUP3 DUP2 MSTORE PUSH1 0x3 PUSH1 0x20 MSTORE PUSH1 0x40 DUP2 KECCAK256 DUP3 DUP3 MSTORE PUSH1 0x20 MSTORE PUSH1 0x40 DUP2 KECCAK256 SWAP1 PUSH1 0xA DUP3 ADD SLOAD PUSH2 0x2954 PUSH1 0xB DUP5 ADD SLOAD DUP3 PUSH2 0x26CA JUMP JUMPDEST SWAP2 PUSH2 0x2710 SWAP2 DUP3 DUP5 MUL SWAP5 DUP5 DUP7 DIV DUP5 EQ DUP6 ISZERO OR ISZERO PUSH2 0x29DC JUMPI PUSH1 0x5 ADD SLOAD SWAP5 PUSH2 0x297B PUSH1 0xA SLOAD DUP8 PUSH2 0x2914 JUMP JUMPDEST GT PUSH2 0x29D3 JUMPI DUP3 DUP2 MUL SWAP3 DUP2 DUP5 DIV EQ SWAP1 ISZERO OR ISZERO PUSH2 0x29BF JUMPI POP PUSH2 0x299D PUSH1 0xB SLOAD DUP4 PUSH2 0x2914 JUMP JUMPDEST GT PUSH2 0x29AD JUMPI POP POP PUSH2 0x2429 SWAP2 PUSH2 0x29F0 JUMP JUMPDEST EQ PUSH2 0x29B6 JUMPI POP POP JUMP JUMPDEST PUSH2 0x2429 SWAP2 PUSH2 0x29F0 JUMP JUMPDEST PUSH4 0x4E487B71 PUSH1 0xE0 SHL DUP2 MSTORE PUSH1 0x11 PUSH1 0x4 MSTORE PUSH1 0x24 SWAP1 REVERT JUMPDEST POP POP POP POP POP POP POP JUMP JUMPDEST PUSH4 0x4E487B71 PUSH1 0xE0 SHL DUP4 MSTORE PUSH1 0x11 PUSH1 0x4 MSTORE PUSH1 0x24 DUP4 REVERT JUMPDEST PUSH1 0x0 DUP2 DUP2 MSTORE PUSH1 0x3 PUSH1 0x20 MSTORE PUSH1 0x40 DUP2 KECCAK256 DUP4 DUP3 MSTORE PUSH1 0x20 MSTORE PUSH1 0x40 DUP2 KECCAK256 PUSH1 0x7 DUP2 ADD SWAP1 DUP2 SLOAD SWAP1 PUSH1 0xFF DUP3 AND PUSH1 0x6 DUP2 LT ISZERO PUSH2 0x2B02 JUMPI PUSH1 0x1 SUB PUSH2 0x2AFA JUMPI PUSH2 0x2A37 PUSH1 0xB PUSH1 0xA DUP4 ADD SLOAD SWAP3 ADD SLOAD DUP3 PUSH2 0x26CA JUMP JUMPDEST SWAP1 DUP2 ISZERO ISZERO SWAP2 DUP3 PUSH2 0x2ABA JUMPI JUMPDEST POP POP ISZERO PUSH2 0x2A83 JUMPI POP DUP1 SLOAD PUSH1 0xFF NOT AND PUSH1 0x2 OR SWAP1 SSTORE PUSH1 0x40 MLOAD SWAP1 DUP2 MSTORE PUSH32 0x9FFBB52F2A1362273CD74689A516CA4F52C4282DC13E2E68B7E0646A9A7AF7A3 SWAP1 PUSH1 0x20 SWAP1 LOG3 JUMP JUMPDEST PUSH1 0xFF NOT AND PUSH1 0x3 OR SWAP1 SSTORE PUSH1 0x40 MLOAD SWAP1 DUP2 MSTORE PUSH32 0x888C5547E7A66DEAAEEF7CC96FDF1B39154057815E8D0F702C46858D074E66A5 SWAP1 PUSH1 0x20 SWAP1 LOG3 JUMP JUMPDEST SWAP1 SWAP2 POP PUSH2 0x2710 SWAP2 DUP3 DUP2 MUL SWAP3 DUP2 DUP5 DIV EQ SWAP1 ISZERO OR ISZERO PUSH2 0x2AE6 JUMPI PUSH1 0xB SLOAD PUSH2 0x2ADD SWAP2 PUSH2 0x2914 JUMP JUMPDEST GT ISZERO CODESIZE DUP1 PUSH2 0x2A42 JUMP JUMPDEST PUSH4 0x4E487B71 PUSH1 0xE0 SHL DUP6 MSTORE PUSH1 0x11 PUSH1 0x4 MSTORE PUSH1 0x24 DUP6 REVERT JUMPDEST POP POP POP POP POP POP JUMP JUMPDEST PUSH4 0x4E487B71 PUSH1 0xE0 SHL DUP6 MSTORE PUSH1 0x21 PUSH1 0x4 MSTORE PUSH1 0x24 DUP6 REVERT JUMPDEST PUSH1 0x40 MLOAD SWAP1 PUSH2 0x2B23 DUP3 PUSH2 0x2393 JUMP JUMPDEST DUP2 PUSH2 0x1A0 PUSH1 0x0 SWAP2 DUP3 DUP2 MSTORE DUP3 PUSH1 0x20 DUP3 ADD MSTORE PUSH1 0x60 PUSH1 0x40 DUP3 ADD MSTORE PUSH1 0x60 DUP1 DUP3 ADD MSTORE DUP3 PUSH1 0x80 DUP3 ADD MSTORE DUP3 PUSH1 0xA0 DUP3 ADD MSTORE DUP3 PUSH1 0xC0 DUP3 ADD MSTORE DUP3 PUSH1 0xE0 DUP3 ADD MSTORE PUSH1 0x60 PUSH2 0x100 DUP3 ADD MSTORE PUSH1 0x60 PUSH2 0x120 DUP3 ADD MSTORE DUP3 PUSH2 0x140 DUP3 ADD MSTORE DUP3 PUSH2 0x160 DUP3 ADD MSTORE DUP3 PUSH2 0x180 DUP3 ADD MSTORE ADD MSTORE JUMP JUMPDEST SWAP1 PUSH1 0x40 MLOAD PUSH2 0x2B8E DUP2 PUSH2 0x2393 JUMP JUMPDEST DUP1 SWAP3 DUP1 SLOAD DUP3 MSTORE PUSH1 0x1 DUP2 ADD SLOAD PUSH1 0x20 DUP4 ADD MSTORE PUSH2 0x2BAA PUSH1 0x2 DUP3 ADD PUSH2 0x23EB JUMP JUMPDEST PUSH1 0x40 DUP4 ADD MSTORE PUSH2 0x2BBB PUSH1 0x3 DUP3 ADD PUSH2 0x23EB JUMP JUMPDEST PUSH1 0x60 DUP4 ADD MSTORE PUSH1 0x4 DUP2 ADD SLOAD PUSH1 0x80 DUP4 ADD MSTORE PUSH1 0x5 DUP2 ADD SLOAD PUSH1 0xA0 DUP4 ADD MSTORE PUSH1 0x6 DUP2 ADD SLOAD PUSH1 0xC0 DUP4 ADD MSTORE PUSH1 0xFF PUSH1 0x7 DUP3 ADD SLOAD AND SWAP1 PUSH1 0x6 DUP3 LT ISZERO PUSH2 0x46D JUMPI PUSH1 0xD PUSH1 0xFF SWAP2 PUSH2 0x1A0 SWAP4 PUSH1 0xE0 DUP7 ADD MSTORE PUSH2 0x2C0A PUSH1 0x8 DUP3 ADD PUSH2 0x23EB JUMP JUMPDEST PUSH2 0x100 DUP7 ADD MSTORE PUSH2 0x2C1C PUSH1 0x9 DUP3 ADD PUSH2 0x23EB JUMP JUMPDEST PUSH2 0x120 DUP7 ADD MSTORE PUSH1 0xA DUP2 ADD SLOAD PUSH2 0x140 DUP7 ADD MSTORE PUSH1 0xB DUP2 ADD SLOAD PUSH2 0x160 DUP7 ADD MSTORE PUSH1 0xC DUP2 ADD SLOAD PUSH2 0x180 DUP7 ADD MSTORE ADD SLOAD AND ISZERO ISZERO SWAP2 ADD MSTORE JUMP JUMPDEST PUSH1 0x1 PUSH1 0x1 PUSH1 0x40 SHL SUB DUP2 GT PUSH2 0x137A JUMPI PUSH1 0x5 SHL PUSH1 0x20 ADD SWAP1 JUMP JUMPDEST DUP1 MLOAD DUP3 LT ISZERO PUSH2 0x2C78 JUMPI PUSH1 0x20 SWAP2 PUSH1 0x5 SHL ADD ADD SWAP1 JUMP JUMPDEST PUSH4 0x4E487B71 PUSH1 0xE0 SHL PUSH1 0x0 MSTORE PUSH1 0x32 PUSH1 0x4 MSTORE PUSH1 0x24 PUSH1 0x0 REVERT INVALID LOG2 PUSH5 0x6970667358 0x22 SLT KECCAK256 0x4D MULMOD DUP16 DUP13 BLOCKHASH SWAP7 0x4C 0x2C 0xE9 0x28 SAR DUP11 PC KECCAK256 DELEGATECALL SWAP15 DUP11 0xF 0xEF DUP2 0x49 0xBF 0x4E PUSH22 0x5517C4CFCBA1B8C364736F6C63430008130033000000 "},"methodIdentifiers":{"approvalThresholdBps()":"cb7c172b","approveMilestoneByOracle(uint256,uint256)":"28fad646","campaignCreator(uint256)":"b48e784a","campaignTarget(uint256)":"ad6b7aa6","claimMilestoneRefund(uint256,uint256)":"31aee8a1","contributeToMilestone(uint256,uint256)":"147fefa6","createMilestone(uint256,string,string,uint256,uint256)":"8dc7b615","finalizeVoting(uint256,uint256)":"f01a5925","getCampaignMilestones(uint256)":"f91e4b29","getContribution(uint256,uint256,address)":"9b032342","getMilestone(uint256,uint256)":"8ed9895c","getVote(uint256,uint256,address)":"4f2b4234","isCampaignRegistered(uint256)":"583be14e","milestoneContributions(uint256,uint256,address)":"3eb6b2c6","milestoneCount(uint256)":"72ebb42a","milestones(uint256,uint256)":"1c376c63","oracleAddress()":"a89ae4ba","owner()":"8da5cb5b","registerCampaign(uint256,uint256)":"0e3f72cc","rejectMilestoneByOracle(uint256,uint256)":"657e62f7","renounceOwnership()":"715018a6","setOracleAddress(address)":"4c69c00f","setVotingParams(uint256,uint256,uint256)":"776e957a","submitMilestoneEvidence(uint256,uint256,string,string)":"bb7641e6","totalMilestoneTarget(uint256)":"ab881ffd","transferOwnership(address)":"f2fde38b","voteMilestone(uint256,uint256,bool)":"918cb241","votes(uint256,uint256,address)":"c8db7e7a","votingQuorumBps()":"bcded7b6","votingWindowSeconds()":"d1bc76eb","withdrawMilestoneFunds(uint256,uint256)":"bfe26612"}}}}}