{"contracts/MilestoneManager.sol":{"MilestoneManager":{"abi":[{"inputs":[{"internalType":"address","name":"_oracleAddress","type":"address"}],"stateMutability":"nonpayable","type":"constructor"},{"anonymous":false,"inputs":[{"indexed":true,"internalType":"uint256","name":"campaignId","type":"uint256"},{"indexed":true,"internalType":"address","name":"creator","type":"address"}],"name":"CampaignRegistered","type":"event"},{"anonymous":false,"inputs":[{"indexed":true,"internalType":"uint256","name":"campaignId","type":"uint256"},{"indexed":true,"internalType":"uint256","name":"milestoneId","type":"uint256"},{"indexed":false,"internalType":"address","name":"approver","type":"address"}],"name":"MilestoneApproved","type":"event"},{"anonymous":false,"inputs":[{"indexed":true,"internalType":"uint256","name":"campaignId","type":"uint256"},{"indexed":true,"internalType":"uint256","name":"milestoneId","type":"uint256"},{"indexed":false,"internalType":"string","name":"title","type":"string"},{"indexed":false,"internalType":"uint256","name":"targetAmount","type":"uint256"},{"indexed":false,"internalType":"uint256","name":"deadline","type":"uint256"}],"name":"MilestoneCreated","type":"event"},{"anonymous":false,"inputs":[{"indexed":true,"internalType":"uint256","name":"campaignId","type":"uint256"},{"indexed":true,"internalType":"uint256","name":"milestoneId","type":"uint256"},{"indexed":true,"internalType":"address","name":"contributor","type":"address"},{"indexed":false,"internalType":"uint256","name":"amount","type":"uint256"}],"name":"MilestoneFunded","type":"event"},{"anonymous":false,"inputs":[{"indexed":true,"internalType":"uint256","name":"campaignId","type":"uint256"},{"indexed":true,"internalType":"uint256","name":"milestoneId","type":"uint256"},{"indexed":false,"internalType":"address","name":"rejecter","type":"address"}],"name":"MilestoneRejected","type":"event"},{"anonymous":false,"inputs":[{"indexed":true,"internalType":"uint256","name":"campaignId","type":"uint256"},{"indexed":true,"internalType":"uint256","name":"milestoneId","type":"uint256"},{"indexed":false,"internalType":"uint256","name":"amount","type":"uint256"}],"name":"MilestoneReleased","type":"event"},{"anonymous":false,"inputs":[{"indexed":true,"internalType":"uint256","name":"campaignId","type":"uint256"},{"indexed":true,"internalType":"uint256","name":"milestoneId","type":"uint256"},{"indexed":false,"internalType":"string","name":"evidenceIpfsHash","type":"string"},{"indexed":false,"internalType":"string","name":"evidenceUrl","type":"string"}],"name":"MilestoneSubmitted","type":"event"},{"anonymous":false,"inputs":[{"indexed":true,"internalType":"uint256","name":"campaignId","type":"uint256"},{"indexed":true,"internalType":"uint256","name":"milestoneId","type":"uint256"},{"indexed":true,"internalType":"address","name":"voter","type":"address"},{"indexed":false,"internalType":"bool","name":"inFavour","type":"bool"},{"indexed":false,"internalType":"uint256","name":"weight","type":"uint256"}],"name":"MilestoneVoted","type":"event"},{"anonymous":false,"inputs":[{"indexed":true,"internalType":"address","name":"oldOracle","type":"address"},{"indexed":true,"internalType":"address","name":"newOracle","type":"address"}],"name":"OracleAddressUpdated","type":"event"},{"anonymous":false,"inputs":[{"indexed":true,"internalType":"address","name":"previousOwner","type":"address"},{"indexed":true,"internalType":"address","name":"newOwner","type":"address"}],"name":"OwnershipTransferred","type":"event"},{"anonymous":false,"inputs":[{"indexed":false,"internalType":"uint256","name":"quorumBps","type":"uint256"},{"indexed":false,"internalType":"uint256","name":"thresholdBps","type":"uint256"},{"indexed":false,"internalType":"uint256","name":"windowSeconds","type":"uint256"}],"name":"VotingParamsUpdated","type":"event"},{"inputs":[],"name":"MAX_MILESTONES_PER_CAMPAIGN","outputs":[{"internalType":"uint256","name":"","type":"uint256"}],"stateMutability":"view","type":"function"},{"inputs":[],"name":"approvalThresholdBps","outputs":[{"internalType":"uint256","name":"","type":"uint256"}],"stateMutability":"view","type":"function"},{"inputs":[{"internalType":"uint256","name":"_campaignId","type":"uint256"},{"internalType":"uint256","name":"_milestoneId","type":"uint256"}],"name":"approveMilestoneByOracle","outputs":[],"stateMutability":"nonpayable","type":"function"},{"inputs":[{"internalType":"uint256","name":"","type":"uint256"}],"name":"campaignCreator","outputs":[{"internalType":"address","name":"","type":"address"}],"stateMutability":"view","type":"function"},{"inputs":[{"internalType":"uint256","name":"","type":"uint256"}],"name":"campaignTarget","outputs":[{"internalType":"uint256","name":"","type":"uint256"}],"stateMutability":"view","type":"function"},{"inputs":[{"internalType":"uint256","name":"_campaignId","type":"uint256"},{"internalType":"uint256","name":"_milestoneId","type":"uint256"}],"name":"claimMilestoneRefund","outputs":[],"stateMutability":"nonpayable","type":"function"},{"inputs":[{"internalType":"uint256","name":"_campaignId","type":"uint256"},{"internalType":"uint256","name":"_milestoneId","type":"uint256"}],"name":"contributeToMilestone","outputs":[],"stateMutability":"payable","type":"function"},{"inputs":[{"internalType":"uint256","name":"_campaignId","type":"uint256"},{"internalType":"string","name":"_title","type":"string"},{"internalType":"string","name":"_description","type":"string"},{"internalType":"uint256","name":"_targetAmount","type":"uint256"},{"internalType":"uint256","name":"_duration","type":"uint256"}],"name":"createMilestone","outputs":[],"stateMutability":"nonpayable","type":"function"},{"inputs":[{"internalType":"uint256","name":"_campaignId","type":"uint256"},{"internalType":"uint256","name":"_milestoneId","type":"uint256"}],"name":"finalizeVoting","outputs":[],"stateMutability":"nonpayable","type":"function"},{"inputs":[{"internalType":"uint256","name":"_campaignId","type":"uint256"}],"name":"getCampaignMilestones","outputs":[{"components":[{"internalType":"uint256","name":"id","type":"uint256"},{"internalType":"uint256","name":"campaignId","type":"uint256"},{"internalType":"string","name":"title","type":"string"},{"internalType":"string","name":"description","type":"string"},{"internalType":"uint256","name":"targetAmount","type":"uint256"},{"internalType":"uint256","name":"raisedAmount","type":"uint256"},{"internalType":"uint256","name":"deadline","type":"uint256"},{"internalType":"enum MilestoneManager.MilestoneStatus","name":"status","type":"uint8"},{"internalType":"string","name":"evidenceIpfsHash","type":"string"},{"internalType":"string","name":"evidenceUrl","type":"string"},{"internalType":"uint256","name":"totalVotesFor","type":"uint256"},{"internalType":"uint256","name":"totalVotesAgainst","type":"uint256"},{"internalType":"uint256","name":"contributorsCount","type":"uint256"},{"internalType":"bool","name":"fundsReleased","type":"bool"}],"internalType":"struct MilestoneManager.Milestone[]","name":"","type":"tuple[]"}],"stateMutability":"view","type":"function"},{"inputs":[{"internalType":"uint256","name":"_campaignId","type":"uint256"},{"internalType":"uint256","name":"_milestoneId","type":"uint256"},{"internalType":"address","name":"_contributor","type":"address"}],"name":"getContribution","outputs":[{"internalType":"uint256","name":"","type":"uint256"}],"stateMutability":"view","type":"function"},{"inputs":[{"internalType":"uint256","name":"_campaignId","type":"uint256"},{"internalType":"uint256","name":"_milestoneId","type":"uint256"}],"name":"getMilestone","outputs":[{"components":[{"internalType":"uint256","name":"id","type":"uint256"},{"internalType":"uint256","name":"campaignId","type":"uint256"},{"internalType":"string","name":"title","type":"string"},{"internalType":"string","name":"description","type":"string"},{"internalType":"uint256","name":"targetAmount","type":"uint256"},{"internalType":"uint256","name":"raisedAmount","type":"uint256"},{"internalType":"uint256","name":"deadline","type":"uint256"},{"internalType":"enum MilestoneManager.MilestoneStatus","name":"status","type":"uint8"},{"internalType":"string","name":"evidenceIpfsHash","type":"string"},{"internalType":"string","name":"evidenceUrl","type":"string"},{"internalType":"uint256","name":"totalVotesFor","type":"uint256"},{"internalType":"uint256","name":"totalVotesAgainst","type":"uint256"},{"internalType":"uint256","name":"contributorsCount","type":"uint256"},{"internalType":"bool","name":"fundsReleased","type":"bool"}],"internalType":"struct MilestoneManager.Milestone","name":"","type":"tuple"}],"stateMutability":"view","type":"function"},{"inputs":[{"internalType":"uint256","name":"_campaignId","type":"uint256"},{"internalType":"uint256","name":"_milestoneId","type":"uint256"},{"internalType":"address","name":"_voter","type":"address"}],"name":"getVote","outputs":[{"components":[{"internalType":"bool","name":"hasVoted","type":"bool"},{"internalType":"bool","name":"inFavour","type":"bool"},{"internalType":"uint256","name":"weight","type":"uint256"}],"internalType":"struct MilestoneManager.Vote","name":"","type":"tuple"}],"stateMutability":"view","type":"function"},{"inputs":[{"internalType":"uint256","name":"_campaignId","type":"uint256"}],"name":"isCampaignRegistered","outputs":[{"internalType":"bool","name":"","type":"bool"}],"stateMutability":"view","type":"function"},{"inputs":[{"internalType":"uint256","name":"","type":"uint256"},{"internalType":"uint256","name":"","type":"uint256"},{"internalType":"address","name":"","type":"address"}],"name":"milestoneContributions","outputs":[{"internalType":"uint256","name":"","type":"uint256"}],"stateMutability":"view","type":"function"},{"inputs":[{"internalType":"uint256","name":"","type":"uint256"}],"name":"milestoneCount","outputs":[{"internalType":"uint256","name":"","type":"uint256"}],"stateMutability":"view","type":"function"},{"inputs":[{"internalType":"uint256","name":"","type":"uint256"},{"internalType":"uint256","name":"","type":"uint256"}],"name":"milestones","outputs":[{"internalType":"uint256","name":"id","type":"uint256"},{"internalType":"uint256","name":"campaignId","type":"uint256"},{"internalType":"string","name":"title","type":"string"},{"internalType":"string","name":"description","type":"string"},{"internalType":"uint256","name":"targetAmount","type":"uint256"},{"internalType":"uint256","name":"raisedAmount","type":"uint256"},{"internalType":"uint256","name":"deadline","type":"uint256"},{"internalType":"enum MilestoneManager.MilestoneStatus","name":"status","type":"uint8"},{"internalType":"string","name":"evidenceIpfsHash","type":"string"},{"internalType":"string","name":"evidenceUrl","type":"string"},{"internalType":"uint256","name":"totalVotesFor","type":"uint256"},{"internalType":"uint256","name":"totalVotesAgainst","type":"uint256"},{"internalType":"uint256","name":"contributorsCount","type":"uint256"},{"internalType":"bool","name":"fundsReleased","type":"bool"}],"stateMutability":"view","type":"function"},{"inputs":[],"name":"oracleAddress","outputs":[{"internalType":"address","name":"","type":"address"}],"stateMutability":"view","type":"function"},{"inputs":[],"name":"owner","outputs":[{"internalType":"address","name":"","type":"address"}],"stateMutability":"view","type":"function"},{"inputs":[{"internalType":"uint256","name":"_campaignId","type":"uint256"},{"internalType":"uint256","name":"_campaignTarget","type":"uint256"}],"name":"registerCampaign","outputs":[],"stateMutability":"nonpayable","type":"function"},{"inputs":[{"internalType":"uint256","name":"_campaignId","type":"uint256"},{"internalType":"uint256","name":"_milestoneId","type":"uint256"}],"name":"rejectMilestoneByOracle","outputs":[],"stateMutability":"nonpayable","type":"function"},{"inputs":[],"name":"renounceOwnership","outputs":[],"stateMutability":"nonpayable","type":"function"},{"inputs":[{"internalType":"address","name":"_newOracle","type":"address"}],"name":"setOracleAddress","outputs":[],"stateMutability":"nonpayable","type":"function"},{"inputs":[{"internalType":"uint256","name":"_quorumBps","type":"uint256"},{"internalType":"uint256","name":"_thresholdBps","type":"uint256"},{"internalType":"uint256","name":"_windowSeconds","type":"uint256"}],"name":"setVotingParams","outputs":[],"stateMutability":"nonpayable","type":"function"},{"inputs":[{"internalType":"uint256","name":"_campaignId","type":"uint256"},{"internalType":"uint256","name":"_milestoneId","type":"uint256"},{"internalType":"string","name":"_evidenceIpfsHash","type":"string"},{"internalType":"string","name":"_evidenceUrl","type":"string"}],"name":"submitMilestoneEvidence","outputs":[],"stateMutability":"nonpayable","type":"function"},{"inputs":[{"internalType":"uint256","name":"","type":"uint256"}],"name":"totalMilestoneTarget","outputs":[{"internalType":"uint256","name":"","type":"uint256"}],"stateMutability":"view","type":"function"},{"inputs":[{"internalType":"address","name":"newOwner","type":"address"}],"name":"transferOwnership","outputs":[],"stateMutability":"nonpayable","type":"function"},{"inputs":[{"internalType":"uint256","name":"_campaignId","type":"uint256"},{"internalType":"uint256","name":"_milestoneId","type":"uint256"},{"internalType":"bool","name":"_inFavour","type":"bool"}],"name":"voteMilestone","outputs":[],"stateMutability":"nonpayable","type":"function"},{"inputs":[{"internalType":"uint256","name":"","type":"uint256"},{"internalType":"uint256","name":"","type":"uint256"},{"internalType":"address","name":"","type":"address"}],"name":"votes","outputs":[{"internalType":"bool","name":"hasVoted","type":"bool"},{"internalType":"bool","name":"inFavour","type":"bool"},{"internalType":"uint256","name":"weight","type":"uint256"}],"stateMutability":"view","type":"function"},{"inputs":[],"name":"votingQuorumBps","outputs":[{"internalType":"uint256","name":"","type":"uint256"}],"stateMutability":"view","type":"function"},{"inputs":[],"name":"votingWindowSeconds","outputs":[{"internalType":"uint256","name":"","type":"uint256"}],"stateMutability":"view","type":"function"},{"inputs":[{"internalType":"uint256","name":"_campaignId","type":"uint256"},{"internalType":"uint256","name":"_milestoneId","type":"uint256"}],"name":"withdrawMilestoneFunds","outputs":[],"stateMutability":"nonpayable","type":"function"},{"stateMutability":"payable","type":"receive"}],"evm":{"bytecode":{"linkReferences":{},"object":"6080346200012357601f62002e9138819003918201601f19168301916001600160401b0383118484101762000128578084926020946040528339810103126200012357516001600160a01b0380821691829003620001235760016000556001549060018060a01b0319913383821617600155604051913391167f8be0079c531659141344cd1fd0a4f28419497f9722a3daafe3b4186f6b6457e0600080a3610bb8600a556113ec600b5562093a80600c558215620000d057506002541617600255604051612d5290816200013f8239f35b62461bcd60e51b815260206004820152602860248201527f4d696c6573746f6e654d616e616765723a206f7261636c65206973207a65726f604482015267206164647265737360c01b6064820152608490fd5b600080fd5b634e487b7160e01b600052604160045260246000fdfe608080604052600436101561001d575b50361561001b57600080fd5b005b60003560e01c9081630e3f72cc1461227f57508063147fefa614611f075780631c376c6314611dda57806328fad64614611d1e57806331aee8a114611b495780633eb6b2c614610bb15780634c69c00f14611a955780634f2b4234146119f3578063583be14e146119bd578063657e62f714611901578063705b14c0146118e5578063715018a61461188857806372ebb42a1461185c578063776e957a146116f75780638da5cb5b146116ce5780638dc7b61514610ec05780638ed9895c14610e42578063918cb24114610bf85780639b03234214610bb1578063a89ae4ba14610b88578063ab881ffd14610b5c578063ad6b7aa614610b30578063b48e784a14610afc578063bb7641e614610720578063bcded7b614610702578063bfe2661214610546578063c8db7e7a146104e2578063cb7c172b146104c4578063d1bc76eb146104a6578063f01a5925146103a9578063f2fde38b146102e05763f91e4b291461018a573861000f565b346102db576020806003193601126102db57600435908160005260048152604060002054916101b883612cdb565b926101c66040519485612458565b808452601f196101d582612cdb565b0160005b8181106102bf575050600191825b828111156102515750505060405191808301818452845180915260408401918060408360051b8701019601926000905b8382106102245786880387f35b90919293948380610240839a603f198b820301865289516125d9565b999701959493919091019101610217565b816000969496526003855260406000208160005285526040600020906000198101918183116102a9576102a19261028a61029b92612c0f565b6102948289612cf2565b5286612cf2565b50612765565b9492946101e7565b634e487b7160e01b600052601160045260246000fd5b84906102cc969496612ba4565b828287010152019492946101d9565b600080fd5b346102db5760203660031901126102db576102f961256c565b6103016126a5565b6001600160a01b0390811690811561035557600154826bffffffffffffffffffffffff60a01b821617600155167f8be0079c531659141344cd1fd0a4f28419497f9722a3daafe3b4186f6b6457e0600080a3005b60405162461bcd60e51b815260206004820152602660248201527f4f776e61626c653a206e6577206f776e657220697320746865207a65726f206160448201526564647265737360d01b6064820152608490fd5b346102db576103b7366123b6565b8015158061048e575b6103c99061282f565b816000526003602052604060002081600052602052604060002060ff60078201541660068110156104785761041191610406600160069314612945565b0154600c5490612758565b42106104205761001b91612a7e565b60405162461bcd60e51b815260206004820152602a60248201527f4d696c6573746f6e654d616e616765723a20766f74696e672077696e646f772060448201526939ba34b6361037b832b760b11b6064820152608490fd5b634e487b7160e01b600052602160045260246000fd5b506000828152600460205260409020548111156103c0565b346102db5760003660031901126102db576020600c54604051908152f35b346102db5760003660031901126102db576020600b54604051908152f35b346102db576104f036612582565b91600052600960205260406000209060005260205260406000209060018060a01b0316600052602052606060406000206001815491015460ff604051928181161515845260081c16151560208301526040820152f35b346102db57610554366123b6565b908060005260206005815260018060a01b0390610579826040600020541633146126fd565b831515806106eb575b61058b9061282f565b610593612894565b826000526003815260406000208460005281526040600020600d8101805460ff811661069b57600783019182549060ff8216600681101561047857600203610656576000948594600486958695600595600160ff1980941617905516179055015480968883526005875260408320541682821561064d575bf115610641577fd33fcd27cbfb73a2d9058c968b560ccb306500bf536133802048489ecc7355e991604051908152a36001600055005b6040513d6000823e3d90fd5b506108fc61060b565b60405162461bcd60e51b815260048101879052601e60248201527f4d696c6573746f6e654d616e616765723a206e6f7420617070726f76656400006044820152606490fd5b60405162461bcd60e51b815260048101859052602260248201527f4d696c6573746f6e654d616e616765723a20616c72656164792072656c656173604482015261195960f21b6064820152608490fd5b506000838152600482526040902054841115610582565b346102db5760003660031901126102db576020600a54604051908152f35b346102db5760803660031901126102db57602480356004356001600160401b036044358181116102db576107589036906004016125ac565b90916064358181116102db576107729036906004016125ac565b91856000526020976005895261079660018060a01b036040600020541633146126fd565b87151580610ae5575b6107a89061282f565b86600052600389526040600020886000528952604060002090600782019182549260ff84166006811015610ad057610a74578715801590610a6b575b15610a17576001809460ff191617905560088101848811610a02576108138861080d83546123cc565b836127ba565b8760008d601f83116001146109935750906009939291600091610988575b5060001960038b901b1c191689861b1790555b0192851161097457506108618461085b84546123cc565b846127ba565b6000601f85116001146108e9579184807facefa0f349f716ad6ed6168191ef3ce7fa814c240f96e4299b6508550ffcb820999a9b95936108d997956000936108de575b501b906000198560031b1c19161790555b6108cc60405196879660408852604088019161280e565b928584039086015261280e565b0390a3005b85013592508d6108a4565b601f19851690836000528a6000209160005b81811061095f5750917facefa0f349f716ad6ed6168191ef3ce7fa814c240f96e4299b6508550ffcb820999a9b959391876108d998969410610945575b505083811b0190556108b5565b840135600019600387901b60f8161c191690558b80610938565b86830135845592840192918c01918c016108fb565b634e487b7160e01b60009081526041600452fd5b90508a01358e610831565b908b949392601f198116846000528360002093896000985b838a106109e75750505060099650106109cd575b50508489811b019055610844565b8b013560001960038c901b60f8161c191690558d806109bf565b85013586559781019790940193928301928d9250898f6109ab565b82634e487b7160e01b60005260416004526000fd5b60405162461bcd60e51b8152600481018d90526027818501527f4d696c6573746f6e654d616e616765723a206d7573742070726f766964652065604482015266766964656e636560c81b6064820152608490fd5b508615156107e4565b60405162461bcd60e51b8152600481018d9052602f818501527f4d696c6573746f6e654d616e616765723a20616c7265616479207375626d697460448201526e1d1959081bdc881c995cdbdb1d9959608a1b6064820152608490fd5b83634e487b7160e01b60005260216004526000fd5b50600087815260048a52604090205488111561079f565b346102db5760203660031901126102db576004356000526005602052602060018060a01b0360406000205416604051908152f35b346102db5760203660031901126102db5760043560005260066020526020604060002054604051908152f35b346102db5760203660031901126102db5760043560005260076020526020604060002054604051908152f35b346102db5760003660031901126102db576002546040516001600160a01b039091168152602090f35b346102db57610bbf36612582565b91600052600860205260406000209060005260205260406000209060018060a01b03166000526020526020604060002054604051908152f35b346102db5760603660031901126102db576044356024356004358215158084036102db5782151580610e2a575b610c2e9061282f565b816000526020600381526040600020846000528152604060002090836000526008815260406000208560005281526040600020336000528152604060002054918215610dce57846000526009825260406000208660005282526040600020336000528252604060002096875460ff8116610d895760ff600784015416600681101561047857600103610d3a57600161001b9981879361ff008a60081b169061ffff1916171781550155600014610d2557600a01610cec838254612758565b90555b60405192835282015282827fc4034c86715a9b37c41bd89fdabb308d4cc0f2aca4a22eb6b311492fefdad74360403394a46129b5565b600b01610d33838254612758565b9055610cef565b60405162461bcd60e51b815260048101859052602160248201527f4d696c6573746f6e654d616e616765723a20766f74696e67206e6f74206f70656044820152603760f91b6064820152608490fd5b60405162461bcd60e51b815260048101859052601f60248201527f4d696c6573746f6e654d616e616765723a20616c726561647920766f746564006044820152606490fd5b60405162461bcd60e51b815260048101839052602e60248201527f4d696c6573746f6e654d616e616765723a206e6f20636f6e747269627574696f60448201526d0dc40e8de40ecdee8ca40eed2e8d60931b6064820152608490fd5b50600082815260046020526040902054831115610c25565b346102db57610e50366123b6565b90610e59612ba4565b5081151580610ea8575b610e6c9061282f565b6000526003602052604060002090600052602052610ea4610e906040600020612c0f565b6040519182916020835260208301906125d9565b0390f35b50600081815260046020526040902054821115610e63565b346102db5760a03660031901126102db576024356001600160401b0381116102db57610ef09036906004016125ac565b90604480356001600160401b0381116102db57610f119036906004016125ac565b9390926004356000526005602052610f3760018060a01b036040600020541633146126fd565b60649283351561167f576084351561162d5782156115ea57600435600052600460205260056040600020541015611596576004356000526007602052610f838435604060002054612758565b906004356000526006602052604060002054821161152d5750600435600052600760205260406000205560046020526040600020610fc18154612765565b9055600435600052600460205260406000205493611014610fe460843542612758565b9160405197610ff289612421565b87895260043560208a0152611008368787612774565b60408a01523691612774565b606087015283356080870152600060a087015260c0860152600060e086015260405161103f8161243d565b600081526101008601526040516110558161243d565b6000815261012086015260006101408601526000610160860152600061018086015260006101a08601526004356000526003602052604060002084600052602052604060002094805186556020810151600187015560408101518051906001600160401b0382116113a05781906110dc826110d360028c01546123cc565b60028c016127ba565b602090601f83116001146114bb576000926114b0575b50508160011b916000199060031b1c19161760028701555b60608101518051906001600160401b0382116113a057819061113c8261113360038c01546123cc565b60038c016127ba565b602090601f831160011461143e57600092611433575b50508160011b916000199060031b1c19161760038701555b6080810151600487015560a0810151600587015560c081015160068701556007860160e082015160068110156104785760ff801983541691161790556101008101518051906001600160401b0382116113a05781906111d9826111d060088c01546123cc565b60088c016127ba565b602090601f83116001146113c1576000926113b6575b50508160011b916000199060031b1c19161760088701555b6101208101519586516001600160401b0381116113a0576112388161122f60098501546123cc565b600985016127ba565b6020601f8211600114611308579181600d926101a0947f7388b0a2d11e0575b753037e87c5c66b795cb79a842ab2cc7dbaae43ff84e7de999a9b6000926112fd575b50508160011b916000199060031b1c19161760098201555b610140840151600a820155610160840151600b820155610180840151600c82015501910151151560ff801983541691161790556112e76112d460843542612758565b916040519360608552606085019161280e565b93356020830152604082015280600435930390a3005b015190508b8061127a565b6009830160005260206000209860005b601f19841681106113885750827f7388b0a2d11e0575b753037e87c5c66b795cb79a842ab2cc7dbaae43ff84e7de98999a6101a09593600193600d96601f1981161061136f575b505050811b016009820155611292565b015160001960f88460031b161c191690558b808061135f565b828201518b556001909a019960209283019201611318565b634e487b7160e01b600052604160045260246000fd5b0151905088806111ef565b9250600889016000526020600020906000935b601f1984168510611418576001945083601f198116106113ff575b505050811b016008870155611207565b015160001960f88460031b161c191690558880806113ef565b818101518355602094850194600190930192909101906113d4565b015190508880611152565b9250600389016000526020600020906000935b601f1984168510611495576001945083601f1981161061147c575b505050811b01600387015561116a565b015160001960f88460031b161c1916905588808061146c565b81810151835560209485019460019093019290910190611451565b0151905088806110f2565b9250600289016000526020600020906000935b601f1984168510611512576001945083601f198116106114f9575b505050811b01600287015561110a565b015160001960f88460031b161c191690558880806114e9565b818101518355602094850194600190930192909101906114ce565b6084907f65747320776f756c64206578636565642063616d706169676e20676f616c0000867f4d696c6573746f6e654d616e616765723a206d696c6573746f6e6520746172676040519362461bcd60e51b855260206004860152603e6024860152840152820152fd5b60849067081c995858da195960c21b857f4d696c6573746f6e654d616e616765723a206d6178206d696c6573746f6e65736040519362461bcd60e51b85526020600486015260286024860152840152820152fd5b83907f4d696c6573746f6e654d616e616765723a20656d707479207469746c650000006040519162461bcd60e51b835260206004840152601d6024840152820152fd5b6084906506265203e20360d41b857f4d696c6573746f6e654d616e616765723a206475726174696f6e206d757374206040519362461bcd60e51b85526020600486015260266024860152840152820152fd5b608490630203e20360e41b857f4d696c6573746f6e654d616e616765723a20746172676574206d7573742062656040519362461bcd60e51b855260206004860152602480860152840152820152fd5b346102db5760003660031901126102db576001546040516001600160a01b039091168152602090f35b346102db5760603660031901126102db576044356024356004356117196126a5565b6127108082116118175782116117c757620151808310611777577ff2b4407bc29c4fa956df36358492d43b143e2221b965f5244605dbf5d5545bca9260609282600a5580600b5581600c5560405192835260208301526040820152a1005b60405162461bcd60e51b815260206004820152602260248201527f4d696c6573746f6e654d616e616765723a2077696e646f7720746f6f2073686f6044820152611c9d60f21b6064820152608490fd5b60405162461bcd60e51b815260206004820152602260248201527f4d696c6573746f6e654d616e616765723a207468726573686f6c64203e203130604482015261302560f01b6064820152608490fd5b60405162461bcd60e51b815260206004820152601f60248201527f4d696c6573746f6e654d616e616765723a2071756f72756d203e2031303025006044820152606490fd5b346102db5760203660031901126102db5760043560005260046020526020604060002054604051908152f35b346102db5760003660031901126102db576118a16126a5565b600180546001600160a01b031981169091556000906001600160a01b03167f8be0079c531659141344cd1fd0a4f28419497f9722a3daafe3b4186f6b6457e08280a3005b346102db5760003660031901126102db57602060405160058152f35b346102db5761190f366123b6565b9061192560018060a01b036002541633146128ea565b811515806119a5575b6119379061282f565b8060005260036020526040600020826000526020526007604060002001805460ff811690600682101561047857611972600160039314612945565b60ff19161790557f888c5547e7a66deaaeef7cc96fdf1b39154057815e8d0f702c46858d074e66a56020604051338152a3005b5060008181526004602052604090205482111561192e565b346102db5760203660031901126102db576004356000526005602052602060018060a01b03604060002054161515604051908152f35b346102db576060611a0336612582565b9060405192611a1184612406565b60008452600060406020958287820152015260005260098352604060002090600052825260406000209060018060a01b0316600052815260406000209060405190611a5b82612406565b82546040600160ff831615159586865260ff8587019460081c16151584520154930192835260405193845251151590830152516040820152f35b346102db5760203660031901126102db57611aae61256c565b611ab66126a5565b6001600160a01b03908116908115611b0457816002549182167fd3afd1676752459d3aa8b6f73633fac8efd724610da9c4cd8d8e4fa1631841fb600080a36001600160a01b03191617600255005b60405162461bcd60e51b815260206004820152601e60248201527f4d696c6573746f6e654d616e616765723a207a65726f206164647265737300006044820152606490fd5b346102db57611b57366123b6565b9081151580611d06575b611b6a9061282f565b611b72612894565b80600052602060038152604060002083600052815260076040600020019060ff82541660068110156104785760038114908115611cfb575b5015611cb857826000526008815260406000208460005281526040600020336000528152604060002054918215611c675783600052600882526040600020856000528252604060002033600052825260006040812055805460ff8116600681101561047857600314611c57575b50506000808080853382f115610641577fd33fcd27cbfb73a2d9058c968b560ccb306500bf536133802048489ecc7355e991604051908152a36001600055005b60ff191660051790558480611c17565b60405162461bcd60e51b815260048101839052602360248201527f4d696c6573746f6e654d616e616765723a206e6f7468696e6720746f207265666044820152621d5b9960ea1b6064820152608490fd5b6064906040519062461bcd60e51b825280600483015260248201527f4d696c6573746f6e654d616e616765723a206e6f7420726566756e6461626c656044820152fd5b600591501485611baa565b50600081815260046020526040902054821115611b61565b346102db57611d2c366123b6565b90611d4260018060a01b036002541633146128ea565b81151580611dc2575b611d549061282f565b8060005260036020526040600020826000526020526007604060002001805460ff811690600682101561047857611d8f600160029314612945565b60ff19161790557f9ffbb52f2a1362273cd74689a516ca4f52c4282dc13e2e68b7e0646a9a7af7a36020604051338152a3005b50600081815260046020526040902054821115611d4b565b346102db57611de8366123b6565b9060005260036020526040600020906000526020526040600020805460018201549160028101611e1790612479565b611e2360038301612479565b91600481015492600582015493600683015490600784015460ff169060088501611e4c90612479565b91611e5960098701612479565b93600a87015498600b88015496600c89015498600d015460ff16996040519d8e809e8152602001528c6101c06040819201528d01611e969161251f565b8c810360608e0152611ea79161251f565b9360808c015260a08b015260c08a015260e08901611ec49161255f565b878103610100890152611ed69161251f565b868103610120880152611ee89161251f565b9361014086015261016085015261018084015215156101a08301520390f35b611f10366123b6565b80151580612267575b611f229061282f565b611f2a612894565b3415612222578160005260209160038352604060002082600052835260406000209260ff6007850154166006811015610478576121c857600684015442101561217a57816000526005815260018060a01b03604060002054163314612122576004840154936005810194855480821160001461211957611fa991612887565b80156120ae578034116000146120a657945b611fc58634612887565b9184600052600884526040600020866000528452604060002033600052845260406000205415612091575b50836000526008835260406000208560005283526040600020336000528352604060002061201f878254612758565b905561202c868254612758565b90558015801561206b575b50507f1e3bc6edf35d9744b767980df51144c565ebc7f201c4a611d2a3e9888deef730906040519485523394a46001600055005b600080809381938290612088575b3390f115610641578480612037565b506108fc612079565b600c0161209e8154612765565b905586611ff0565b503494611fbb565b60405162461bcd60e51b815260048101849052603a60248201527f4d696c6573746f6e654d616e616765723a206d696c6573746f6e652066756e6460448201527f696e672074617267657420616c726561647920726561636865640000000000006064820152608490fd5b50506000611fa9565b6084906040519062461bcd60e51b82526004820152602b60248201527f4d696c6573746f6e654d616e616765723a2063726561746f722063616e6e6f7460448201526a20636f6e7472696275746560a81b6064820152fd5b6084906040519062461bcd60e51b82526004820152602160248201527f4d696c6573746f6e654d616e616765723a20646561646c696e652070617373656044820152601960fa1b6064820152fd5b6084906040519062461bcd60e51b82526004820152602d60248201527f4d696c6573746f6e654d616e616765723a206e6f7420616363657074696e672060448201526c636f6e747269627574696f6e7360981b6064820152fd5b60405162461bcd60e51b815260206004820152601f60248201527f4d696c6573746f6e654d616e616765723a206d7573742073656e6420455448006044820152606490fd5b50600082815260046020526040902054811115611f19565b346102db5761228d366123b6565b600082815260056020526040902054919290916001600160a01b03166123685750801561230d578160005260056020526040600020336bffffffffffffffffffffffff60a01b825416179055600660205260406000205533907f4f373b7130fde2eca917b55949b3f1b3ec21d20d77fe40cab78cced7b9ebd05c600080a3005b60405162461bcd60e51b815260206004820152602d60248201527f4d696c6573746f6e654d616e616765723a2063616d706169676e20746172676560448201526c074206d757374206265203e203609c1b6064820152608490fd5b62461bcd60e51b8152602060048201526024808201527f4d696c6573746f6e654d616e616765723a20616c726561647920726567697374604482015263195c995960e21b6064820152608490fd5b60409060031901126102db576004359060243590565b90600182811c921680156123fc575b60208310146123e657565b634e487b7160e01b600052602260045260246000fd5b91607f16916123db565b606081019081106001600160401b038211176113a057604052565b6101c081019081106001600160401b038211176113a057604052565b602081019081106001600160401b038211176113a057604052565b90601f801991011681019081106001600160401b038211176113a057604052565b906040519182600082549261248d846123cc565b9081845260019485811690816000146124fc57506001146124b9575b50506124b792500383612458565b565b9093915060005260209081600020936000915b8183106124e45750506124b7935082010138806124a9565b855488840185015294850194879450918301916124cc565b9150506124b794506020925060ff191682840152151560051b82010138806124a9565b919082519283825260005b84811061254b575050826000602080949584010152601f8019910116010190565b60208183018101518483018201520161252a565b9060068210156104785752565b600435906001600160a01b03821682036102db57565b60609060031901126102db5760043590602435906044356001600160a01b03811681036102db5790565b9181601f840112156102db578235916001600160401b0383116102db57602083818601950101116102db57565b90815181526020820151602082015261267461266061261c61260a60408601516101c080604088015286019061251f565b6060860151858203606087015261251f565b6080850151608085015260a085015160a085015260c085015160c085015261264c60e086015160e086019061255f565b61010080860151908583039086015261251f565b61012080850151908483039085015261251f565b916101408082015190830152610160808201519083015261018080820151908301526101a080910151151591015290565b6001546001600160a01b031633036126b957565b606460405162461bcd60e51b815260206004820152602060248201527f4f776e61626c653a2063616c6c6572206973206e6f7420746865206f776e65726044820152fd5b1561270457565b60405162461bcd60e51b815260206004820152602660248201527f4d696c6573746f6e654d616e616765723a206e6f742063616d706169676e20636044820152653932b0ba37b960d11b6064820152608490fd5b919082018092116102a957565b60001981146102a95760010190565b9291926001600160401b0382116113a0576040519161279d601f8201601f191660200184612458565b8294818452818301116102db578281602093846000960137010152565b90601f81116127c857505050565b600091825260208220906020601f850160051c83019410612804575b601f0160051c01915b8281106127f957505050565b8181556001016127ed565b90925082906127e4565b908060209392818452848401376000828201840152601f01601f1916010190565b1561283657565b60405162461bcd60e51b815260206004820152602360248201527f4d696c6573746f6e654d616e616765723a20696e76616c6964206d696c6573746044820152626f6e6560e81b6064820152608490fd5b919082039182116102a957565b6002600054146128a5576002600055565b60405162461bcd60e51b815260206004820152601f60248201527f5265656e7472616e637947756172643a207265656e7472616e742063616c6c006044820152606490fd5b156128f157565b60405162461bcd60e51b815260206004820152602660248201527f4d696c6573746f6e654d616e616765723a2063616c6c6572206973206e6f74206044820152656f7261636c6560d01b6064820152608490fd5b1561294c57565b60405162461bcd60e51b815260206004820152602860248201527f4d696c6573746f6e654d616e616765723a206e6f7420696e205375626d697474604482015267656420737461746560c01b6064820152608490fd5b818102929181159184041417156102a957565b9060008281526003602052604081208282526020526040812090600a8201546129e2600b84015482612758565b916127109182840294848604841485151715612a6a576005015494612a09600a54876129a2565b11612a6157828102928184041490151715612a4d5750612a2b600b54836129a2565b11612a3b5750506124b791612a7e565b14612a44575050565b6124b791612a7e565b634e487b7160e01b81526011600452602490fd5b50505050505050565b634e487b7160e01b83526011600452602483fd5b600081815260036020526040812083825260205260408120600781019081549060ff82166006811015612b9057600103612b8857612ac5600b600a83015492015482612758565b908115159182612b48575b505015612b115750805460ff191660021790556040519081527f9ffbb52f2a1362273cd74689a516ca4f52c4282dc13e2e68b7e0646a9a7af7a390602090a3565b60ff191660031790556040519081527f888c5547e7a66deaaeef7cc96fdf1b39154057815e8d0f702c46858d074e66a590602090a3565b90915061271091828102928184041490151715612b7457600b54612b6b916129a2565b11153880612ad0565b634e487b7160e01b85526011600452602485fd5b505050505050565b634e487b7160e01b85526021600452602485fd5b60405190612bb182612421565b816101a0600091828152826020820152606060408201526060808201528260808201528260a08201528260c08201528260e0820152606061010082015260606101208201528261014082015282610160820152826101808201520152565b90604051612c1c81612421565b80928054825260018101546020830152612c3860028201612479565b6040830152612c4960038201612479565b606083015260048101546080830152600581015460a0830152600681015460c083015260ff60078201541690600682101561047857600d60ff916101a09360e0860152612c9860088201612479565b610100860152612caa60098201612479565b610120860152600a810154610140860152600b810154610160860152600c8101546101808601520154161515910152565b6001600160401b0381116113a05760051b60200190565b8051821015612d065760209160051b010190565b634e487b7160e01b600052603260045260246000fdfea264697066735822122098b0fdefc6924cc71ab3ccd0bcada6a676d3d59af70f92d8e86237ce0a97fe6e64736f6c63430008130033","opcodes":"PUSH1 0x80 CALLVALUE PUSH3 0x123 JUMPI PUSH1 0x1F PUSH3 0x2E91 CODESIZE DUP2 SWAP1 SUB SWAP2 DUP3 ADD PUSH1 0x1F NOT AND DUP4 ADD SWAP2 PUSH1 0x1 PUSH1 0x1 PUSH1 0x40 SHL SUB DUP4 GT DUP5 DUP5 LT OR PUSH3 0x128 JUMPI DUP1 DUP5 SWAP3 PUSH1 0x20 SWAP5 PUSH1 0x40 MSTORE DUP4 CODECOPY DUP2 ADD SUB SLT PUSH3 0x123 JUMPI MLOAD PUSH1 0x1 PUSH1 0x1 PUSH1 0xA0 SHL SUB DUP1 DUP3 AND SWAP2 DUP3 SWAP1 SUB PUSH3 0x123 JUMPI PUSH1 0x1 PUSH1 0x0 SSTORE PUSH1 0x1 SLOAD SWAP1 PUSH1 0x1 DUP1 PUSH1 0xA0 SHL SUB NOT SWAP2 CALLER DUP4 DUP3 AND OR PUSH1 0x1 SSTORE PUSH1 0x40 MLOAD SWAP2 CALLER SWAP2 AND PUSH32 0x8BE0079C531659141344CD1FD0A4F28419497F9722A3DAAFE3B4186F6B6457E0 PUSH1 0x0 DUP1 LOG3 PUSH2 0xBB8 PUSH1 0xA SSTORE PUSH2 0x13EC PUSH1 0xB SSTORE PUSH3 0x93A80 PUSH1 0xC SSTORE DUP3 ISZERO PUSH3 0xD0 JUMPI POP PUSH1 0x2 SLOAD AND OR PUSH1 0x2 SSTORE PUSH1 0x40 MLOAD PUSH2 0x2D52 SWAP1 DUP2 PUSH3 0x13F DUP3 CODECOPY RETURN JUMPDEST PUSH3 0x461BCD PUSH1 0xE5 SHL DUP2 MSTORE PUSH1 0x20 PUSH1 0x4 DUP3 ADD MSTORE PUSH1 0x28 PUSH1 0x24 DUP3 ADD MSTORE PUSH32 0x4D696C6573746F6E654D616E616765723A206F7261636C65206973207A65726F PUSH1 0x44 DUP3 ADD MSTORE PUSH8 0x2061646472657373 PUSH1 0xC0 SHL PUSH1 0x64 DUP3 ADD MSTORE PUSH1 0x84 SWAP1 REVERT JUMPDEST PUSH1 0x0 DUP1 REVERT JUMPDEST PUSH4 0x4E487B71 PUSH1 0xE0 SHL PUSH1 0x0 MSTORE PUSH1 0x41 PUSH1 0x4 MSTORE PUSH1 0x24 PUSH1 0x0 REVERT INVALID PUSH1 0x80 DUP1 PUSH1 0x40 MSTORE PUSH1 0x4 CALLDATASIZE LT ISZERO PUSH2 0x1D JUMPI JUMPDEST POP CALLDATASIZE ISZERO PUSH2 0x1B JUMPI PUSH1 0x0 DUP1 REVERT JUMPDEST STOP JUMPDEST PUSH1 0x0 CALLDATALOAD PUSH1 0xE0 SHR SWAP1 DUP2 PUSH4 0xE3F72CC EQ PUSH2 0x227F JUMPI POP DUP1 PUSH4 0x147FEFA6 EQ PUSH2 0x1F07 JUMPI DUP1 PUSH4 0x1C376C63 EQ PUSH2 0x1DDA JUMPI DUP1 PUSH4 0x28FAD646 EQ PUSH2 0x1D1E JUMPI DUP1 PUSH4 0x31AEE8A1 EQ PUSH2 0x1B49 JUMPI DUP1 PUSH4 0x3EB6B2C6 EQ PUSH2 0xBB1 JUMPI DUP1 PUSH4 0x4C69C00F EQ PUSH2 0x1A95 JUMPI DUP1 PUSH4 0x4F2B4234 EQ PUSH2 0x19F3 JUMPI DUP1 PUSH4 0x583BE14E EQ PUSH2 0x19BD JUMPI DUP1 PUSH4 0x657E62F7 EQ PUSH2 0x1901 JUMPI DUP1 PUSH4 0x705B14C0 EQ PUSH2 0x18E5 JUMPI DUP1 PUSH4 0x715018A6 EQ PUSH2 0x1888 JUMPI DUP1 PUSH4 0x72EBB42A EQ PUSH2 0x185C JUMPI DUP1 PUSH4 0x776E957A EQ PUSH2 0x16F7 JUMPI DUP1 PUSH4 0x8DA5CB5B EQ PUSH2 0x16CE JUMPI DUP1 PUSH4 0x8DC7B615 EQ PUSH2 0xEC0 JUMPI DUP1 PUSH4 0x8ED9895C EQ PUSH2 0xE42 JUMPI DUP1 PUSH4 0x918CB241 EQ PUSH2 0xBF8 JUMPI DUP1 PUSH4 0x9B032342 EQ PUSH2 0xBB1 JUMPI DUP1 PUSH4 0xA89AE4BA EQ PUSH2 0xB88 JUMPI DUP1 PUSH4 0xAB881FFD EQ PUSH2 0xB5C JUMPI DUP1 PUSH4 0xAD6B7AA6 EQ PUSH2 0xB30 JUMPI DUP1 PUSH4 0xB48E784A EQ PUSH2 0xAFC JUMPI DUP1 PUSH4 0xBB7641E6 EQ PUSH2 0x720 JUMPI DUP1 PUSH4 0xBCDED7B6 EQ PUSH2 0x702 JUMPI DUP1 PUSH4 0xBFE26612 EQ PUSH2 0x546 JUMPI DUP1 PUSH4 0xC8DB7E7A EQ PUSH2 0x4E2 JUMPI DUP1 PUSH4 0xCB7C172B EQ PUSH2 0x4C4 JUMPI DUP1 PUSH4 0xD1BC76EB EQ PUSH2 0x4A6 JUMPI DUP1 PUSH4 0xF01A5925 EQ PUSH2 0x3A9 JUMPI DUP1 PUSH4 0xF2FDE38B EQ PUSH2 0x2E0 JUMPI PUSH4 0xF91E4B29 EQ PUSH2 0x18A JUMPI CODESIZE PUSH2 0xF JUMP JUMPDEST CALLVALUE PUSH2 0x2DB JUMPI PUSH1 0x20 DUP1 PUSH1 0x3 NOT CALLDATASIZE ADD SLT PUSH2 0x2DB JUMPI PUSH1 0x4 CALLDATALOAD SWAP1 DUP2 PUSH1 0x0 MSTORE PUSH1 0x4 DUP2 MSTORE PUSH1 0x40 PUSH1 0x0 KECCAK256 SLOAD SWAP2 PUSH2 0x1B8 DUP4 PUSH2 0x2CDB JUMP JUMPDEST SWAP3 PUSH2 0x1C6 PUSH1 0x40 MLOAD SWAP5 DUP6 PUSH2 0x2458 JUMP JUMPDEST DUP1 DUP5 MSTORE PUSH1 0x1F NOT PUSH2 0x1D5 DUP3 PUSH2 0x2CDB JUMP JUMPDEST ADD PUSH1 0x0 JUMPDEST DUP2 DUP2 LT PUSH2 0x2BF JUMPI POP POP PUSH1 0x1 SWAP2 DUP3 JUMPDEST DUP3 DUP2 GT ISZERO PUSH2 0x251 JUMPI POP POP POP PUSH1 0x40 MLOAD SWAP2 DUP1 DUP4 ADD DUP2 DUP5 MSTORE DUP5 MLOAD DUP1 SWAP2 MSTORE PUSH1 0x40 DUP5 ADD SWAP2 DUP1 PUSH1 0x40 DUP4 PUSH1 0x5 SHL DUP8 ADD ADD SWAP7 ADD SWAP3 PUSH1 0x0 SWAP1 JUMPDEST DUP4 DUP3 LT PUSH2 0x224 JUMPI DUP7 DUP9 SUB DUP8 RETURN JUMPDEST SWAP1 SWAP2 SWAP3 SWAP4 SWAP5 DUP4 DUP1 PUSH2 0x240 DUP4 SWAP11 PUSH1 0x3F NOT DUP12 DUP3 SUB ADD DUP7 MSTORE DUP10 MLOAD PUSH2 0x25D9 JUMP JUMPDEST SWAP10 SWAP8 ADD SWAP6 SWAP5 SWAP4 SWAP2 SWAP1 SWAP2 ADD SWAP2 ADD PUSH2 0x217 JUMP JUMPDEST DUP2 PUSH1 0x0 SWAP7 SWAP5 SWAP7 MSTORE PUSH1 0x3 DUP6 MSTORE PUSH1 0x40 PUSH1 0x0 KECCAK256 DUP2 PUSH1 0x0 MSTORE DUP6 MSTORE PUSH1 0x40 PUSH1 0x0 KECCAK256 SWAP1 PUSH1 0x0 NOT DUP2 ADD SWAP2 DUP2 DUP4 GT PUSH2 0x2A9 JUMPI PUSH2 0x2A1 SWAP3 PUSH2 0x28A PUSH2 0x29B SWAP3 PUSH2 0x2C0F JUMP JUMPDEST PUSH2 0x294 DUP3 DUP10 PUSH2 0x2CF2 JUMP JUMPDEST MSTORE DUP7 PUSH2 0x2CF2 JUMP JUMPDEST POP PUSH2 0x2765 JUMP JUMPDEST SWAP5 SWAP3 SWAP5 PUSH2 0x1E7 JUMP JUMPDEST PUSH4 0x4E487B71 PUSH1 0xE0 SHL PUSH1 0x0 MSTORE PUSH1 0x11 PUSH1 0x4 MSTORE PUSH1 0x24 PUSH1 0x0 REVERT JUMPDEST DUP5 SWAP1 PUSH2 0x2CC SWAP7 SWAP5 SWAP7 PUSH2 0x2BA4 JUMP JUMPDEST DUP3 DUP3 DUP8 ADD ADD MSTORE ADD SWAP5 SWAP3 SWAP5 PUSH2 0x1D9 JUMP JUMPDEST PUSH1 0x0 DUP1 REVERT JUMPDEST CALLVALUE PUSH2 0x2DB JUMPI PUSH1 0x20 CALLDATASIZE PUSH1 0x3 NOT ADD SLT PUSH2 0x2DB JUMPI PUSH2 0x2F9 PUSH2 0x256C JUMP JUMPDEST PUSH2 0x301 PUSH2 0x26A5 JUMP JUMPDEST PUSH1 0x1 PUSH1 0x1 PUSH1 0xA0 SHL SUB SWAP1 DUP2 AND SWAP1 DUP2 ISZERO PUSH2 0x355 JUMPI PUSH1 0x1 SLOAD DUP3 PUSH12 0xFFFFFFFFFFFFFFFFFFFFFFFF PUSH1 0xA0 SHL DUP3 AND OR PUSH1 0x1 SSTORE AND PUSH32 0x8BE0079C531659141344CD1FD0A4F28419497F9722A3DAAFE3B4186F6B6457E0 PUSH1 0x0 DUP1 LOG3 STOP JUMPDEST PUSH1 0x40 MLOAD PUSH3 0x461BCD PUSH1 0xE5 SHL DUP2 MSTORE PUSH1 0x20 PUSH1 0x4 DUP3 ADD MSTORE PUSH1 0x26 PUSH1 0x24 DUP3 ADD MSTORE PUSH32 0x4F776E61626C653A206E6577206F776E657220697320746865207A65726F2061 PUSH1 0x44 DUP3 ADD MSTORE PUSH6 0x646472657373 PUSH1 0xD0 SHL PUSH1 0x64 DUP3 ADD MSTORE PUSH1 0x84 SWAP1 REVERT JUMPDEST CALLVALUE PUSH2 0x2DB JUMPI PUSH2 0x3B7 CALLDATASIZE PUSH2 0x23B6 JUMP JUMPDEST DUP1 ISZERO ISZERO DUP1 PUSH2 0x48E JUMPI JUMPDEST PUSH2 0x3C9 SWAP1 PUSH2 0x282F JUMP JUMPDEST DUP2 PUSH1 0x0 MSTORE PUSH1 0x3 PUSH1 0x20 MSTORE PUSH1 0x40 PUSH1 0x0 KECCAK256 DUP2 PUSH1 0x0 MSTORE PUSH1 0x20 MSTORE PUSH1 0x40 PUSH1 0x0 KECCAK256 PUSH1 0xFF PUSH1 0x7 DUP3 ADD SLOAD AND PUSH1 0x6 DUP2 LT ISZERO PUSH2 0x478 JUMPI PUSH2 0x411 SWAP2 PUSH2 0x406 PUSH1 0x1 PUSH1 0x6 SWAP4 EQ PUSH2 0x2945 JUMP JUMPDEST ADD SLOAD PUSH1 0xC SLOAD SWAP1 PUSH2 0x2758 JUMP JUMPDEST TIMESTAMP LT PUSH2 0x420 JUMPI PUSH2 0x1B SWAP2 PUSH2 0x2A7E JUMP JUMPDEST PUSH1 0x40 MLOAD PUSH3 0x461BCD PUSH1 0xE5 SHL DUP2 MSTORE PUSH1 0x20 PUSH1 0x4 DUP3 ADD MSTORE PUSH1 0x2A PUSH1 0x24 DUP3 ADD MSTORE PUSH32 0x4D696C6573746F6E654D616E616765723A20766F74696E672077696E646F7720 PUSH1 0x44 DUP3 ADD MSTORE PUSH10 0x39BA34B6361037B832B7 PUSH1 0xB1 SHL PUSH1 0x64 DUP3 ADD MSTORE PUSH1 0x84 SWAP1 REVERT JUMPDEST PUSH4 0x4E487B71 PUSH1 0xE0 SHL PUSH1 0x0 MSTORE PUSH1 0x21 PUSH1 0x4 MSTORE PUSH1 0x24 PUSH1 0x0 REVERT JUMPDEST POP PUSH1 0x0 DUP3 DUP2 MSTORE PUSH1 0x4 PUSH1 0x20 MSTORE PUSH1 0x40 SWAP1 KECCAK256 SLOAD DUP2 GT ISZERO PUSH2 0x3C0 JUMP JUMPDEST CALLVALUE PUSH2 0x2DB JUMPI PUSH1 0x0 CALLDATASIZE PUSH1 0x3 NOT ADD SLT PUSH2 0x2DB JUMPI PUSH1 0x20 PUSH1 0xC SLOAD PUSH1 0x40 MLOAD SWAP1 DUP2 MSTORE RETURN JUMPDEST CALLVALUE PUSH2 0x2DB JUMPI PUSH1 0x0 CALLDATASIZE PUSH1 0x3 NOT ADD SLT PUSH2 0x2DB JUMPI PUSH1 0x20 PUSH1 0xB SLOAD PUSH1 0x40 MLOAD SWAP1 DUP2 MSTORE RETURN JUMPDEST CALLVALUE PUSH2 0x2DB JUMPI PUSH2 0x4F0 CALLDATASIZE PUSH2 0x2582 JUMP JUMPDEST SWAP2 PUSH1 0x0 MSTORE PUSH1 0x9 PUSH1 0x20 MSTORE PUSH1 0x40 PUSH1 0x0 KECCAK256 SWAP1 PUSH1 0x0 MSTORE PUSH1 0x20 MSTORE PUSH1 0x40 PUSH1 0x0 KECCAK256 SWAP1 PUSH1 0x1 DUP1 PUSH1 0xA0 SHL SUB AND PUSH1 0x0 MSTORE PUSH1 0x20 MSTORE PUSH1 0x60 PUSH1 0x40 PUSH1 0x0 KECCAK256 PUSH1 0x1 DUP2 SLOAD SWAP2 ADD SLOAD PUSH1 0xFF PUSH1 0x40 MLOAD SWAP3 DUP2 DUP2 AND ISZERO ISZERO DUP5 MSTORE PUSH1 0x8 SHR AND ISZERO ISZERO PUSH1 0x20 DUP4 ADD MSTORE PUSH1 0x40 DUP3 ADD MSTORE RETURN JUMPDEST CALLVALUE PUSH2 0x2DB JUMPI PUSH2 0x554 CALLDATASIZE PUSH2 0x23B6 JUMP JUMPDEST SWAP1 DUP1 PUSH1 0x0 MSTORE PUSH1 0x20 PUSH1 0x5 DUP2 MSTORE PUSH1 0x1 DUP1 PUSH1 0xA0 SHL SUB SWAP1 PUSH2 0x579 DUP3 PUSH1 0x40 PUSH1 0x0 KECCAK256 SLOAD AND CALLER EQ PUSH2 0x26FD JUMP JUMPDEST DUP4 ISZERO ISZERO DUP1 PUSH2 0x6EB JUMPI JUMPDEST PUSH2 0x58B SWAP1 PUSH2 0x282F JUMP JUMPDEST PUSH2 0x593 PUSH2 0x2894 JUMP JUMPDEST DUP3 PUSH1 0x0 MSTORE PUSH1 0x3 DUP2 MSTORE PUSH1 0x40 PUSH1 0x0 KECCAK256 DUP5 PUSH1 0x0 MSTORE DUP2 MSTORE PUSH1 0x40 PUSH1 0x0 KECCAK256 PUSH1 0xD DUP2 ADD DUP1 SLOAD PUSH1 0xFF DUP2 AND PUSH2 0x69B JUMPI PUSH1 0x7 DUP4 ADD SWAP2 DUP3 SLOAD SWAP1 PUSH1 0xFF DUP3 AND PUSH1 0x6 DUP2 LT ISZERO PUSH2 0x478 JUMPI PUSH1 0x2 SUB PUSH2 0x656 JUMPI PUSH1 0x0 SWAP5 DUP6 SWAP5 PUSH1 0x4 DUP7 SWAP6 DUP7 SWAP6 PUSH1 0x5 SWAP6 PUSH1 0x1 PUSH1 0xFF NOT DUP1 SWAP5 AND OR SWAP1 SSTORE AND OR SWAP1 SSTORE ADD SLOAD DUP1 SWAP7 DUP9 DUP4 MSTORE PUSH1 0x5 DUP8 MSTORE PUSH1 0x40 DUP4 KECCAK256 SLOAD AND DUP3 DUP3 ISZERO PUSH2 0x64D JUMPI JUMPDEST CALL ISZERO PUSH2 0x641 JUMPI PUSH32 0xD33FCD27CBFB73A2D9058C968B560CCB306500BF536133802048489ECC7355E9 SWAP2 PUSH1 0x40 MLOAD SWAP1 DUP2 MSTORE LOG3 PUSH1 0x1 PUSH1 0x0 SSTORE STOP JUMPDEST PUSH1 0x40 MLOAD RETURNDATASIZE PUSH1 0x0 DUP3 RETURNDATACOPY RETURNDATASIZE SWAP1 REVERT JUMPDEST POP PUSH2 0x8FC PUSH2 0x60B JUMP JUMPDEST PUSH1 0x40 MLOAD PUSH3 0x461BCD PUSH1 0xE5 SHL DUP2 MSTORE PUSH1 0x4 DUP2 ADD DUP8 SWAP1 MSTORE PUSH1 0x1E PUSH1 0x24 DUP3 ADD MSTORE PUSH32 0x4D696C6573746F6E654D616E616765723A206E6F7420617070726F7665640000 PUSH1 0x44 DUP3 ADD MSTORE PUSH1 0x64 SWAP1 REVERT JUMPDEST PUSH1 0x40 MLOAD PUSH3 0x461BCD PUSH1 0xE5 SHL DUP2 MSTORE PUSH1 0x4 DUP2 ADD DUP6 SWAP1 MSTORE PUSH1 0x22 PUSH1 0x24 DUP3 ADD MSTORE PUSH32 0x4D696C6573746F6E654D616E616765723A20616C72656164792072656C656173 PUSH1 0x44 DUP3 ADD MSTORE PUSH2 0x1959 PUSH1 0xF2 SHL PUSH1 0x64 DUP3 ADD MSTORE PUSH1 0x84 SWAP1 REVERT JUMPDEST POP PUSH1 0x0 DUP4 DUP2 MSTORE PUSH1 0x4 DUP3 MSTORE PUSH1 0x40 SWAP1 KECCAK256 SLOAD DUP5 GT ISZERO PUSH2 0x582 JUMP JUMPDEST CALLVALUE PUSH2 0x2DB JUMPI PUSH1 0x0 CALLDATASIZE PUSH1 0x3 NOT ADD SLT PUSH2 0x2DB JUMPI PUSH1 0x20 PUSH1 0xA SLOAD PUSH1 0x40 MLOAD SWAP1 DUP2 MSTORE RETURN JUMPDEST CALLVALUE PUSH2 0x2DB JUMPI PUSH1 0x80 CALLDATASIZE PUSH1 0x3 NOT ADD SLT PUSH2 0x2DB JUMPI PUSH1 0x24 DUP1 CALLDATALOAD PUSH1 0x4 CALLDATALOAD PUSH1 0x1 PUSH1 0x1 PUSH1 0x40 SHL SUB PUSH1 0x44 CALLDATALOAD DUP2 DUP2 GT PUSH2 0x2DB JUMPI PUSH2 0x758 SWAP1 CALLDATASIZE SWAP1 PUSH1 0x4 ADD PUSH2 0x25AC JUMP JUMPDEST SWAP1 SWAP2 PUSH1 0x64 CALLDATALOAD DUP2 DUP2 GT PUSH2 0x2DB JUMPI PUSH2 0x772 SWAP1 CALLDATASIZE SWAP1 PUSH1 0x4 ADD PUSH2 0x25AC JUMP JUMPDEST SWAP2 DUP6 PUSH1 0x0 MSTORE PUSH1 0x20 SWAP8 PUSH1 0x5 DUP10 MSTORE PUSH2 0x796 PUSH1 0x1 DUP1 PUSH1 0xA0 SHL SUB PUSH1 0x40 PUSH1 0x0 KECCAK256 SLOAD AND CALLER EQ PUSH2 0x26FD JUMP JUMPDEST DUP8 ISZERO ISZERO DUP1 PUSH2 0xAE5 JUMPI JUMPDEST PUSH2 0x7A8 SWAP1 PUSH2 0x282F JUMP JUMPDEST DUP7 PUSH1 0x0 MSTORE PUSH1 0x3 DUP10 MSTORE PUSH1 0x40 PUSH1 0x0 KECCAK256 DUP9 PUSH1 0x0 MSTORE DUP10 MSTORE PUSH1 0x40 PUSH1 0x0 KECCAK256 SWAP1 PUSH1 0x7 DUP3 ADD SWAP2 DUP3 SLOAD SWAP3 PUSH1 0xFF DUP5 AND PUSH1 0x6 DUP2 LT ISZERO PUSH2 0xAD0 JUMPI PUSH2 0xA74 JUMPI DUP8 ISZERO DUP1 ISZERO SWAP1 PUSH2 0xA6B JUMPI JUMPDEST ISZERO PUSH2 0xA17 JUMPI PUSH1 0x1 DUP1 SWAP5 PUSH1 0xFF NOT AND OR SWAP1 SSTORE PUSH1 0x8 DUP2 ADD DUP5 DUP9 GT PUSH2 0xA02 JUMPI PUSH2 0x813 DUP9 PUSH2 0x80D DUP4 SLOAD PUSH2 0x23CC JUMP JUMPDEST DUP4 PUSH2 0x27BA JUMP JUMPDEST DUP8 PUSH1 0x0 DUP14 PUSH1 0x1F DUP4 GT PUSH1 0x1 EQ PUSH2 0x993 JUMPI POP SWAP1 PUSH1 0x9 SWAP4 SWAP3 SWAP2 PUSH1 0x0 SWAP2 PUSH2 0x988 JUMPI JUMPDEST POP PUSH1 0x0 NOT PUSH1 0x3 DUP12 SWAP1 SHL SHR NOT AND DUP10 DUP7 SHL OR SWAP1 SSTORE JUMPDEST ADD SWAP3 DUP6 GT PUSH2 0x974 JUMPI POP PUSH2 0x861 DUP5 PUSH2 0x85B DUP5 SLOAD PUSH2 0x23CC JUMP JUMPDEST DUP5 PUSH2 0x27BA JUMP JUMPDEST PUSH1 0x0 PUSH1 0x1F DUP6 GT PUSH1 0x1 EQ PUSH2 0x8E9 JUMPI SWAP2 DUP5 DUP1 PUSH32 0xACEFA0F349F716AD6ED6168191EF3CE7FA814C240F96E4299B6508550FFCB820 SWAP10 SWAP11 SWAP12 SWAP6 SWAP4 PUSH2 0x8D9 SWAP8 SWAP6 PUSH1 0x0 SWAP4 PUSH2 0x8DE JUMPI JUMPDEST POP SHL SWAP1 PUSH1 0x0 NOT DUP6 PUSH1 0x3 SHL SHR NOT AND OR SWAP1 SSTORE JUMPDEST PUSH2 0x8CC PUSH1 0x40 MLOAD SWAP7 DUP8 SWAP7 PUSH1 0x40 DUP9 MSTORE PUSH1 0x40 DUP9 ADD SWAP2 PUSH2 0x280E JUMP JUMPDEST SWAP3 DUP6 DUP5 SUB SWAP1 DUP7 ADD MSTORE PUSH2 0x280E JUMP JUMPDEST SUB SWAP1 LOG3 STOP JUMPDEST DUP6 ADD CALLDATALOAD SWAP3 POP DUP14 PUSH2 0x8A4 JUMP JUMPDEST PUSH1 0x1F NOT DUP6 AND SWAP1 DUP4 PUSH1 0x0 MSTORE DUP11 PUSH1 0x0 KECCAK256 SWAP2 PUSH1 0x0 JUMPDEST DUP2 DUP2 LT PUSH2 0x95F JUMPI POP SWAP2 PUSH32 0xACEFA0F349F716AD6ED6168191EF3CE7FA814C240F96E4299B6508550FFCB820 SWAP10 SWAP11 SWAP12 SWAP6 SWAP4 SWAP2 DUP8 PUSH2 0x8D9 SWAP9 SWAP7 SWAP5 LT PUSH2 0x945 JUMPI JUMPDEST POP POP DUP4 DUP2 SHL ADD SWAP1 SSTORE PUSH2 0x8B5 JUMP JUMPDEST DUP5 ADD CALLDATALOAD PUSH1 0x0 NOT PUSH1 0x3 DUP8 SWAP1 SHL PUSH1 0xF8 AND SHR NOT AND SWAP1 SSTORE DUP12 DUP1 PUSH2 0x938 JUMP JUMPDEST DUP7 DUP4 ADD CALLDATALOAD DUP5 SSTORE SWAP3 DUP5 ADD SWAP3 SWAP2 DUP13 ADD SWAP2 DUP13 ADD PUSH2 0x8FB JUMP JUMPDEST PUSH4 0x4E487B71 PUSH1 0xE0 SHL PUSH1 0x0 SWAP1 DUP2 MSTORE PUSH1 0x41 PUSH1 0x4 MSTORE REVERT JUMPDEST SWAP1 POP DUP11 ADD CALLDATALOAD DUP15 PUSH2 0x831 JUMP JUMPDEST SWAP1 DUP12 SWAP5 SWAP4 SWAP3 PUSH1 0x1F NOT DUP2 AND DUP5 PUSH1 0x0 MSTORE DUP4 PUSH1 0x0 KECCAK256 SWAP4 DUP10 PUSH1 0x0 SWAP9 JUMPDEST DUP4 DUP11 LT PUSH2 0x9E7 JUMPI POP POP POP PUSH1 0x9 SWAP7 POP LT PUSH2 0x9CD JUMPI JUMPDEST POP POP DUP5 DUP10 DUP2 SHL ADD SWAP1 SSTORE PUSH2 0x844 JUMP JUMPDEST DUP12 ADD CALLDATALOAD PUSH1 0x0 NOT PUSH1 0x3 DUP13 SWAP1 SHL PUSH1 0xF8 AND SHR NOT AND SWAP1 SSTORE DUP14 DUP1 PUSH2 0x9BF JUMP JUMPDEST DUP6 ADD CALLDATALOAD DUP7 SSTORE SWAP8 DUP2 ADD SWAP8 SWAP1 SWAP5 ADD SWAP4 SWAP3 DUP4 ADD SWAP3 DUP14 SWAP3 POP DUP10 DUP16 PUSH2 0x9AB JUMP JUMPDEST DUP3 PUSH4 0x4E487B71 PUSH1 0xE0 SHL PUSH1 0x0 MSTORE PUSH1 0x41 PUSH1 0x4 MSTORE PUSH1 0x0 REVERT JUMPDEST PUSH1 0x40 MLOAD PUSH3 0x461BCD PUSH1 0xE5 SHL DUP2 MSTORE PUSH1 0x4 DUP2 ADD DUP14 SWAP1 MSTORE PUSH1 0x27 DUP2 DUP6 ADD MSTORE PUSH32 0x4D696C6573746F6E654D616E616765723A206D7573742070726F766964652065 PUSH1 0x44 DUP3 ADD MSTORE PUSH7 0x766964656E6365 PUSH1 0xC8 SHL PUSH1 0x64 DUP3 ADD MSTORE PUSH1 0x84 SWAP1 REVERT JUMPDEST POP DUP7 ISZERO ISZERO PUSH2 0x7E4 JUMP JUMPDEST PUSH1 0x40 MLOAD PUSH3 0x461BCD PUSH1 0xE5 SHL DUP2 MSTORE PUSH1 0x4 DUP2 ADD DUP14 SWAP1 MSTORE PUSH1 0x2F DUP2 DUP6 ADD MSTORE PUSH32 0x4D696C6573746F6E654D616E616765723A20616C7265616479207375626D6974 PUSH1 0x44 DUP3 ADD MSTORE PUSH15 0x1D1959081BDC881C995CDBDB1D9959 PUSH1 0x8A SHL PUSH1 0x64 DUP3 ADD MSTORE PUSH1 0x84 SWAP1 REVERT JUMPDEST DUP4 PUSH4 0x4E487B71 PUSH1 0xE0 SHL PUSH1 0x0 MSTORE PUSH1 0x21 PUSH1 0x4 MSTORE PUSH1 0x0 REVERT JUMPDEST POP PUSH1 0x0 DUP8 DUP2 MSTORE PUSH1 0x4 DUP11 MSTORE PUSH1 0x40 SWAP1 KECCAK256 SLOAD DUP9 GT ISZERO PUSH2 0x79F JUMP JUMPDEST CALLVALUE PUSH2 0x2DB JUMPI PUSH1 0x20 CALLDATASIZE PUSH1 0x3 NOT ADD SLT PUSH2 0x2DB JUMPI PUSH1 0x4 CALLDATALOAD PUSH1 0x0 MSTORE PUSH1 0x5 PUSH1 0x20 MSTORE PUSH1 0x20 PUSH1 0x1 DUP1 PUSH1 0xA0 SHL SUB PUSH1 0x40 PUSH1 0x0 KECCAK256 SLOAD AND PUSH1 0x40 MLOAD SWAP1 DUP2 MSTORE RETURN JUMPDEST CALLVALUE PUSH2 0x2DB JUMPI PUSH1 0x20 CALLDATASIZE PUSH1 0x3 NOT ADD SLT PUSH2 0x2DB JUMPI PUSH1 0x4 CALLDATALOAD PUSH1 0x0 MSTORE PUSH1 0x6 PUSH1 0x20 MSTORE PUSH1 0x20 PUSH1 0x40 PUSH1 0x0 KECCAK256 SLOAD PUSH1 0x40 MLOAD SWAP1 DUP2 MSTORE RETURN JUMPDEST CALLVALUE PUSH2 0x2DB JUMPI PUSH1 0x20 CALLDATASIZE PUSH1 0x3 NOT ADD SLT PUSH2 0x2DB JUMPI PUSH1 0x4 CALLDATALOAD PUSH1 0x0 MSTORE PUSH1 0x7 PUSH1 0x20 MSTORE PUSH1 0x20 PUSH1 0x40 PUSH1 0x0 KECCAK256 SLOAD PUSH1 0x40 MLOAD SWAP1 DUP2 MSTORE RETURN JUMPDEST CALLVALUE PUSH2 0x2DB JUMPI PUSH1 0x0 CALLDATASIZE PUSH1 0x3 NOT ADD SLT PUSH2 0x2DB JUMPI PUSH1 0x2 SLOAD PUSH1 0x40 MLOAD PUSH1 0x1 PUSH1 0x1 PUSH1 0xA0 SHL SUB SWAP1 SWAP2 AND DUP2 MSTORE PUSH1 0x20 SWAP1 RETURN JUMPDEST CALLVALUE PUSH2 0x2DB JUMPI PUSH2 0xBBF CALLDATASIZE PUSH2 0x2582 JUMP JUMPDEST SWAP2 PUSH1 0x0 MSTORE PUSH1 0x8 PUSH1 0x20 MSTORE PUSH1 0x40 PUSH1 0x0 KECCAK256 SWAP1 PUSH1 0x0 MSTORE PUSH1 0x20 MSTORE PUSH1 0x40 PUSH1 0x0 KECCAK256 SWAP1 PUSH1 0x1 DUP1 PUSH1 0xA0 SHL SUB AND PUSH1 0x0 MSTORE PUSH1 0x20 MSTORE PUSH1 0x20 PUSH1 0x40 PUSH1 0x0 KECCAK256 SLOAD PUSH1 0x40 MLOAD SWAP1 DUP2 MSTORE RETURN JUMPDEST CALLVALUE PUSH2 0x2DB JUMPI PUSH1 0x60 CALLDATASIZE PUSH1 0x3 NOT ADD SLT PUSH2 0x2DB JUMPI PUSH1 0x44 CALLDATALOAD PUSH1 0x24 CALLDATALOAD PUSH1 0x4 CALLDATALOAD DUP3 ISZERO ISZERO DUP1 DUP5 SUB PUSH2 0x2DB JUMPI DUP3 ISZERO ISZERO DUP1 PUSH2 0xE2A JUMPI JUMPDEST PUSH2 0xC2E SWAP1 PUSH2 0x282F JUMP JUMPDEST DUP2 PUSH1 0x0 MSTORE PUSH1 0x20 PUSH1 0x3 DUP2 MSTORE PUSH1 0x40 PUSH1 0x0 KECCAK256 DUP5 PUSH1 0x0 MSTORE DUP2 MSTORE PUSH1 0x40 PUSH1 0x0 KECCAK256 SWAP1 DUP4 PUSH1 0x0 MSTORE PUSH1 0x8 DUP2 MSTORE PUSH1 0x40 PUSH1 0x0 KECCAK256 DUP6 PUSH1 0x0 MSTORE DUP2 MSTORE PUSH1 0x40 PUSH1 0x0 KECCAK256 CALLER PUSH1 0x0 MSTORE DUP2 MSTORE PUSH1 0x40 PUSH1 0x0 KECCAK256 SLOAD SWAP2 DUP3 ISZERO PUSH2 0xDCE JUMPI DUP5 PUSH1 0x0 MSTORE PUSH1 0x9 DUP3 MSTORE PUSH1 0x40 PUSH1 0x0 KECCAK256 DUP7 PUSH1 0x0 MSTORE DUP3 MSTORE PUSH1 0x40 PUSH1 0x0 KECCAK256 CALLER PUSH1 0x0 MSTORE DUP3 MSTORE PUSH1 0x40 PUSH1 0x0 KECCAK256 SWAP7 DUP8 SLOAD PUSH1 0xFF DUP2 AND PUSH2 0xD89 JUMPI PUSH1 0xFF PUSH1 0x7 DUP5 ADD SLOAD AND PUSH1 0x6 DUP2 LT ISZERO PUSH2 0x478 JUMPI PUSH1 0x1 SUB PUSH2 0xD3A JUMPI PUSH1 0x1 PUSH2 0x1B SWAP10 DUP2 DUP8 SWAP4 PUSH2 0xFF00 DUP11 PUSH1 0x8 SHL AND SWAP1 PUSH2 0xFFFF NOT AND OR OR DUP2 SSTORE ADD SSTORE PUSH1 0x0 EQ PUSH2 0xD25 JUMPI PUSH1 0xA ADD PUSH2 0xCEC DUP4 DUP3 SLOAD PUSH2 0x2758 JUMP JUMPDEST SWAP1 SSTORE JUMPDEST PUSH1 0x40 MLOAD SWAP3 DUP4 MSTORE DUP3 ADD MSTORE DUP3 DUP3 PUSH32 0xC4034C86715A9B37C41BD89FDABB308D4CC0F2ACA4A22EB6B311492FEFDAD743 PUSH1 0x40 CALLER SWAP5 LOG4 PUSH2 0x29B5 JUMP JUMPDEST PUSH1 0xB ADD PUSH2 0xD33 DUP4 DUP3 SLOAD PUSH2 0x2758 JUMP JUMPDEST SWAP1 SSTORE PUSH2 0xCEF JUMP JUMPDEST PUSH1 0x40 MLOAD PUSH3 0x461BCD PUSH1 0xE5 SHL DUP2 MSTORE PUSH1 0x4 DUP2 ADD DUP6 SWAP1 MSTORE PUSH1 0x21 PUSH1 0x24 DUP3 ADD MSTORE PUSH32 0x4D696C6573746F6E654D616E616765723A20766F74696E67206E6F74206F7065 PUSH1 0x44 DUP3 ADD MSTORE PUSH1 0x37 PUSH1 0xF9 SHL PUSH1 0x64 DUP3 ADD MSTORE PUSH1 0x84 SWAP1 REVERT JUMPDEST PUSH1 0x40 MLOAD PUSH3 0x461BCD PUSH1 0xE5 SHL DUP2 MSTORE PUSH1 0x4 DUP2 ADD DUP6 SWAP1 MSTORE PUSH1 0x1F PUSH1 0x24 DUP3 ADD MSTORE PUSH32 0x4D696C6573746F6E654D616E616765723A20616C726561647920766F74656400 PUSH1 0x44 DUP3 ADD MSTORE PUSH1 0x64 SWAP1 REVERT JUMPDEST PUSH1 0x40 MLOAD PUSH3 0x461BCD PUSH1 0xE5 SHL DUP2 MSTORE PUSH1 0x4 DUP2 ADD DUP4 SWAP1 MSTORE PUSH1 0x2E PUSH1 0x24 DUP3 ADD MSTORE PUSH32 0x4D696C6573746F6E654D616E616765723A206E6F20636F6E747269627574696F PUSH1 0x44 DUP3 ADD MSTORE PUSH14 0xDC40E8DE40ECDEE8CA40EED2E8D PUSH1 0x93 SHL PUSH1 0x64 DUP3 ADD MSTORE PUSH1 0x84 SWAP1 REVERT JUMPDEST POP PUSH1 0x0 DUP3 DUP2 MSTORE PUSH1 0x4 PUSH1 0x20 MSTORE PUSH1 0x40 SWAP1 KECCAK256 SLOAD DUP4 GT ISZERO PUSH2 0xC25 JUMP JUMPDEST CALLVALUE PUSH2 0x2DB JUMPI PUSH2 0xE50 CALLDATASIZE PUSH2 0x23B6 JUMP JUMPDEST SWAP1 PUSH2 0xE59 PUSH2 0x2BA4 JUMP JUMPDEST POP DUP2 ISZERO ISZERO DUP1 PUSH2 0xEA8 JUMPI JUMPDEST PUSH2 0xE6C SWAP1 PUSH2 0x282F JUMP JUMPDEST PUSH1 0x0 MSTORE PUSH1 0x3 PUSH1 0x20 MSTORE PUSH1 0x40 PUSH1 0x0 KECCAK256 SWAP1 PUSH1 0x0 MSTORE PUSH1 0x20 MSTORE PUSH2 0xEA4 PUSH2 0xE90 PUSH1 0x40 PUSH1 0x0 KECCAK256 PUSH2 0x2C0F JUMP JUMPDEST PUSH1 0x40 MLOAD SWAP2 DUP3 SWAP2 PUSH1 0x20 DUP4 MSTORE PUSH1 0x20 DUP4 ADD SWAP1 PUSH2 0x25D9 JUMP JUMPDEST SUB SWAP1 RETURN JUMPDEST POP PUSH1 0x0 DUP2 DUP2 MSTORE PUSH1 0x4 PUSH1 0x20 MSTORE PUSH1 0x40 SWAP1 KECCAK256 SLOAD DUP3 GT ISZERO PUSH2 0xE63 JUMP JUMPDEST CALLVALUE PUSH2 0x2DB JUMPI PUSH1 0xA0 CALLDATASIZE PUSH1 0x3 NOT ADD SLT PUSH2 0x2DB JUMPI PUSH1 0x24 CALLDATALOAD PUSH1 0x1 PUSH1 0x1 PUSH1 0x40 SHL SUB DUP2 GT PUSH2 0x2DB JUMPI PUSH2 0xEF0 SWAP1 CALLDATASIZE SWAP1 PUSH1 0x4 ADD PUSH2 0x25AC JUMP JUMPDEST SWAP1 PUSH1 0x44 DUP1 CALLDATALOAD PUSH1 0x1 PUSH1 0x1 PUSH1 0x40 SHL SUB DUP2 GT PUSH2 0x2DB JUMPI PUSH2 0xF11 SWAP1 CALLDATASIZE SWAP1 PUSH1 0x4 ADD PUSH2 0x25AC JUMP JUMPDEST SWAP4 SWAP1 SWAP3 PUSH1 0x4 CALLDATALOAD PUSH1 0x0 MSTORE PUSH1 0x5 PUSH1 0x20 MSTORE PUSH2 0xF37 PUSH1 0x1 DUP1 PUSH1 0xA0 SHL SUB PUSH1 0x40 PUSH1 0x0 KECCAK256 SLOAD AND CALLER EQ PUSH2 0x26FD JUMP JUMPDEST PUSH1 0x64 SWAP3 DUP4 CALLDATALOAD ISZERO PUSH2 0x167F JUMPI PUSH1 0x84 CALLDATALOAD ISZERO PUSH2 0x162D JUMPI DUP3 ISZERO PUSH2 0x15EA JUMPI PUSH1 0x4 CALLDATALOAD PUSH1 0x0 MSTORE PUSH1 0x4 PUSH1 0x20 MSTORE PUSH1 0x5 PUSH1 0x40 PUSH1 0x0 KECCAK256 SLOAD LT ISZERO PUSH2 0x1596 JUMPI PUSH1 0x4 CALLDATALOAD PUSH1 0x0 MSTORE PUSH1 0x7 PUSH1 0x20 MSTORE PUSH2 0xF83 DUP5 CALLDATALOAD PUSH1 0x40 PUSH1 0x0 KECCAK256 SLOAD PUSH2 0x2758 JUMP JUMPDEST SWAP1 PUSH1 0x4 CALLDATALOAD PUSH1 0x0 MSTORE PUSH1 0x6 PUSH1 0x20 MSTORE PUSH1 0x40 PUSH1 0x0 KECCAK256 SLOAD DUP3 GT PUSH2 0x152D JUMPI POP PUSH1 0x4 CALLDATALOAD PUSH1 0x0 MSTORE PUSH1 0x7 PUSH1 0x20 MSTORE PUSH1 0x40 PUSH1 0x0 KECCAK256 SSTORE PUSH1 0x4 PUSH1 0x20 MSTORE PUSH1 0x40 PUSH1 0x0 KECCAK256 PUSH2 0xFC1 DUP2 SLOAD PUSH2 0x2765 JUMP JUMPDEST SWAP1 SSTORE PUSH1 0x4 CALLDATALOAD PUSH1 0x0 MSTORE PUSH1 0x4 PUSH1 0x20 MSTORE PUSH1 0x40 PUSH1 0x0 KECCAK256 SLOAD SWAP4 PUSH2 0x1014 PUSH2 0xFE4 PUSH1 0x84 CALLDATALOAD TIMESTAMP PUSH2 0x2758 JUMP JUMPDEST SWAP2 PUSH1 0x40 MLOAD SWAP8 PUSH2 0xFF2 DUP10 PUSH2 0x2421 JUMP JUMPDEST DUP8 DUP10 MSTORE PUSH1 0x4 CALLDATALOAD PUSH1 0x20 DUP11 ADD MSTORE PUSH2 0x1008 CALLDATASIZE DUP8 DUP8 PUSH2 0x2774 JUMP JUMPDEST PUSH1 0x40 DUP11 ADD MSTORE CALLDATASIZE SWAP2 PUSH2 0x2774 JUMP JUMPDEST PUSH1 0x60 DUP8 ADD MSTORE DUP4 CALLDATALOAD PUSH1 0x80 DUP8 ADD MSTORE PUSH1 0x0 PUSH1 0xA0 DUP8 ADD MSTORE PUSH1 0xC0 DUP7 ADD MSTORE PUSH1 0x0 PUSH1 0xE0 DUP7 ADD MSTORE PUSH1 0x40 MLOAD PUSH2 0x103F DUP2 PUSH2 0x243D JUMP JUMPDEST PUSH1 0x0 DUP2 MSTORE PUSH2 0x100 DUP7 ADD MSTORE PUSH1 0x40 MLOAD PUSH2 0x1055 DUP2 PUSH2 0x243D JUMP JUMPDEST PUSH1 0x0 DUP2 MSTORE PUSH2 0x120 DUP7 ADD MSTORE PUSH1 0x0 PUSH2 0x140 DUP7 ADD MSTORE PUSH1 0x0 PUSH2 0x160 DUP7 ADD MSTORE PUSH1 0x0 PUSH2 0x180 DUP7 ADD MSTORE PUSH1 0x0 PUSH2 0x1A0 DUP7 ADD MSTORE PUSH1 0x4 CALLDATALOAD PUSH1 0x0 MSTORE PUSH1 0x3 PUSH1 0x20 MSTORE PUSH1 0x40 PUSH1 0x0 KECCAK256 DUP5 PUSH1 0x0 MSTORE PUSH1 0x20 MSTORE PUSH1 0x40 PUSH1 0x0 KECCAK256 SWAP5 DUP1 MLOAD DUP7 SSTORE PUSH1 0x20 DUP2 ADD MLOAD PUSH1 0x1 DUP8 ADD SSTORE PUSH1 0x40 DUP2 ADD MLOAD DUP1 MLOAD SWAP1 PUSH1 0x1 PUSH1 0x1 PUSH1 0x40 SHL SUB DUP3 GT PUSH2 0x13A0 JUMPI DUP2 SWAP1 PUSH2 0x10DC DUP3 PUSH2 0x10D3 PUSH1 0x2 DUP13 ADD SLOAD PUSH2 0x23CC JUMP JUMPDEST PUSH1 0x2 DUP13 ADD PUSH2 0x27BA JUMP JUMPDEST PUSH1 0x20 SWAP1 PUSH1 0x1F DUP4 GT PUSH1 0x1 EQ PUSH2 0x14BB JUMPI PUSH1 0x0 SWAP3 PUSH2 0x14B0 JUMPI JUMPDEST POP POP DUP2 PUSH1 0x1 SHL SWAP2 PUSH1 0x0 NOT SWAP1 PUSH1 0x3 SHL SHR NOT AND OR PUSH1 0x2 DUP8 ADD SSTORE JUMPDEST PUSH1 0x60 DUP2 ADD MLOAD DUP1 MLOAD SWAP1 PUSH1 0x1 PUSH1 0x1 PUSH1 0x40 SHL SUB DUP3 GT PUSH2 0x13A0 JUMPI DUP2 SWAP1 PUSH2 0x113C DUP3 PUSH2 0x1133 PUSH1 0x3 DUP13 ADD SLOAD PUSH2 0x23CC JUMP JUMPDEST PUSH1 0x3 DUP13 ADD PUSH2 0x27BA JUMP JUMPDEST PUSH1 0x20 SWAP1 PUSH1 0x1F DUP4 GT PUSH1 0x1 EQ PUSH2 0x143E JUMPI PUSH1 0x0 SWAP3 PUSH2 0x1433 JUMPI JUMPDEST POP POP DUP2 PUSH1 0x1 SHL SWAP2 PUSH1 0x0 NOT SWAP1 PUSH1 0x3 SHL SHR NOT AND OR PUSH1 0x3 DUP8 ADD SSTORE JUMPDEST PUSH1 0x80 DUP2 ADD MLOAD PUSH1 0x4 DUP8 ADD SSTORE PUSH1 0xA0 DUP2 ADD MLOAD PUSH1 0x5 DUP8 ADD SSTORE PUSH1 0xC0 DUP2 ADD MLOAD PUSH1 0x6 DUP8 ADD SSTORE PUSH1 0x7 DUP7 ADD PUSH1 0xE0 DUP3 ADD MLOAD PUSH1 0x6 DUP2 LT ISZERO PUSH2 0x478 JUMPI PUSH1 0xFF DUP1 NOT DUP4 SLOAD AND SWAP2 AND OR SWAP1 SSTORE PUSH2 0x100 DUP2 ADD MLOAD DUP1 MLOAD SWAP1 PUSH1 0x1 PUSH1 0x1 PUSH1 0x40 SHL SUB DUP3 GT PUSH2 0x13A0 JUMPI DUP2 SWAP1 PUSH2 0x11D9 DUP3 PUSH2 0x11D0 PUSH1 0x8 DUP13 ADD SLOAD PUSH2 0x23CC JUMP JUMPDEST PUSH1 0x8 DUP13 ADD PUSH2 0x27BA JUMP JUMPDEST PUSH1 0x20 SWAP1 PUSH1 0x1F DUP4 GT PUSH1 0x1 EQ PUSH2 0x13C1 JUMPI PUSH1 0x0 SWAP3 PUSH2 0x13B6 JUMPI JUMPDEST POP POP DUP2 PUSH1 0x1 SHL SWAP2 PUSH1 0x0 NOT SWAP1 PUSH1 0x3 SHL SHR NOT AND OR PUSH1 0x8 DUP8 ADD SSTORE JUMPDEST PUSH2 0x120 DUP2 ADD MLOAD SWAP6 DUP7 MLOAD PUSH1 0x1 PUSH1 0x1 PUSH1 0x40 SHL SUB DUP2 GT PUSH2 0x13A0 JUMPI PUSH2 0x1238 DUP2 PUSH2 0x122F PUSH1 0x9 DUP6 ADD SLOAD PUSH2 0x23CC JUMP JUMPDEST PUSH1 0x9 DUP6 ADD PUSH2 0x27BA JUMP JUMPDEST PUSH1 0x20 PUSH1 0x1F DUP3 GT PUSH1 0x1 EQ PUSH2 0x1308 JUMPI SWAP2 DUP2 PUSH1 0xD SWAP3 PUSH2 0x1A0 SWAP5 PUSH32 0x7388B0A2D11E0575B753037E87C5C66B795CB79A842AB2CC7DBAAE43FF84E7DE SWAP10 SWAP11 SWAP12 PUSH1 0x0 SWAP3 PUSH2 0x12FD JUMPI JUMPDEST POP POP DUP2 PUSH1 0x1 SHL SWAP2 PUSH1 0x0 NOT SWAP1 PUSH1 0x3 SHL SHR NOT AND OR PUSH1 0x9 DUP3 ADD SSTORE JUMPDEST PUSH2 0x140 DUP5 ADD MLOAD PUSH1 0xA DUP3 ADD SSTORE PUSH2 0x160 DUP5 ADD MLOAD PUSH1 0xB DUP3 ADD SSTORE PUSH2 0x180 DUP5 ADD MLOAD PUSH1 0xC DUP3 ADD SSTORE ADD SWAP2 ADD MLOAD ISZERO ISZERO PUSH1 0xFF DUP1 NOT DUP4 SLOAD AND SWAP2 AND OR SWAP1 SSTORE PUSH2 0x12E7 PUSH2 0x12D4 PUSH1 0x84 CALLDATALOAD TIMESTAMP PUSH2 0x2758 JUMP JUMPDEST SWAP2 PUSH1 0x40 MLOAD SWAP4 PUSH1 0x60 DUP6 MSTORE PUSH1 0x60 DUP6 ADD SWAP2 PUSH2 0x280E JUMP JUMPDEST SWAP4 CALLDATALOAD PUSH1 0x20 DUP4 ADD MSTORE PUSH1 0x40 DUP3 ADD MSTORE DUP1 PUSH1 0x4 CALLDATALOAD SWAP4 SUB SWAP1 LOG3 STOP JUMPDEST ADD MLOAD SWAP1 POP DUP12 DUP1 PUSH2 0x127A JUMP JUMPDEST PUSH1 0x9 DUP4 ADD PUSH1 0x0 MSTORE PUSH1 0x20 PUSH1 0x0 KECCAK256 SWAP9 PUSH1 0x0 JUMPDEST PUSH1 0x1F NOT DUP5 AND DUP2 LT PUSH2 0x1388 JUMPI POP DUP3 PUSH32 0x7388B0A2D11E0575B753037E87C5C66B795CB79A842AB2CC7DBAAE43FF84E7DE SWAP9 SWAP10 SWAP11 PUSH2 0x1A0 SWAP6 SWAP4 PUSH1 0x1 SWAP4 PUSH1 0xD SWAP7 PUSH1 0x1F NOT DUP2 AND LT PUSH2 0x136F JUMPI JUMPDEST POP POP POP DUP2 SHL ADD PUSH1 0x9 DUP3 ADD SSTORE PUSH2 0x1292 JUMP JUMPDEST ADD MLOAD PUSH1 0x0 NOT PUSH1 0xF8 DUP5 PUSH1 0x3 SHL AND SHR NOT AND SWAP1 SSTORE DUP12 DUP1 DUP1 PUSH2 0x135F JUMP JUMPDEST DUP3 DUP3 ADD MLOAD DUP12 SSTORE PUSH1 0x1 SWAP1 SWAP11 ADD SWAP10 PUSH1 0x20 SWAP3 DUP4 ADD SWAP3 ADD PUSH2 0x1318 JUMP JUMPDEST PUSH4 0x4E487B71 PUSH1 0xE0 SHL PUSH1 0x0 MSTORE PUSH1 0x41 PUSH1 0x4 MSTORE PUSH1 0x24 PUSH1 0x0 REVERT JUMPDEST ADD MLOAD SWAP1 POP DUP9 DUP1 PUSH2 0x11EF JUMP JUMPDEST SWAP3 POP PUSH1 0x8 DUP10 ADD PUSH1 0x0 MSTORE PUSH1 0x20 PUSH1 0x0 KECCAK256 SWAP1 PUSH1 0x0 SWAP4 JUMPDEST PUSH1 0x1F NOT DUP5 AND DUP6 LT PUSH2 0x1418 JUMPI PUSH1 0x1 SWAP5 POP DUP4 PUSH1 0x1F NOT DUP2 AND LT PUSH2 0x13FF JUMPI JUMPDEST POP POP POP DUP2 SHL ADD PUSH1 0x8 DUP8 ADD SSTORE PUSH2 0x1207 JUMP JUMPDEST ADD MLOAD PUSH1 0x0 NOT PUSH1 0xF8 DUP5 PUSH1 0x3 SHL AND SHR NOT AND SWAP1 SSTORE DUP9 DUP1 DUP1 PUSH2 0x13EF JUMP JUMPDEST DUP2 DUP2 ADD MLOAD DUP4 SSTORE PUSH1 0x20 SWAP5 DUP6 ADD SWAP5 PUSH1 0x1 SWAP1 SWAP4 ADD SWAP3 SWAP1 SWAP2 ADD SWAP1 PUSH2 0x13D4 JUMP JUMPDEST ADD MLOAD SWAP1 POP DUP9 DUP1 PUSH2 0x1152 JUMP JUMPDEST SWAP3 POP PUSH1 0x3 DUP10 ADD PUSH1 0x0 MSTORE PUSH1 0x20 PUSH1 0x0 KECCAK256 SWAP1 PUSH1 0x0 SWAP4 JUMPDEST PUSH1 0x1F NOT DUP5 AND DUP6 LT PUSH2 0x1495 JUMPI PUSH1 0x1 SWAP5 POP DUP4 PUSH1 0x1F NOT DUP2 AND LT PUSH2 0x147C JUMPI JUMPDEST POP POP POP DUP2 SHL ADD PUSH1 0x3 DUP8 ADD SSTORE PUSH2 0x116A JUMP JUMPDEST ADD MLOAD PUSH1 0x0 NOT PUSH1 0xF8 DUP5 PUSH1 0x3 SHL AND SHR NOT AND SWAP1 SSTORE DUP9 DUP1 DUP1 PUSH2 0x146C JUMP JUMPDEST DUP2 DUP2 ADD MLOAD DUP4 SSTORE PUSH1 0x20 SWAP5 DUP6 ADD SWAP5 PUSH1 0x1 SWAP1 SWAP4 ADD SWAP3 SWAP1 SWAP2 ADD SWAP1 PUSH2 0x1451 JUMP JUMPDEST ADD MLOAD SWAP1 POP DUP9 DUP1 PUSH2 0x10F2 JUMP JUMPDEST SWAP3 POP PUSH1 0x2 DUP10 ADD PUSH1 0x0 MSTORE PUSH1 0x20 PUSH1 0x0 KECCAK256 SWAP1 PUSH1 0x0 SWAP4 JUMPDEST PUSH1 0x1F NOT DUP5 AND DUP6 LT PUSH2 0x1512 JUMPI PUSH1 0x1 SWAP5 POP DUP4 PUSH1 0x1F NOT DUP2 AND LT PUSH2 0x14F9 JUMPI JUMPDEST POP POP POP DUP2 SHL ADD PUSH1 0x2 DUP8 ADD SSTORE PUSH2 0x110A JUMP JUMPDEST ADD MLOAD PUSH1 0x0 NOT PUSH1 0xF8 DUP5 PUSH1 0x3 SHL AND SHR NOT AND SWAP1 SSTORE DUP9 DUP1 DUP1 PUSH2 0x14E9 JUMP JUMPDEST DUP2 DUP2 ADD MLOAD DUP4 SSTORE PUSH1 0x20 SWAP5 DUP6 ADD SWAP5 PUSH1 0x1 SWAP1 SWAP4 ADD SWAP3 SWAP1 SWAP2 ADD SWAP1 PUSH2 0x14CE JUMP JUMPDEST PUSH1 0x84 SWAP1 PUSH32 0x65747320776F756C64206578636565642063616D706169676E20676F616C0000 DUP7 PUSH32 0x4D696C6573746F6E654D616E616765723A206D696C6573746F6E652074617267 PUSH1 0x40 MLOAD SWAP4 PUSH3 0x461BCD PUSH1 0xE5 SHL DUP6 MSTORE PUSH1 0x20 PUSH1 0x4 DUP7 ADD MSTORE PUSH1 0x3E PUSH1 0x24 DUP7 ADD MSTORE DUP5 ADD MSTORE DUP3 ADD MSTORE REVERT JUMPDEST PUSH1 0x84 SWAP1 PUSH8 0x81C995858DA1959 PUSH1 0xC2 SHL DUP6 PUSH32 0x4D696C6573746F6E654D616E616765723A206D6178206D696C6573746F6E6573 PUSH1 0x40 MLOAD SWAP4 PUSH3 0x461BCD PUSH1 0xE5 SHL DUP6 MSTORE PUSH1 0x20 PUSH1 0x4 DUP7 ADD MSTORE PUSH1 0x28 PUSH1 0x24 DUP7 ADD MSTORE DUP5 ADD MSTORE DUP3 ADD MSTORE REVERT JUMPDEST DUP4 SWAP1 PUSH32 0x4D696C6573746F6E654D616E616765723A20656D707479207469746C65000000 PUSH1 0x40 MLOAD SWAP2 PUSH3 0x461BCD PUSH1 0xE5 SHL DUP4 MSTORE PUSH1 0x20 PUSH1 0x4 DUP5 ADD MSTORE PUSH1 0x1D PUSH1 0x24 DUP5 ADD MSTORE DUP3 ADD MSTORE REVERT JUMPDEST PUSH1 0x84 SWAP1 PUSH6 0x6265203E203 PUSH1 0xD4 SHL DUP6 PUSH32 0x4D696C6573746F6E654D616E616765723A206475726174696F6E206D75737420 PUSH1 0x40 MLOAD SWAP4 PUSH3 0x461BCD PUSH1 0xE5 SHL DUP6 MSTORE PUSH1 0x20 PUSH1 0x4 DUP7 ADD MSTORE PUSH1 0x26 PUSH1 0x24 DUP7 ADD MSTORE DUP5 ADD MSTORE DUP3 ADD MSTORE REVERT JUMPDEST PUSH1 0x84 SWAP1 PUSH4 0x203E203 PUSH1 0xE4 SHL DUP6 PUSH32 0x4D696C6573746F6E654D616E616765723A20746172676574206D757374206265 PUSH1 0x40 MLOAD SWAP4 PUSH3 0x461BCD PUSH1 0xE5 SHL DUP6 MSTORE PUSH1 0x20 PUSH1 0x4 DUP7 ADD MSTORE PUSH1 0x24 DUP1 DUP7 ADD MSTORE DUP5 ADD MSTORE DUP3 ADD MSTORE REVERT JUMPDEST CALLVALUE PUSH2 0x2DB JUMPI PUSH1 0x0 CALLDATASIZE PUSH1 0x3 NOT ADD SLT PUSH2 0x2DB JUMPI PUSH1 0x1 SLOAD PUSH1 0x40 MLOAD PUSH1 0x1 PUSH1 0x1 PUSH1 0xA0 SHL SUB SWAP1 SWAP2 AND DUP2 MSTORE PUSH1 0x20 SWAP1 RETURN JUMPDEST CALLVALUE PUSH2 0x2DB JUMPI PUSH1 0x60 CALLDATASIZE PUSH1 0x3 NOT ADD SLT PUSH2 0x2DB JUMPI PUSH1 0x44 CALLDATALOAD PUSH1 0x24 CALLDATALOAD PUSH1 0x4 CALLDATALOAD PUSH2 0x1719 PUSH2 0x26A5 JUMP JUMPDEST PUSH2 0x2710 DUP1 DUP3 GT PUSH2 0x1817 JUMPI DUP3 GT PUSH2 0x17C7 JUMPI PUSH3 0x15180 DUP4 LT PUSH2 0x1777 JUMPI PUSH32 0xF2B4407BC29C4FA956DF36358492D43B143E2221B965F5244605DBF5D5545BCA SWAP3 PUSH1 0x60 SWAP3 DUP3 PUSH1 0xA SSTORE DUP1 PUSH1 0xB SSTORE DUP2 PUSH1 0xC SSTORE PUSH1 0x40 MLOAD SWAP3 DUP4 MSTORE PUSH1 0x20 DUP4 ADD MSTORE PUSH1 0x40 DUP3 ADD MSTORE LOG1 STOP JUMPDEST PUSH1 0x40 MLOAD PUSH3 0x461BCD PUSH1 0xE5 SHL DUP2 MSTORE PUSH1 0x20 PUSH1 0x4 DUP3 ADD MSTORE PUSH1 0x22 PUSH1 0x24 DUP3 ADD MSTORE PUSH32 0x4D696C6573746F6E654D616E616765723A2077696E646F7720746F6F2073686F PUSH1 0x44 DUP3 ADD MSTORE PUSH2 0x1C9D PUSH1 0xF2 SHL PUSH1 0x64 DUP3 ADD MSTORE PUSH1 0x84 SWAP1 REVERT JUMPDEST PUSH1 0x40 MLOAD PUSH3 0x461BCD PUSH1 0xE5 SHL DUP2 MSTORE PUSH1 0x20 PUSH1 0x4 DUP3 ADD MSTORE PUSH1 0x22 PUSH1 0x24 DUP3 ADD MSTORE PUSH32 0x4D696C6573746F6E654D616E616765723A207468726573686F6C64203E203130 PUSH1 0x44 DUP3 ADD MSTORE PUSH2 0x3025 PUSH1 0xF0 SHL PUSH1 0x64 DUP3 ADD MSTORE PUSH1 0x84 SWAP1 REVERT JUMPDEST PUSH1 0x40 MLOAD PUSH3 0x461BCD PUSH1 0xE5 SHL DUP2 MSTORE PUSH1 0x20 PUSH1 0x4 DUP3 ADD MSTORE PUSH1 0x1F PUSH1 0x24 DUP3 ADD MSTORE PUSH32 0x4D696C6573746F6E654D616E616765723A2071756F72756D203E203130302500 PUSH1 0x44 DUP3 ADD MSTORE PUSH1 0x64 SWAP1 REVERT JUMPDEST CALLVALUE PUSH2 0x2DB JUMPI PUSH1 0x20 CALLDATASIZE PUSH1 0x3 NOT ADD SLT PUSH2 0x2DB JUMPI PUSH1 0x4 CALLDATALOAD PUSH1 0x0 MSTORE PUSH1 0x4 PUSH1 0x20 MSTORE PUSH1 0x20 PUSH1 0x40 PUSH1 0x0 KECCAK256 SLOAD PUSH1 0x40 MLOAD SWAP1 DUP2 MSTORE RETURN JUMPDEST CALLVALUE PUSH2 0x2DB JUMPI PUSH1 0x0 CALLDATASIZE PUSH1 0x3 NOT ADD SLT PUSH2 0x2DB JUMPI PUSH2 0x18A1 PUSH2 0x26A5 JUMP JUMPDEST PUSH1 0x1 DUP1 SLOAD PUSH1 0x1 PUSH1 0x1 PUSH1 0xA0 SHL SUB NOT DUP2 AND SWAP1 SWAP2 SSTORE PUSH1 0x0 SWAP1 PUSH1 0x1 PUSH1 0x1 PUSH1 0xA0 SHL SUB AND PUSH32 0x8BE0079C531659141344CD1FD0A4F28419497F9722A3DAAFE3B4186F6B6457E0 DUP3 DUP1 LOG3 STOP JUMPDEST CALLVALUE PUSH2 0x2DB JUMPI PUSH1 0x0 CALLDATASIZE PUSH1 0x3 NOT ADD SLT PUSH2 0x2DB JUMPI PUSH1 0x20 PUSH1 0x40 MLOAD PUSH1 0x5 DUP2 MSTORE RETURN JUMPDEST CALLVALUE PUSH2 0x2DB JUMPI PUSH2 0x190F CALLDATASIZE PUSH2 0x23B6 JUMP JUMPDEST SWAP1 PUSH2 0x1925 PUSH1 0x1 DUP1 PUSH1 0xA0 SHL SUB PUSH1 0x2 SLOAD AND CALLER EQ PUSH2 0x28EA JUMP JUMPDEST DUP2 ISZERO ISZERO DUP1 PUSH2 0x19A5 JUMPI JUMPDEST PUSH2 0x1937 SWAP1 PUSH2 0x282F JUMP JUMPDEST DUP1 PUSH1 0x0 MSTORE PUSH1 0x3 PUSH1 0x20 MSTORE PUSH1 0x40 PUSH1 0x0 KECCAK256 DUP3 PUSH1 0x0 MSTORE PUSH1 0x20 MSTORE PUSH1 0x7 PUSH1 0x40 PUSH1 0x0 KECCAK256 ADD DUP1 SLOAD PUSH1 0xFF DUP2 AND SWAP1 PUSH1 0x6 DUP3 LT ISZERO PUSH2 0x478 JUMPI PUSH2 0x1972 PUSH1 0x1 PUSH1 0x3 SWAP4 EQ PUSH2 0x2945 JUMP JUMPDEST PUSH1 0xFF NOT AND OR SWAP1 SSTORE PUSH32 0x888C5547E7A66DEAAEEF7CC96FDF1B39154057815E8D0F702C46858D074E66A5 PUSH1 0x20 PUSH1 0x40 MLOAD CALLER DUP2 MSTORE LOG3 STOP JUMPDEST POP PUSH1 0x0 DUP2 DUP2 MSTORE PUSH1 0x4 PUSH1 0x20 MSTORE PUSH1 0x40 SWAP1 KECCAK256 SLOAD DUP3 GT ISZERO PUSH2 0x192E JUMP JUMPDEST CALLVALUE PUSH2 0x2DB JUMPI PUSH1 0x20 CALLDATASIZE PUSH1 0x3 NOT ADD SLT PUSH2 0x2DB JUMPI PUSH1 0x4 CALLDATALOAD PUSH1 0x0 MSTORE PUSH1 0x5 PUSH1 0x20 MSTORE PUSH1 0x20 PUSH1 0x1 DUP1 PUSH1 0xA0 SHL SUB PUSH1 0x40 PUSH1 0x0 KECCAK256 SLOAD AND ISZERO ISZERO PUSH1 0x40 MLOAD SWAP1 DUP2 MSTORE RETURN JUMPDEST CALLVALUE PUSH2 0x2DB JUMPI PUSH1 0x60 PUSH2 0x1A03 CALLDATASIZE PUSH2 0x2582 JUMP JUMPDEST SWAP1 PUSH1 0x40 MLOAD SWAP3 PUSH2 0x1A11 DUP5 PUSH2 0x2406 JUMP JUMPDEST PUSH1 0x0 DUP5 MSTORE PUSH1 0x0 PUSH1 0x40 PUSH1 0x20 SWAP6 DUP3 DUP8 DUP3 ADD MSTORE ADD MSTORE PUSH1 0x0 MSTORE PUSH1 0x9 DUP4 MSTORE PUSH1 0x40 PUSH1 0x0 KECCAK256 SWAP1 PUSH1 0x0 MSTORE DUP3 MSTORE PUSH1 0x40 PUSH1 0x0 KECCAK256 SWAP1 PUSH1 0x1 DUP1 PUSH1 0xA0 SHL SUB AND PUSH1 0x0 MSTORE DUP2 MSTORE PUSH1 0x40 PUSH1 0x0 KECCAK256 SWAP1 PUSH1 0x40 MLOAD SWAP1 PUSH2 0x1A5B DUP3 PUSH2 0x2406 JUMP JUMPDEST DUP3 SLOAD PUSH1 0x40 PUSH1 0x1 PUSH1 0xFF DUP4 AND ISZERO ISZERO SWAP6 DUP7 DUP7 MSTORE PUSH1 0xFF DUP6 DUP8 ADD SWAP5 PUSH1 0x8 SHR AND ISZERO ISZERO DUP5 MSTORE ADD SLOAD SWAP4 ADD SWAP3 DUP4 MSTORE PUSH1 0x40 MLOAD SWAP4 DUP5 MSTORE MLOAD ISZERO ISZERO SWAP1 DUP4 ADD MSTORE MLOAD PUSH1 0x40 DUP3 ADD MSTORE RETURN JUMPDEST CALLVALUE PUSH2 0x2DB JUMPI PUSH1 0x20 CALLDATASIZE PUSH1 0x3 NOT ADD SLT PUSH2 0x2DB JUMPI PUSH2 0x1AAE PUSH2 0x256C JUMP JUMPDEST PUSH2 0x1AB6 PUSH2 0x26A5 JUMP JUMPDEST PUSH1 0x1 PUSH1 0x1 PUSH1 0xA0 SHL SUB SWAP1 DUP2 AND SWAP1 DUP2 ISZERO PUSH2 0x1B04 JUMPI DUP2 PUSH1 0x2 SLOAD SWAP2 DUP3 AND PUSH32 0xD3AFD1676752459D3AA8B6F73633FAC8EFD724610DA9C4CD8D8E4FA1631841FB PUSH1 0x0 DUP1 LOG3 PUSH1 0x1 PUSH1 0x1 PUSH1 0xA0 SHL SUB NOT AND OR PUSH1 0x2 SSTORE STOP JUMPDEST PUSH1 0x40 MLOAD PUSH3 0x461BCD PUSH1 0xE5 SHL DUP2 MSTORE PUSH1 0x20 PUSH1 0x4 DUP3 ADD MSTORE PUSH1 0x1E PUSH1 0x24 DUP3 ADD MSTORE PUSH32 0x4D696C6573746F6E654D616E616765723A207A65726F20616464726573730000 PUSH1 0x44 DUP3 ADD MSTORE PUSH1 0x64 SWAP1 REVERT JUMPDEST CALLVALUE PUSH2 0x2DB JUMPI PUSH2 0x1B57 CALLDATASIZE PUSH2 0x23B6 JUMP JUMPDEST SWAP1 DUP2 ISZERO ISZERO DUP1 PUSH2 0x1D06 JUMPI JUMPDEST PUSH2 0x1B6A SWAP1 PUSH2 0x282F JUMP JUMPDEST PUSH2 0x1B72 PUSH2 0x2894 JUMP JUMPDEST DUP1 PUSH1 0x0 MSTORE PUSH1 0x20 PUSH1 0x3 DUP2 MSTORE PUSH1 0x40 PUSH1 0x0 KECCAK256 DUP4 PUSH1 0x0 MSTORE DUP2 MSTORE PUSH1 0x7 PUSH1 0x40 PUSH1 0x0 KECCAK256 ADD SWAP1 PUSH1 0xFF DUP3 SLOAD AND PUSH1 0x6 DUP2 LT ISZERO PUSH2 0x478 JUMPI PUSH1 0x3 DUP2 EQ SWAP1 DUP2 ISZERO PUSH2 0x1CFB JUMPI JUMPDEST POP ISZERO PUSH2 0x1CB8 JUMPI DUP3 PUSH1 0x0 MSTORE PUSH1 0x8 DUP2 MSTORE PUSH1 0x40 PUSH1 0x0 KECCAK256 DUP5 PUSH1 0x0 MSTORE DUP2 MSTORE PUSH1 0x40 PUSH1 0x0 KECCAK256 CALLER PUSH1 0x0 MSTORE DUP2 MSTORE PUSH1 0x40 PUSH1 0x0 KECCAK256 SLOAD SWAP2 DUP3 ISZERO PUSH2 0x1C67 JUMPI DUP4 PUSH1 0x0 MSTORE PUSH1 0x8 DUP3 MSTORE PUSH1 0x40 PUSH1 0x0 KECCAK256 DUP6 PUSH1 0x0 MSTORE DUP3 MSTORE PUSH1 0x40 PUSH1 0x0 KECCAK256 CALLER PUSH1 0x0 MSTORE DUP3 MSTORE PUSH1 0x0 PUSH1 0x40 DUP2 KECCAK256 SSTORE DUP1 SLOAD PUSH1 0xFF DUP2 AND PUSH1 0x6 DUP2 LT ISZERO PUSH2 0x478 JUMPI PUSH1 0x3 EQ PUSH2 0x1C57 JUMPI JUMPDEST POP POP PUSH1 0x0 DUP1 DUP1 DUP1 DUP6 CALLER DUP3 CALL ISZERO PUSH2 0x641 JUMPI PUSH32 0xD33FCD27CBFB73A2D9058C968B560CCB306500BF536133802048489ECC7355E9 SWAP2 PUSH1 0x40 MLOAD SWAP1 DUP2 MSTORE LOG3 PUSH1 0x1 PUSH1 0x0 SSTORE STOP JUMPDEST PUSH1 0xFF NOT AND PUSH1 0x5 OR SWAP1 SSTORE DUP5 DUP1 PUSH2 0x1C17 JUMP JUMPDEST PUSH1 0x40 MLOAD PUSH3 0x461BCD PUSH1 0xE5 SHL DUP2 MSTORE PUSH1 0x4 DUP2 ADD DUP4 SWAP1 MSTORE PUSH1 0x23 PUSH1 0x24 DUP3 ADD MSTORE PUSH32 0x4D696C6573746F6E654D616E616765723A206E6F7468696E6720746F20726566 PUSH1 0x44 DUP3 ADD MSTORE PUSH3 0x1D5B99 PUSH1 0xEA SHL PUSH1 0x64 DUP3 ADD MSTORE PUSH1 0x84 SWAP1 REVERT JUMPDEST PUSH1 0x64 SWAP1 PUSH1 0x40 MLOAD SWAP1 PUSH3 0x461BCD PUSH1 0xE5 SHL DUP3 MSTORE DUP1 PUSH1 0x4 DUP4 ADD MSTORE PUSH1 0x24 DUP3 ADD MSTORE PUSH32 0x4D696C6573746F6E654D616E616765723A206E6F7420726566756E6461626C65 PUSH1 0x44 DUP3 ADD MSTORE REVERT JUMPDEST PUSH1 0x5 SWAP2 POP EQ DUP6 PUSH2 0x1BAA JUMP JUMPDEST POP PUSH1 0x0 DUP2 DUP2 MSTORE PUSH1 0x4 PUSH1 0x20 MSTORE PUSH1 0x40 SWAP1 KECCAK256 SLOAD DUP3 GT ISZERO PUSH2 0x1B61 JUMP JUMPDEST CALLVALUE PUSH2 0x2DB JUMPI PUSH2 0x1D2C CALLDATASIZE PUSH2 0x23B6 JUMP JUMPDEST SWAP1 PUSH2 0x1D42 PUSH1 0x1 DUP1 PUSH1 0xA0 SHL SUB PUSH1 0x2 SLOAD AND CALLER EQ PUSH2 0x28EA JUMP JUMPDEST DUP2 ISZERO ISZERO DUP1 PUSH2 0x1DC2 JUMPI JUMPDEST PUSH2 0x1D54 SWAP1 PUSH2 0x282F JUMP JUMPDEST DUP1 PUSH1 0x0 MSTORE PUSH1 0x3 PUSH1 0x20 MSTORE PUSH1 0x40 PUSH1 0x0 KECCAK256 DUP3 PUSH1 0x0 MSTORE PUSH1 0x20 MSTORE PUSH1 0x7 PUSH1 0x40 PUSH1 0x0 KECCAK256 ADD DUP1 SLOAD PUSH1 0xFF DUP2 AND SWAP1 PUSH1 0x6 DUP3 LT ISZERO PUSH2 0x478 JUMPI PUSH2 0x1D8F PUSH1 0x1 PUSH1 0x2 SWAP4 EQ PUSH2 0x2945 JUMP JUMPDEST PUSH1 0xFF NOT AND OR SWAP1 SSTORE PUSH32 0x9FFBB52F2A1362273CD74689A516CA4F52C4282DC13E2E68B7E0646A9A7AF7A3 PUSH1 0x20 PUSH1 0x40 MLOAD CALLER DUP2 MSTORE LOG3 STOP JUMPDEST POP PUSH1 0x0 DUP2 DUP2 MSTORE PUSH1 0x4 PUSH1 0x20 MSTORE PUSH1 0x40 SWAP1 KECCAK256 SLOAD DUP3 GT ISZERO PUSH2 0x1D4B JUMP JUMPDEST CALLVALUE PUSH2 0x2DB JUMPI PUSH2 0x1DE8 CALLDATASIZE PUSH2 0x23B6 JUMP JUMPDEST SWAP1 PUSH1 0x0 MSTORE PUSH1 0x3 PUSH1 0x20 MSTORE PUSH1 0x40 PUSH1 0x0 KECCAK256 SWAP1 PUSH1 0x0 MSTORE PUSH1 0x20 MSTORE PUSH1 0x40 PUSH1 0x0 KECCAK256 DUP1 SLOAD PUSH1 0x1 DUP3 ADD SLOAD SWAP2 PUSH1 0x2 DUP2 ADD PUSH2 0x1E17 SWAP1 PUSH2 0x2479 JUMP JUMPDEST PUSH2 0x1E23 PUSH1 0x3 DUP4 ADD PUSH2 0x2479 JUMP JUMPDEST SWAP2 PUSH1 0x4 DUP2 ADD SLOAD SWAP3 PUSH1 0x5 DUP3 ADD SLOAD SWAP4 PUSH1 0x6 DUP4 ADD SLOAD SWAP1 PUSH1 0x7 DUP5 ADD SLOAD PUSH1 0xFF AND SWAP1 PUSH1 0x8 DUP6 ADD PUSH2 0x1E4C SWAP1 PUSH2 0x2479 JUMP JUMPDEST SWAP2 PUSH2 0x1E59 PUSH1 0x9 DUP8 ADD PUSH2 0x2479 JUMP JUMPDEST SWAP4 PUSH1 0xA DUP8 ADD SLOAD SWAP9 PUSH1 0xB DUP9 ADD SLOAD SWAP7 PUSH1 0xC DUP10 ADD SLOAD SWAP9 PUSH1 0xD ADD SLOAD PUSH1 0xFF AND SWAP10 PUSH1 0x40 MLOAD SWAP14 DUP15 DUP1 SWAP15 DUP2 MSTORE PUSH1 0x20 ADD MSTORE DUP13 PUSH2 0x1C0 PUSH1 0x40 DUP2 SWAP3 ADD MSTORE DUP14 ADD PUSH2 0x1E96 SWAP2 PUSH2 0x251F JUMP JUMPDEST DUP13 DUP2 SUB PUSH1 0x60 DUP15 ADD MSTORE PUSH2 0x1EA7 SWAP2 PUSH2 0x251F JUMP JUMPDEST SWAP4 PUSH1 0x80 DUP13 ADD MSTORE PUSH1 0xA0 DUP12 ADD MSTORE PUSH1 0xC0 DUP11 ADD MSTORE PUSH1 0xE0 DUP10 ADD PUSH2 0x1EC4 SWAP2 PUSH2 0x255F JUMP JUMPDEST DUP8 DUP2 SUB PUSH2 0x100 DUP10 ADD MSTORE PUSH2 0x1ED6 SWAP2 PUSH2 0x251F JUMP JUMPDEST DUP7 DUP2 SUB PUSH2 0x120 DUP9 ADD MSTORE PUSH2 0x1EE8 SWAP2 PUSH2 0x251F JUMP JUMPDEST SWAP4 PUSH2 0x140 DUP7 ADD MSTORE PUSH2 0x160 DUP6 ADD MSTORE PUSH2 0x180 DUP5 ADD MSTORE ISZERO ISZERO PUSH2 0x1A0 DUP4 ADD MSTORE SUB SWAP1 RETURN JUMPDEST PUSH2 0x1F10 CALLDATASIZE PUSH2 0x23B6 JUMP JUMPDEST DUP1 ISZERO ISZERO DUP1 PUSH2 0x2267 JUMPI JUMPDEST PUSH2 0x1F22 SWAP1 PUSH2 0x282F JUMP JUMPDEST PUSH2 0x1F2A PUSH2 0x2894 JUMP JUMPDEST CALLVALUE ISZERO PUSH2 0x2222 JUMPI DUP2 PUSH1 0x0 MSTORE PUSH1 0x20 SWAP2 PUSH1 0x3 DUP4 MSTORE PUSH1 0x40 PUSH1 0x0 KECCAK256 DUP3 PUSH1 0x0 MSTORE DUP4 MSTORE PUSH1 0x40 PUSH1 0x0 KECCAK256 SWAP3 PUSH1 0xFF PUSH1 0x7 DUP6 ADD SLOAD AND PUSH1 0x6 DUP2 LT ISZERO PUSH2 0x478 JUMPI PUSH2 0x21C8 JUMPI PUSH1 0x6 DUP5 ADD SLOAD TIMESTAMP LT ISZERO PUSH2 0x217A JUMPI DUP2 PUSH1 0x0 MSTORE PUSH1 0x5 DUP2 MSTORE PUSH1 0x1 DUP1 PUSH1 0xA0 SHL SUB PUSH1 0x40 PUSH1 0x0 KECCAK256 SLOAD AND CALLER EQ PUSH2 0x2122 JUMPI PUSH1 0x4 DUP5 ADD SLOAD SWAP4 PUSH1 0x5 DUP2 ADD SWAP5 DUP6 SLOAD DUP1 DUP3 GT PUSH1 0x0 EQ PUSH2 0x2119 JUMPI PUSH2 0x1FA9 SWAP2 PUSH2 0x2887 JUMP JUMPDEST DUP1 ISZERO PUSH2 0x20AE JUMPI DUP1 CALLVALUE GT PUSH1 0x0 EQ PUSH2 0x20A6 JUMPI SWAP5 JUMPDEST PUSH2 0x1FC5 DUP7 CALLVALUE PUSH2 0x2887 JUMP JUMPDEST SWAP2 DUP5 PUSH1 0x0 MSTORE PUSH1 0x8 DUP5 MSTORE PUSH1 0x40 PUSH1 0x0 KECCAK256 DUP7 PUSH1 0x0 MSTORE DUP5 MSTORE PUSH1 0x40 PUSH1 0x0 KECCAK256 CALLER PUSH1 0x0 MSTORE DUP5 MSTORE PUSH1 0x40 PUSH1 0x0 KECCAK256 SLOAD ISZERO PUSH2 0x2091 JUMPI JUMPDEST POP DUP4 PUSH1 0x0 MSTORE PUSH1 0x8 DUP4 MSTORE PUSH1 0x40 PUSH1 0x0 KECCAK256 DUP6 PUSH1 0x0 MSTORE DUP4 MSTORE PUSH1 0x40 PUSH1 0x0 KECCAK256 CALLER PUSH1 0x0 MSTORE DUP4 MSTORE PUSH1 0x40 PUSH1 0x0 KECCAK256 PUSH2 0x201F DUP8 DUP3 SLOAD PUSH2 0x2758 JUMP JUMPDEST SWAP1 SSTORE PUSH2 0x202C DUP7 DUP3 SLOAD PUSH2 0x2758 JUMP JUMPDEST SWAP1 SSTORE DUP1 ISZERO DUP1 ISZERO PUSH2 0x206B JUMPI JUMPDEST POP POP PUSH32 0x1E3BC6EDF35D9744B767980DF51144C565EBC7F201C4A611D2A3E9888DEEF730 SWAP1 PUSH1 0x40 MLOAD SWAP5 DUP6 MSTORE CALLER SWAP5 LOG4 PUSH1 0x1 PUSH1 0x0 SSTORE STOP JUMPDEST PUSH1 0x0 DUP1 DUP1 SWAP4 DUP2 SWAP4 DUP3 SWAP1 PUSH2 0x2088 JUMPI JUMPDEST CALLER SWAP1 CALL ISZERO PUSH2 0x641 JUMPI DUP5 DUP1 PUSH2 0x2037 JUMP JUMPDEST POP PUSH2 0x8FC PUSH2 0x2079 JUMP JUMPDEST PUSH1 0xC ADD PUSH2 0x209E DUP2 SLOAD PUSH2 0x2765 JUMP JUMPDEST SWAP1 SSTORE DUP7 PUSH2 0x1FF0 JUMP JUMPDEST POP CALLVALUE SWAP5 PUSH2 0x1FBB JUMP JUMPDEST PUSH1 0x40 MLOAD PUSH3 0x461BCD PUSH1 0xE5 SHL DUP2 MSTORE PUSH1 0x4 DUP2 ADD DUP5 SWAP1 MSTORE PUSH1 0x3A PUSH1 0x24 DUP3 ADD MSTORE PUSH32 0x4D696C6573746F6E654D616E616765723A206D696C6573746F6E652066756E64 PUSH1 0x44 DUP3 ADD MSTORE PUSH32 0x696E672074617267657420616C72656164792072656163686564000000000000 PUSH1 0x64 DUP3 ADD MSTORE PUSH1 0x84 SWAP1 REVERT JUMPDEST POP POP PUSH1 0x0 PUSH2 0x1FA9 JUMP JUMPDEST PUSH1 0x84 SWAP1 PUSH1 0x40 MLOAD SWAP1 PUSH3 0x461BCD PUSH1 0xE5 SHL DUP3 MSTORE PUSH1 0x4 DUP3 ADD MSTORE PUSH1 0x2B PUSH1 0x24 DUP3 ADD MSTORE PUSH32 0x4D696C6573746F6E654D616E616765723A2063726561746F722063616E6E6F74 PUSH1 0x44 DUP3 ADD MSTORE PUSH11 0x20636F6E74726962757465 PUSH1 0xA8 SHL PUSH1 0x64 DUP3 ADD MSTORE REVERT JUMPDEST PUSH1 0x84 SWAP1 PUSH1 0x40 MLOAD SWAP1 PUSH3 0x461BCD PUSH1 0xE5 SHL DUP3 MSTORE PUSH1 0x4 DUP3 ADD MSTORE PUSH1 0x21 PUSH1 0x24 DUP3 ADD MSTORE PUSH32 0x4D696C6573746F6E654D616E616765723A20646561646C696E65207061737365 PUSH1 0x44 DUP3 ADD MSTORE PUSH1 0x19 PUSH1 0xFA SHL PUSH1 0x64 DUP3 ADD MSTORE REVERT JUMPDEST PUSH1 0x84 SWAP1 PUSH1 0x40 MLOAD SWAP1 PUSH3 0x461BCD PUSH1 0xE5 SHL DUP3 MSTORE PUSH1 0x4 DUP3 ADD MSTORE PUSH1 0x2D PUSH1 0x24 DUP3 ADD MSTORE PUSH32 0x4D696C6573746F6E654D616E616765723A206E6F7420616363657074696E6720 PUSH1 0x44 DUP3 ADD MSTORE PUSH13 0x636F6E747269627574696F6E73 PUSH1 0x98 SHL PUSH1 0x64 DUP3 ADD MSTORE REVERT JUMPDEST PUSH1 0x40 MLOAD PUSH3 0x461BCD PUSH1 0xE5 SHL DUP2 MSTORE PUSH1 0x20 PUSH1 0x4 DUP3 ADD MSTORE PUSH1 0x1F PUSH1 0x24 DUP3 ADD MSTORE PUSH32 0x4D696C6573746F6E654D616E616765723A206D7573742073656E642045544800 PUSH1 0x44 DUP3 ADD MSTORE PUSH1 0x64 SWAP1 REVERT JUMPDEST POP PUSH1 0x0 DUP3 DUP2 MSTORE PUSH1 0x4 PUSH1 0x20 MSTORE PUSH1 0x40 SWAP1 KECCAK256 SLOAD DUP2 GT ISZERO PUSH2 0x1F19 JUMP JUMPDEST CALLVALUE PUSH2 0x2DB JUMPI PUSH2 0x228D CALLDATASIZE PUSH2 0x23B6 JUMP JUMPDEST PUSH1 0x0 DUP3 DUP2 MSTORE PUSH1 0x5 PUSH1 0x20 MSTORE PUSH1 0x40 SWAP1 KECCAK256 SLOAD SWAP2 SWAP3 SWAP1 SWAP2 PUSH1 0x1 PUSH1 0x1 PUSH1 0xA0 SHL SUB AND PUSH2 0x2368 JUMPI POP DUP1 ISZERO PUSH2 0x230D JUMPI DUP2 PUSH1 0x0 MSTORE PUSH1 0x5 PUSH1 0x20 MSTORE PUSH1 0x40 PUSH1 0x0 KECCAK256 CALLER PUSH12 0xFFFFFFFFFFFFFFFFFFFFFFFF PUSH1 0xA0 SHL DUP3 SLOAD AND OR SWAP1 SSTORE PUSH1 0x6 PUSH1 0x20 MSTORE PUSH1 0x40 PUSH1 0x0 KECCAK256 SSTORE CALLER SWAP1 PUSH32 0x4F373B7130FDE2ECA917B55949B3F1B3EC21D20D77FE40CAB78CCED7B9EBD05C PUSH1 0x0 DUP1 LOG3 STOP JUMPDEST PUSH1 0x40 MLOAD PUSH3 0x461BCD PUSH1 0xE5 SHL DUP2 MSTORE PUSH1 0x20 PUSH1 0x4 DUP3 ADD MSTORE PUSH1 0x2D PUSH1 0x24 DUP3 ADD MSTORE PUSH32 0x4D696C6573746F6E654D616E616765723A2063616D706169676E207461726765 PUSH1 0x44 DUP3 ADD MSTORE PUSH13 0x74206D757374206265203E203 PUSH1 0x9C SHL PUSH1 0x64 DUP3 ADD MSTORE PUSH1 0x84 SWAP1 REVERT JUMPDEST PUSH3 0x461BCD PUSH1 0xE5 SHL DUP2 MSTORE PUSH1 0x20 PUSH1 0x4 DUP3 ADD MSTORE PUSH1 0x24 DUP1 DUP3 ADD MSTORE PUSH32 0x4D696C6573746F6E654D616E616765723A20616C726561647920726567697374 PUSH1 0x44 DUP3 ADD MSTORE PUSH4 0x195C9959 PUSH1 0xE2 SHL PUSH1 0x64 DUP3 ADD MSTORE PUSH1 0x84 SWAP1 REVERT JUMPDEST PUSH1 0x40 SWAP1 PUSH1 0x3 NOT ADD SLT PUSH2 0x2DB JUMPI PUSH1 0x4 CALLDATALOAD SWAP1 PUSH1 0x24 CALLDATALOAD SWAP1 JUMP JUMPDEST SWAP1 PUSH1 0x1 DUP3 DUP2 SHR SWAP3 AND DUP1 ISZERO PUSH2 0x23FC JUMPI JUMPDEST PUSH1 0x20 DUP4 LT EQ PUSH2 0x23E6 JUMPI JUMP JUMPDEST PUSH4 0x4E487B71 PUSH1 0xE0 SHL PUSH1 0x0 MSTORE PUSH1 0x22 PUSH1 0x4 MSTORE PUSH1 0x24 PUSH1 0x0 REVERT JUMPDEST SWAP2 PUSH1 0x7F AND SWAP2 PUSH2 0x23DB JUMP JUMPDEST PUSH1 0x60 DUP2 ADD SWAP1 DUP2 LT PUSH1 0x1 PUSH1 0x1 PUSH1 0x40 SHL SUB DUP3 GT OR PUSH2 0x13A0 JUMPI PUSH1 0x40 MSTORE JUMP JUMPDEST PUSH2 0x1C0 DUP2 ADD SWAP1 DUP2 LT PUSH1 0x1 PUSH1 0x1 PUSH1 0x40 SHL SUB DUP3 GT OR PUSH2 0x13A0 JUMPI PUSH1 0x40 MSTORE JUMP JUMPDEST PUSH1 0x20 DUP2 ADD SWAP1 DUP2 LT PUSH1 0x1 PUSH1 0x1 PUSH1 0x40 SHL SUB DUP3 GT OR PUSH2 0x13A0 JUMPI PUSH1 0x40 MSTORE JUMP JUMPDEST SWAP1 PUSH1 0x1F DUP1 NOT SWAP2 ADD AND DUP2 ADD SWAP1 DUP2 LT PUSH1 0x1 PUSH1 0x1 PUSH1 0x40 SHL SUB DUP3 GT OR PUSH2 0x13A0 JUMPI PUSH1 0x40 MSTORE JUMP JUMPDEST SWAP1 PUSH1 0x40 MLOAD SWAP2 DUP3 PUSH1 0x0 DUP3 SLOAD SWAP3 PUSH2 0x248D DUP5 PUSH2 0x23CC JUMP JUMPDEST SWAP1 DUP2 DUP5 MSTORE PUSH1 0x1 SWAP5 DUP6 DUP2 AND SWAP1 DUP2 PUSH1 0x0 EQ PUSH2 0x24FC JUMPI POP PUSH1 0x1 EQ PUSH2 0x24B9 JUMPI JUMPDEST POP POP PUSH2 0x24B7 SWAP3 POP SUB DUP4 PUSH2 0x2458 JUMP JUMPDEST JUMP JUMPDEST SWAP1 SWAP4 SWAP2 POP PUSH1 0x0 MSTORE PUSH1 0x20 SWAP1 DUP2 PUSH1 0x0 KECCAK256 SWAP4 PUSH1 0x0 SWAP2 JUMPDEST DUP2 DUP4 LT PUSH2 0x24E4 JUMPI POP POP PUSH2 0x24B7 SWAP4 POP DUP3 ADD ADD CODESIZE DUP1 PUSH2 0x24A9 JUMP JUMPDEST DUP6 SLOAD DUP9 DUP5 ADD DUP6 ADD MSTORE SWAP5 DUP6 ADD SWAP5 DUP8 SWAP5 POP SWAP2 DUP4 ADD SWAP2 PUSH2 0x24CC JUMP JUMPDEST SWAP2 POP POP PUSH2 0x24B7 SWAP5 POP PUSH1 0x20 SWAP3 POP PUSH1 0xFF NOT AND DUP3 DUP5 ADD MSTORE ISZERO ISZERO PUSH1 0x5 SHL DUP3 ADD ADD CODESIZE DUP1 PUSH2 0x24A9 JUMP JUMPDEST SWAP2 SWAP1 DUP3 MLOAD SWAP3 DUP4 DUP3 MSTORE PUSH1 0x0 JUMPDEST DUP5 DUP2 LT PUSH2 0x254B JUMPI POP POP DUP3 PUSH1 0x0 PUSH1 0x20 DUP1 SWAP5 SWAP6 DUP5 ADD ADD MSTORE PUSH1 0x1F DUP1 NOT SWAP2 ADD AND ADD ADD SWAP1 JUMP JUMPDEST PUSH1 0x20 DUP2 DUP4 ADD DUP2 ADD MLOAD DUP5 DUP4 ADD DUP3 ADD MSTORE ADD PUSH2 0x252A JUMP JUMPDEST SWAP1 PUSH1 0x6 DUP3 LT ISZERO PUSH2 0x478 JUMPI MSTORE JUMP JUMPDEST PUSH1 0x4 CALLDATALOAD SWAP1 PUSH1 0x1 PUSH1 0x1 PUSH1 0xA0 SHL SUB DUP3 AND DUP3 SUB PUSH2 0x2DB JUMPI JUMP JUMPDEST PUSH1 0x60 SWAP1 PUSH1 0x3 NOT ADD SLT PUSH2 0x2DB JUMPI PUSH1 0x4 CALLDATALOAD SWAP1 PUSH1 0x24 CALLDATALOAD SWAP1 PUSH1 0x44 CALLDATALOAD PUSH1 0x1 PUSH1 0x1 PUSH1 0xA0 SHL SUB DUP2 AND DUP2 SUB PUSH2 0x2DB JUMPI SWAP1 JUMP JUMPDEST SWAP2 DUP2 PUSH1 0x1F DUP5 ADD SLT ISZERO PUSH2 0x2DB JUMPI DUP3 CALLDATALOAD SWAP2 PUSH1 0x1 PUSH1 0x1 PUSH1 0x40 SHL SUB DUP4 GT PUSH2 0x2DB JUMPI PUSH1 0x20 DUP4 DUP2 DUP7 ADD SWAP6 ADD ADD GT PUSH2 0x2DB JUMPI JUMP JUMPDEST SWAP1 DUP2 MLOAD DUP2 MSTORE PUSH1 0x20 DUP3 ADD MLOAD PUSH1 0x20 DUP3 ADD MSTORE PUSH2 0x2674 PUSH2 0x2660 PUSH2 0x261C PUSH2 0x260A PUSH1 0x40 DUP7 ADD MLOAD PUSH2 0x1C0 DUP1 PUSH1 0x40 DUP9 ADD MSTORE DUP7 ADD SWAP1 PUSH2 0x251F JUMP JUMPDEST PUSH1 0x60 DUP7 ADD MLOAD DUP6 DUP3 SUB PUSH1 0x60 DUP8 ADD MSTORE PUSH2 0x251F JUMP JUMPDEST PUSH1 0x80 DUP6 ADD MLOAD PUSH1 0x80 DUP6 ADD MSTORE PUSH1 0xA0 DUP6 ADD MLOAD PUSH1 0xA0 DUP6 ADD MSTORE PUSH1 0xC0 DUP6 ADD MLOAD PUSH1 0xC0 DUP6 ADD MSTORE PUSH2 0x264C PUSH1 0xE0 DUP7 ADD MLOAD PUSH1 0xE0 DUP7 ADD SWAP1 PUSH2 0x255F JUMP JUMPDEST PUSH2 0x100 DUP1 DUP7 ADD MLOAD SWAP1 DUP6 DUP4 SUB SWAP1 DUP7 ADD MSTORE PUSH2 0x251F JUMP JUMPDEST PUSH2 0x120 DUP1 DUP6 ADD MLOAD SWAP1 DUP5 DUP4 SUB SWAP1 DUP6 ADD MSTORE PUSH2 0x251F JUMP JUMPDEST SWAP2 PUSH2 0x140 DUP1 DUP3 ADD MLOAD SWAP1 DUP4 ADD MSTORE PUSH2 0x160 DUP1 DUP3 ADD MLOAD SWAP1 DUP4 ADD MSTORE PUSH2 0x180 DUP1 DUP3 ADD MLOAD SWAP1 DUP4 ADD MSTORE PUSH2 0x1A0 DUP1 SWAP2 ADD MLOAD ISZERO ISZERO SWAP2 ADD MSTORE SWAP1 JUMP JUMPDEST PUSH1 0x1 SLOAD PUSH1 0x1 PUSH1 0x1 PUSH1 0xA0 SHL SUB AND CALLER SUB PUSH2 0x26B9 JUMPI JUMP JUMPDEST PUSH1 0x64 PUSH1 0x40 MLOAD PUSH3 0x461BCD PUSH1 0xE5 SHL DUP2 MSTORE PUSH1 0x20 PUSH1 0x4 DUP3 ADD MSTORE PUSH1 0x20 PUSH1 0x24 DUP3 ADD MSTORE PUSH32 0x4F776E61626C653A2063616C6C6572206973206E6F7420746865206F776E6572 PUSH1 0x44 DUP3 ADD MSTORE REVERT JUMPDEST ISZERO PUSH2 0x2704 JUMPI JUMP JUMPDEST PUSH1 0x40 MLOAD PUSH3 0x461BCD PUSH1 0xE5 SHL DUP2 MSTORE PUSH1 0x20 PUSH1 0x4 DUP3 ADD MSTORE PUSH1 0x26 PUSH1 0x24 DUP3 ADD MSTORE PUSH32 0x4D696C6573746F6E654D616E616765723A206E6F742063616D706169676E2063 PUSH1 0x44 DUP3 ADD MSTORE PUSH6 0x3932B0BA37B9 PUSH1 0xD1 SHL PUSH1 0x64 DUP3 ADD MSTORE PUSH1 0x84 SWAP1 REVERT JUMPDEST SWAP2 SWAP1 DUP3 ADD DUP1 SWAP3 GT PUSH2 0x2A9 JUMPI JUMP JUMPDEST PUSH1 0x0 NOT DUP2 EQ PUSH2 0x2A9 JUMPI PUSH1 0x1 ADD SWAP1 JUMP JUMPDEST SWAP3 SWAP2 SWAP3 PUSH1 0x1 PUSH1 0x1 PUSH1 0x40 SHL SUB DUP3 GT PUSH2 0x13A0 JUMPI PUSH1 0x40 MLOAD SWAP2 PUSH2 0x279D PUSH1 0x1F DUP3 ADD PUSH1 0x1F NOT AND PUSH1 0x20 ADD DUP5 PUSH2 0x2458 JUMP JUMPDEST DUP3 SWAP5 DUP2 DUP5 MSTORE DUP2 DUP4 ADD GT PUSH2 0x2DB JUMPI DUP3 DUP2 PUSH1 0x20 SWAP4 DUP5 PUSH1 0x0 SWAP7 ADD CALLDATACOPY ADD ADD MSTORE JUMP JUMPDEST SWAP1 PUSH1 0x1F DUP2 GT PUSH2 0x27C8 JUMPI POP POP POP JUMP JUMPDEST PUSH1 0x0 SWAP2 DUP3 MSTORE PUSH1 0x20 DUP3 KECCAK256 SWAP1 PUSH1 0x20 PUSH1 0x1F DUP6 ADD PUSH1 0x5 SHR DUP4 ADD SWAP5 LT PUSH2 0x2804 JUMPI JUMPDEST PUSH1 0x1F ADD PUSH1 0x5 SHR ADD SWAP2 JUMPDEST DUP3 DUP2 LT PUSH2 0x27F9 JUMPI POP POP POP JUMP JUMPDEST DUP2 DUP2 SSTORE PUSH1 0x1 ADD PUSH2 0x27ED JUMP JUMPDEST SWAP1 SWAP3 POP DUP3 SWAP1 PUSH2 0x27E4 JUMP JUMPDEST SWAP1 DUP1 PUSH1 0x20 SWAP4 SWAP3 DUP2 DUP5 MSTORE DUP5 DUP5 ADD CALLDATACOPY PUSH1 0x0 DUP3 DUP3 ADD DUP5 ADD MSTORE PUSH1 0x1F ADD PUSH1 0x1F NOT AND ADD ADD SWAP1 JUMP JUMPDEST ISZERO PUSH2 0x2836 JUMPI JUMP JUMPDEST PUSH1 0x40 MLOAD PUSH3 0x461BCD PUSH1 0xE5 SHL DUP2 MSTORE PUSH1 0x20 PUSH1 0x4 DUP3 ADD MSTORE PUSH1 0x23 PUSH1 0x24 DUP3 ADD MSTORE PUSH32 0x4D696C6573746F6E654D616E616765723A20696E76616C6964206D696C657374 PUSH1 0x44 DUP3 ADD MSTORE PUSH3 0x6F6E65 PUSH1 0xE8 SHL PUSH1 0x64 DUP3 ADD MSTORE PUSH1 0x84 SWAP1 REVERT JUMPDEST SWAP2 SWAP1 DUP3 SUB SWAP2 DUP3 GT PUSH2 0x2A9 JUMPI JUMP JUMPDEST PUSH1 0x2 PUSH1 0x0 SLOAD EQ PUSH2 0x28A5 JUMPI PUSH1 0x2 PUSH1 0x0 SSTORE JUMP JUMPDEST PUSH1 0x40 MLOAD PUSH3 0x461BCD PUSH1 0xE5 SHL DUP2 MSTORE PUSH1 0x20 PUSH1 0x4 DUP3 ADD MSTORE PUSH1 0x1F PUSH1 0x24 DUP3 ADD MSTORE PUSH32 0x5265656E7472616E637947756172643A207265656E7472616E742063616C6C00 PUSH1 0x44 DUP3 ADD MSTORE PUSH1 0x64 SWAP1 REVERT JUMPDEST ISZERO PUSH2 0x28F1 JUMPI JUMP JUMPDEST PUSH1 0x40 MLOAD PUSH3 0x461BCD PUSH1 0xE5 SHL DUP2 MSTORE PUSH1 0x20 PUSH1 0x4 DUP3 ADD MSTORE PUSH1 0x26 PUSH1 0x24 DUP3 ADD MSTORE PUSH32 0x4D696C6573746F6E654D616E616765723A2063616C6C6572206973206E6F7420 PUSH1 0x44 DUP3 ADD MSTORE PUSH6 0x6F7261636C65 PUSH1 0xD0 SHL PUSH1 0x64 DUP3 ADD MSTORE PUSH1 0x84 SWAP1 REVERT JUMPDEST ISZERO PUSH2 0x294C JUMPI JUMP JUMPDEST PUSH1 0x40 MLOAD PUSH3 0x461BCD PUSH1 0xE5 SHL DUP2 MSTORE PUSH1 0x20 PUSH1 0x4 DUP3 ADD MSTORE PUSH1 0x28 PUSH1 0x24 DUP3 ADD MSTORE PUSH32 0x4D696C6573746F6E654D616E616765723A206E6F7420696E205375626D697474 PUSH1 0x44 DUP3 ADD MSTORE PUSH8 0x6564207374617465 PUSH1 0xC0 SHL PUSH1 0x64 DUP3 ADD MSTORE PUSH1 0x84 SWAP1 REVERT JUMPDEST DUP2 DUP2 MUL SWAP3 SWAP2 DUP2 ISZERO SWAP2 DUP5 DIV EQ OR ISZERO PUSH2 0x2A9 JUMPI JUMP JUMPDEST SWAP1 PUSH1 0x0 DUP3 DUP2 MSTORE PUSH1 0x3 PUSH1 0x20 MSTORE PUSH1 0x40 DUP2 KECCAK256 DUP3 DUP3 MSTORE PUSH1 0x20 MSTORE PUSH1 0x40 DUP2 KECCAK256 SWAP1 PUSH1 0xA DUP3 ADD SLOAD PUSH2 0x29E2 PUSH1 0xB DUP5 ADD SLOAD DUP3 PUSH2 0x2758 JUMP JUMPDEST SWAP2 PUSH2 0x2710 SWAP2 DUP3 DUP5 MUL SWAP5 DUP5 DUP7 DIV DUP5 EQ DUP6 ISZERO OR ISZERO PUSH2 0x2A6A JUMPI PUSH1 0x5 ADD SLOAD SWAP5 PUSH2 0x2A09 PUSH1 0xA SLOAD DUP8 PUSH2 0x29A2 JUMP JUMPDEST GT PUSH2 0x2A61 JUMPI DUP3 DUP2 MUL SWAP3 DUP2 DUP5 DIV EQ SWAP1 ISZERO OR ISZERO PUSH2 0x2A4D JUMPI POP PUSH2 0x2A2B PUSH1 0xB SLOAD DUP4 PUSH2 0x29A2 JUMP JUMPDEST GT PUSH2 0x2A3B JUMPI POP POP PUSH2 0x24B7 SWAP2 PUSH2 0x2A7E JUMP JUMPDEST EQ PUSH2 0x2A44 JUMPI POP POP JUMP JUMPDEST PUSH2 0x24B7 SWAP2 PUSH2 0x2A7E JUMP JUMPDEST PUSH4 0x4E487B71 PUSH1 0xE0 SHL DUP2 MSTORE PUSH1 0x11 PUSH1 0x4 MSTORE PUSH1 0x24 SWAP1 REVERT JUMPDEST POP POP POP POP POP POP POP JUMP JUMPDEST PUSH4 0x4E487B71 PUSH1 0xE0 SHL DUP4 MSTORE PUSH1 0x11 PUSH1 0x4 MSTORE PUSH1 0x24 DUP4 REVERT JUMPDEST PUSH1 0x0 DUP2 DUP2 MSTORE PUSH1 0x3 PUSH1 0x20 MSTORE PUSH1 0x40 DUP2 KECCAK256 DUP4 DUP3 MSTORE PUSH1 0x20 MSTORE PUSH1 0x40 DUP2 KECCAK256 PUSH1 0x7 DUP2 ADD SWAP1 DUP2 SLOAD SWAP1 PUSH1 0xFF DUP3 AND PUSH1 0x6 DUP2 LT ISZERO PUSH2 0x2B90 JUMPI PUSH1 0x1 SUB PUSH2 0x2B88 JUMPI PUSH2 0x2AC5 PUSH1 0xB PUSH1 0xA DUP4 ADD SLOAD SWAP3 ADD SLOAD DUP3 PUSH2 0x2758 JUMP JUMPDEST SWAP1 DUP2 ISZERO ISZERO SWAP2 DUP3 PUSH2 0x2B48 JUMPI JUMPDEST POP POP ISZERO PUSH2 0x2B11 JUMPI POP DUP1 SLOAD PUSH1 0xFF NOT AND PUSH1 0x2 OR SWAP1 SSTORE PUSH1 0x40 MLOAD SWAP1 DUP2 MSTORE PUSH32 0x9FFBB52F2A1362273CD74689A516CA4F52C4282DC13E2E68B7E0646A9A7AF7A3 SWAP1 PUSH1 0x20 SWAP1 LOG3 JUMP JUMPDEST PUSH1 0xFF NOT AND PUSH1 0x3 OR SWAP1 SSTORE PUSH1 0x40 MLOAD SWAP1 DUP2 MSTORE PUSH32 0x888C5547E7A66DEAAEEF7CC96FDF1B39154057815E8D0F702C46858D074E66A5 SWAP1 PUSH1 0x20 SWAP1 LOG3 JUMP JUMPDEST SWAP1 SWAP2 POP PUSH2 0x2710 SWAP2 DUP3 DUP2 MUL SWAP3 DUP2 DUP5 DIV EQ SWAP1 ISZERO OR ISZERO PUSH2 0x2B74 JUMPI PUSH1 0xB SLOAD PUSH2 0x2B6B SWAP2 PUSH2 0x29A2 JUMP JUMPDEST GT ISZERO CODESIZE DUP1 PUSH2 0x2AD0 JUMP JUMPDEST PUSH4 0x4E487B71 PUSH1 0xE0 SHL DUP6 MSTORE PUSH1 0x11 PUSH1 0x4 MSTORE PUSH1 0x24 DUP6 REVERT JUMPDEST POP POP POP POP POP POP JUMP JUMPDEST PUSH4 0x4E487B71 PUSH1 0xE0 SHL DUP6 MSTORE PUSH1 0x21 PUSH1 0x4 MSTORE PUSH1 0x24 DUP6 REVERT JUMPDEST PUSH1 0x40 MLOAD SWAP1 PUSH2 0x2BB1 DUP3 PUSH2 0x2421 JUMP JUMPDEST DUP2 PUSH2 0x1A0 PUSH1 0x0 SWAP2 DUP3 DUP2 MSTORE DUP3 PUSH1 0x20 DUP3 ADD MSTORE PUSH1 0x60 PUSH1 0x40 DUP3 ADD MSTORE PUSH1 0x60 DUP1 DUP3 ADD MSTORE DUP3 PUSH1 0x80 DUP3 ADD MSTORE DUP3 PUSH1 0xA0 DUP3 ADD MSTORE DUP3 PUSH1 0xC0 DUP3 ADD MSTORE DUP3 PUSH1 0xE0 DUP3 ADD MSTORE PUSH1 0x60 PUSH2 0x100 DUP3 ADD MSTORE PUSH1 0x60 PUSH2 0x120 DUP3 ADD MSTORE DUP3 PUSH2 0x140 DUP3 ADD MSTORE DUP3 PUSH2 0x160 DUP3 ADD MSTORE DUP3 PUSH2 0x180 DUP3 ADD MSTORE ADD MSTORE JUMP JUMPDEST SWAP1 PUSH1 0x40 MLOAD PUSH2 0x2C1C DUP2 PUSH2 0x2421 JUMP JUMPDEST DUP1 SWAP3 DUP1 SLOAD DUP3 MSTORE PUSH1 0x1 DUP2 ADD SLOAD PUSH1 0x20 DUP4 ADD MSTORE PUSH2 0x2C38 PUSH1 0x2 DUP3 ADD PUSH2 0x2479 JUMP JUMPDEST PUSH1 0x40 DUP4 ADD MSTORE PUSH2 0x2C49 PUSH1 0x3 DUP3 ADD PUSH2 0x2479 JUMP JUMPDEST PUSH1 0x60 DUP4 ADD MSTORE PUSH1 0x4 DUP2 ADD SLOAD PUSH1 0x80 DUP4 ADD MSTORE PUSH1 0x5 DUP2 ADD SLOAD PUSH1 0xA0 DUP4 ADD MSTORE PUSH1 0x6 DUP2 ADD SLOAD PUSH1 0xC0 DUP4 ADD MSTORE PUSH1 0xFF PUSH1 0x7 DUP3 ADD SLOAD AND SWAP1 PUSH1 0x6 DUP3 LT ISZERO PUSH2 0x478 JUMPI PUSH1 0xD PUSH1 0xFF SWAP2 PUSH2 0x1A0 SWAP4 PUSH1 0xE0 DUP7 ADD MSTORE PUSH2 0x2C98 PUSH1 0x8 DUP3 ADD PUSH2 0x2479 JUMP JUMPDEST PUSH2 0x100 DUP7 ADD MSTORE PUSH2 0x2CAA PUSH1 0x9 DUP3 ADD PUSH2 0x2479 JUMP JUMPDEST PUSH2 0x120 DUP7 ADD MSTORE PUSH1 0xA DUP2 ADD SLOAD PUSH2 0x140 DUP7 ADD MSTORE PUSH1 0xB DUP2 ADD SLOAD PUSH2 0x160 DUP7 ADD MSTORE PUSH1 0xC DUP2 ADD SLOAD PUSH2 0x180 DUP7 ADD MSTORE ADD SLOAD AND ISZERO ISZERO SWAP2 ADD MSTORE JUMP JUMPDEST PUSH1 0x1 PUSH1 0x1 PUSH1 0x40 SHL SUB DUP2 GT PUSH2 0x13A0 JUMPI PUSH1 0x5 SHL PUSH1 0x20 ADD SWAP1 JUMP JUMPDEST DUP1 MLOAD DUP3 LT ISZERO PUSH2 0x2D06 JUMPI PUSH1 0x20 SWAP2 PUSH1 0x5 SHL ADD ADD SWAP1 JUMP JUMPDEST PUSH4 0x4E487B71 PUSH1 0xE0 SHL PUSH1 0x0 MSTORE PUSH1 0x32 PUSH1 0x4 MSTORE PUSH1 0x24 PUSH1 0x0 REVERT INVALID LOG2 PUSH5 0x6970667358 0x22 SLT KECCAK256 SWAP9 0xB0 REVERT 0xEF 0xC6 SWAP3 0x4C 0xC7 BYTE 0xB3 0xCC 0xD0 0xBC 0xAD 0xA6 0xA6 PUSH23 0xD3D59AF70F92D8E86237CE0A97FE6E64736F6C63430008 SGT STOP CALLER "},"methodIdentifiers":{"MAX_MILESTONES_PER_CAMPAIGN()":"705b14c0","approvalThresholdBps()":"cb7c172b","approveMilestoneByOracle(uint256,uint256)":"28fad646","campaignCreator(uint256)":"b48e784a","campaignTarget(uint256)":"ad6b7aa6","claimMilestoneRefund(uint256,uint256)":"31aee8a1","contributeToMilestone(uint256,uint256)":"147fefa6","createMilestone(uint256,string,string,uint256,uint256)":"8dc7b615","finalizeVoting(uint256,uint256)":"f01a5925","getCampaignMilestones(uint256)":"f91e4b29","getContribution(uint256,uint256,address)":"9b032342","getMilestone(uint256,uint256)":"8ed9895c","getVote(uint256,uint256,address)":"4f2b4234","isCampaignRegistered(uint256)":"583be14e","milestoneContributions(uint256,uint256,address)":"3eb6b2c6","milestoneCount(uint256)":"72ebb42a","milestones(uint256,uint256)":"1c376c63","oracleAddress()":"a89ae4ba","owner()":"8da5cb5b","registerCampaign(uint256,uint256)":"0e3f72cc","rejectMilestoneByOracle(uint256,uint256)":"657e62f7","renounceOwnership()":"715018a6","setOracleAddress(address)":"4c69c00f","setVotingParams(uint256,uint256,uint256)":"776e957a","submitMilestoneEvidence(uint256,uint256,string,string)":"bb7641e6","totalMilestoneTarget(uint256)":"ab881ffd","transferOwnership(address)":"f2fde38b","voteMilestone(uint256,uint256,bool)":"918cb241","votes(uint256,uint256,address)":"c8db7e7a","votingQuorumBps()":"bcded7b6","votingWindowSeconds()":"d1bc76eb","withdrawMilestoneFunds(uint256,uint256)":"bfe26612"}}}}}